:020000040800F2
:10000000505C0124F90300086F7A00087D73000832
:100010006D7A0008E90C00084D8B00080000000014
:10002000000000000000000000000000390300088C
:100030002110000800000000950300085980000806
:100040001304000813040008130400081304000834
:100050001304000813040008130400081304000824
:10006000130400081304000813040008ED0C000832
:10007000F90C0008050D000813040008130400081B
:1000800013040008130400081304000813040008F4
:1000900013040008130400081304000813040008E4
:1000A00013040008130400081304000813040008D4
:1000B0005982000865820008718200081304000854
:1000C00013040008130400081304000813040008B4
:1000D00013040008718A00081304000813040008C0
:1000E00013040008130400080000000013040008B3
:1000F0001304000813040008130400081304000884
:100100001304000813040008130400081304000873
:1001100013040008130400087D820008130400087B
:100120001304000813040008130400081304000853
:100130001304000813040008130400081304000843
:1001400000000000000000000000000000000000AF
:100150001304000813040008130400081304000823
:100160001304000813040008130400081304000813
:100170001304000813040008130400080000000022
:1001800013040008130400081304000813040008F3
:1001900013040008130400081304000813040008E3
:1001A00013040008130400081304000813040008D3
:1001B00013040008130400081304000813040008C3
:1001C00013040008130400081304000813040008B3
:1001D00013040008130400081304000813040008A3
:1001E0001304000813040008130400081304000893
:1001F0001304000813040008130400081304000883
:100200001304000813040008130400081304000872
:100210001304000813040008130400081304000862
:100220001304000813040008130400080000000071
:100230001304000813040008000000001304000861
:1002400013040008DD0C0008130400081304000860
:100250001304000813040008130400081304000822
:100260001304000813040008130400081304000812
:100270001304000813040008130400080000000021
:100280001304000813040008130400080000000011
:10029000000000001304000800F002F800F03CF831
:1002A0000AA090E8000C82448344AAF10107DA45D1
:1002B00001D100F031F8AFF2090EBAE80F0013F0E7
:1002C000010F18BFFB1A43F001031847ECB80000F8
:1002D0000CB90000103A24BF78C878C1FAD8520788
:1002E00024BF30C830C144BF04680C6070470000B0
:1002F0000023002400250026103A28BF78C1FBD82F
:10030000520728BF30C148BF0B6070471FB50BF0C4
:10031000EFFA1FBD10B510BD00F0DCF91146FFF774
:10032000F5FF09F069FA00F0FAF903B4FFF7F2FFFC
:1003300003BC00F0FDF900002C4B19680868B0E818
:10034000F04F80F30988BFF36F8F4FF0000080F308
:10035000118870470000000008480068006880F3BA
:1003600008884FF0000080F3148862B661B6BFF3CE
:100370004F8FBFF36F8F00DF00BF00BF08ED00E0BD
:10038000DFF80C00016841F470010160704700BFA4
:1003900088ED00E0EFF30980BFF36F8F134B1A680D
:1003A0001EF0100F08BF20ED108A20E9F04F1060FA
:1003B00009B44FF0500080F31188BFF34F8FBFF3A3
:1003C0006F8F0AF07FFA4FF0000080F3118809BCAC
:1003D00019680868B0E8F04F1EF0100F08BFB0ECC5
:1003E000108A80F30988BFF36F8F70474C00002498
:1003F000EFF305807047000009488047094800472F
:10040000FEE7FEE7FEE7FEE7FEE7FEE7FEE7FEE7C4
:10041000FEE7FEE704480549054A064B7047000021
:100420004D81000899020008503A0124505C0124D3
:10043000503C0124503C012453EA020C00F0698036
:100440002DE9F04B4FF00006002B1FBFB3FA83F5E8
:1004500003FA05F424FA05F65E4012BF1643B2FA19
:1004600082F502FA05F4C5F120051EBF22FA05FC4B
:1004700044EA0C04203556EA044C4FEA144418BFF1
:10048000641C4FF000084FF00009904271EB030C20
:1004900039D3002919BFB1FA81F701FA07F6B0FA8A
:1004A00080F700FA07F6C7F120071EBF20FA07FC05
:1004B00046EA0C062037B6FBF4FCA7EB0507103F15
:1004C00007F01F0BCBF120060CFA0BFB2CFA06F6FB
:1004D00044BFB3460026202FA4BF5E464FF0000B5A
:1004E0005BEA060C08BF4FF0010B19EB0B09ABFBE5
:1004F000027C48EB0608C01B06FB02CC0BFB03CCBE
:1005000071EB0C01C1E70B46024641464846BDE887
:10051000F08B13B54FF000004FF00001AFF30080F7
:10052000BDE81C407047032A40F2308010F0030CF5
:1005300000F0158011F8013BBCF1020F624498BF36
:1005400011F801CB00F8013B38BF11F8013BA2F1D3
:10055000040298BF00F801CB38BF00F8013B11F04E
:10056000030300F02580083AC0F0088051F8043BEE
:10057000083A51F804CBA0E80810F5E7121D5CBF5B
:1005800051F8043B40F8043BAFF30080D20724BF8E
:1005900011F8013B11F801CB48BF11F8012B24BF22
:1005A00000F8013B00F801CB48BF00F8012B704771
:1005B00010B5203AC0F00B80B1E81850203AA0E8FE
:1005C0001850B1E81850A0E81850BFF4F5AF5FEA32
:1005D000027C24BFB1E81850A0E8185044BF18C9E5
:1005E00018C0BDE810405FEA827C24BF51F8043B8C
:1005F00040F8043B08BF7047D20728BF31F8023BE0
:1006000048BF11F8012B28BF20F8023B48BF00F873
:10061000012B70474FF000020429C0F0128010F047
:10062000030C00F01B80CCF1040CBCF1020F18BFCE
:1006300000F8012BA8BF20F8022BA1EB0C0100F061
:100640000DB85FEAC17C24BF00F8012B00F8012B34
:1006500048BF00F8012B70474FF0000200B5134669
:1006600094469646203922BFA0E80C50A0E80C50D2
:10067000B1F12001BFF4F7AF090728BFA0E80C5083
:1006800048BF0CC05DF804EB890028BF40F8042B7C
:1006900008BF704748BF20F8022B11F0804F18BFE9
:1006A00000F8012B704770477047704710B500F095
:1006B00009F8006810BD10B5044600F003F80460A6
:1006C00010BD000000487047F03901240048704711
:1006D000F03901247546FFF7F9FFAE46050069467B
:1006E000534620F00700854618B020B5FFF792FE6C
:1006F000BDE820404FF000064FF000074FF0000823
:100700004FF0000B21F00701AC46ACE8C009ACE8A3
:10071000C009ACE8C009ACE8C0098D46704710B507
:100720000446AFF300802046BDE81040FFF7FDBD52
:1007300001491820ABBEFEE726000200704700000A
:1007400070B53B490546006888421CBF394A904253
:1007500005D1D1F8080310F4403F06D115E0364822
:10076000D0F8080310F4403F0FD004F089FD044690
:100770006868B0F5803F14BFB0F5003F000C1BD097
:10078000B0F5403F08BFA40822E04FF4002003F07A
:10079000E7FC044668688103890B19D180140C2892
:1007A00016D2DFE800F0150606060606060C0E1047
:1007B00012146868800C4000B4FBF0F408E02409CF
:1007C00006E0640904E0A40902E0E40900E0240A68
:1007D00003F084F841F20301884208D81748A04288
:1007E0002868816828BF21F4807112D20FE0144973
:1007F0006008884204D82868816821F4407108E0C4
:100800001049884207D82868816821F4407141F472
:100810008071816070BD0C498842286881689ABFE8
:1008200021F4407141F4007141F44071F1E700009E
:10083000002002400021024000600258002D3101DA
:10084000105E5F0020BCBE0040787D0110B50146FF
:10085000806B426D12F0500F06D0426D12F0100FF7
:100860002FD001F04DFA10BD416D41F4007141658A
:1008700001680A6812F0080F10D0CA6812F4406FBD
:1008800004BFC96811F4005F18D1416D21F4807173
:100890004165416D11F4805F10D10BE0C96811F022
:1008A000030F0BD1416D21F480714165416D11F44D
:1008B000805F03D1416D41F00101416501F01EFAF5
:1008C00010BDC06CC26C0846BDE81040104710B5A2
:1008D000806B416D41F040014165816D41F0040143
:1008E000816501F00DFA10BD10B5806B01F007FABB
:1008F00010BD000070B5044600688168826812F07F
:10090000010FC1F3400132D089BB816801F00D01B4
:1009100001291DD1816821F03F0121F0004141F002
:100920000201816021680320086002F0DDFF0546B6
:100930002068806810F0010F19D000BF02F0D4FFCA
:10094000401B02280ED92068806810F0010F09D0E2
:10095000606D40F010006065A06D40F00100A06582
:10096000012070BD2068806810F0010FE6D10020E2
:1009700070BD000070B504460068816811F0010F79
:1009800042D181686FF39E1100293FD1816821F027
:100990003F0121F0004141F00101816002F0A4FF1C
:1009A000DFF87CC0054620681E4A60451ABF9042A9
:1009B0001D491E498968904201F01F030CBF614622
:1009C0000146814212BF002B006810F0010F1BD1BD
:1009D0002068816811F0010F07D1816821F03F0183
:1009E00021F0004141F00101816002F07DFF401BD8
:1009F000022804D92068006810F0010F06D0206892
:100A0000006810F0010FE3D0002070BD606D40F071
:100A100010006065A06D40F00100A065012070BD70
:100A200000200240002102400063025800230240DF
:100A3000F0B58749002501F01F002DED028B87B02E
:100A4000001D0295039504950595BFF34F8F814BCB
:100A5000A0F1200219602031002A10DD6FF01E0C79
:100A6000ACEB020C01204FEAEC720CEBD26252119B
:100A7000524202E01960401C20318242FADABFF390
:100A80004F8FBFF36F8F724CDFED730A9FED731AB8
:100A9000DFED732A9FED730A9FED732A208801EE24
:100AA000900AF8EE611A11EEA01A31EE221A8DEDBD
:100AB000021A608801EE100AB8EE411A11EE200AFF
:100AC000B3EE001B30EE420A8DED030AB0EE000BD0
:100AD00008F09AF9A188B7EE002B9FED653B9FEDDA
:100AE000661B30EE424B6648664A00EE101ADFED98
:100AF000662AB3EE0E2AB8EE405B85EE040B00EEDC
:100B0000031BB7EEC10B8DED040AE1880388128840
:100B1000B0F800C0C81A00EE900AA2EB0C00B5EEC7
:100B2000C00AF8EEE00A20EEA21A00EE900AF8EEF3
:100B3000E00AC1EE201A71EE820AF1EE10FACDED54
:100B4000050A04DD10EE100A504981422ADC10EE3D
:100B5000100A4F4A4F491044884238BF012422D31B
:100B600010EE100A4C4A1044884238BF02241AD3AF
:100B700010EE100A494B4A4A1844904238BF0324E9
:100B800011D310EE100A474A1044884238BF04249B
:100B900009D310EE100A444A44491044884238BF31
:100BA000052400D32C46ADF800502CB94048002253
:100BB0004FF4007102F08DFE3E48082102F084FEE1
:100BC000012818BFADF8004032D054B10222684667
:100BD000002100F055FD0222694644F2261000F083
:100BE000E1FC9FED358A5FF0000444F2281702AE65
:100BF00006EB840595ED000AB0EEC00A10EE100A6F
:100C0000B0F17C5FB8BF85ED008A28460422002140
:100C100000F036FD0422294607EB840000F0C2FCF8
:100C2000601CC4B2042CE3D307B0BDEC028BF0BD52
:100C3000022C9CBF0620ADF80000C6D9042C94BF3E
:100C400008200720ADF80000C0E700000000000009
:100C5000000000385CEF00E09981CA3B508D3E43B4
:100C60006666A63FC1993B433333B33E00000000A4
:100C7000000000A0BD3D3040000000C0F528DC3F72
:100C800020E8F11F40E8F11F0000A042CDCC2C412C
:100C90006791CDBECAA105009CEFC7BED14DC2BEB3
:100CA000C9A1050007ACBCBE3C0AB7BEA2701D00BE
:100CB00000200258001402580000000006481021CD
:100CC000406809F03BFE00BFFFF7B2FE4FF4FA6048
:100CD00008F0BCFEF8E7000018000024014801F00D
:100CE0004FBD000070040124FEE70000014801F040
:100CF00047BD00005C060124014801F041BD000031
:100D0000D4060124014801F03BBD0000F803012492
:100D1000244A016891421CBF234A91422CD0234AA5
:100D200091421CBF224A914226D0224A91421CBFC6
:100D3000214A914220D0214A91421CBF204A91422F
:100D40001AD0204A91421CBF1F4A914214D01F4A18
:100D500091421CBF1E4A91420ED01E4A91421CBFB6
:100D60001D4A914208D01D4A91421FBF1C4A914220
:100D700021F0FF01816512D11A4ACBB2A3F1100311
:100D80006FF30901A2FB03324FEA1212032A02F0A9
:100D90000703154AD25CC26588BF091D81650846F4
:100DA000704700001000024028000240400002404E
:100DB000580002407000024088000240A00002403B
:100DC000B8000240100402402804024040040240DF
:100DD000580402407004024088040240A00402400B
:100DE000B8040240ABAAAAAA94BA00082DE9F04FB1
:100DF000734ED0F800C0734FDFF8CC81B445DFF8F4
:100E0000CC91DFF8CCA1846DDFF8C8B1724D18BF6A
:100E1000BC454DD0C44518BFCC4549D0D44518BFBA
:100E2000DC4545D0DFF8B4E1F44518BFAC453FD010
:100E3000DFF8ACE1F4451CBFDFF8A8E1F44537D09A
:100E4000DFF8A4E1F4451CBFDFF8A0E1F4452FD0A2
:100E5000DFF89CE1F4451CBFDFF898E1F44527D0AA
:100E6000DFF894E1F4451CBFDFF890E1F4451FD0B2
:100E7000DFF88CE1F4451CBFDFF888E1F44517D0BA
:100E8000DFF884E1F4451CBFDFF880E1F4450FD0C2
:100E9000DFF87CE1F4451CBFDFF878E1F44507D0CA
:100EA000DFF874E1F4451CBFDFF870E1F4450CD1C4
:100EB000D0E919CECCF804E0D0F86CC0BCF1000F3A
:100EC0001CBFD0E91CCECCF804E0D0F800C0B4457B
:100ED00018BFBC4524D0C44518BFCC4520D0D4454C
:100EE00018BFDC451CD03D4EB44518BFAC4517D0EB
:100EF0003B4DAC451CBF3B4DAC4511D03A4DAC45CC
:100F00001CBF3A4DAC450BD0394DAC451CBF394DDB
:100F1000AC4505D0384DAC451CBF384DAC4524D14F
:100F200090F85C504FF03F0C05F01F050CFA05FCE3
:100F3000C4F808C0D0F800C0DCF8004024F48024D5
:100F4000CCF80040D0F800C0CCF804308368402BC7
:100F500005D103689A600068C160BDE8F08F03683E
:100F600099600068C260BDE8F08F254DAC451CBF9C
:100F7000244DAC4512D0244DAC451CBF234DAC458F
:100F80000CD0234DAC451CBF224DAC4506D0224DA4
:100F9000AC451EBF214DAC45BDE8F08F90F85C50CC
:100FA0004FF0010C05F01F050CFA05FCC4F804C055
:100FB000D0F800C0CCF804308368402BCFD1C8E70C
:100FC0001000024028000240400002405800024049
:100FD0007000024088000240B8000240A0000240B9
:100FE0001004024028040240400402405804024019
:100FF0007004024088040240A0040240B804024089
:10100000085402581C540258305402584454025890
:10101000585402586C540258805402589454025840
:10102000704700001F4900222DE9F003CA605A25CD
:10103000D1F808800127A5264FF0820C072303244E
:1010400088F8005007EB4005C868401CC8608F68EE
:101050003E54C868401CC8608E683354C868401C41
:10106000C8608B6803F800C0C868401CC8608B6803
:101070001C54C868401CC8608B681D54C868401C5C
:10108000C8608B681A54C868401CC8608B681A54C2
:10109000C868421CCA60886891B2BDE8F00300F0DD
:1010A00007BA00008C0500242DE9F05F8C4900246C
:1010B0005A254FF0D308A5264FF0820B4FF00309B5
:1010C000A446CC60B4238F6800F500523D70CF6811
:1010D0007F1CCF60D1F808A00AF80760CF684FF0F6
:1010E000100A7F1CCF60D1F808E00EF80780CF68A7
:1010F0004FF001087F1CCF60D1F808E00EF807B070
:10110000CF684FF0640B7F1CCF60D1F808E00EF879
:101110000790CF687F1CCF60D1F8089009F807A02E
:10112000CF687F1CCF60D1F8089009F80750CF68CE
:101130007F1CCF60D1F8089009F80760CE68761C54
:10114000CE608F6807F80680CE68761CCE608F6808
:10115000BC55CE68761CCE60D1F80880077808F8B8
:101160000670CE68761CCE608F6807F806B0CE6831
:10117000761CCE6092F8F5784FF01408012F4FF0EE
:10118000000703BF4FF00A09D1F808A05644D1F870
:10119000089018BF4E4459D017F0010F14BF357096
:1011A0003470A8F101081FFA88F8B8F1000F06F1B1
:1011B000010607F10107EFD1CE684CF25039DFF894
:1011C00024A140F271281436C1F80C6092F8F76837
:1011D00006EB460707EBC61600EBC60606EB4C0708
:1011E000BE897F89BE423ABFA9EB07073E44F61B82
:1011F000142BB6FBF8F649D892F8F5084FF0000228
:101200004FF0140301281DBF4FF00A0CD1E902056D
:101210002844D1E9020C08BF604429D012F0010F24
:1012200014BF80F800C004705B1E00F101001B04B5
:1012300002F101021B0CF1D1C8681430C8608A8920
:101240008868BDE8F05F91B200F032B917F0010F85
:1012500014BF86F800903470A8F101081FFA88F8CE
:10126000B8F1000F06F1010607F10107EED1A3E77F
:1012700012F0010F14BF057004705B1E00F1010035
:101280001B0402F101021B0CF2D1D5E7D1E9027B6C
:101290000CF1010C07F80B40AAFB06EBCF684FEAF4
:1012A000DB0B7F1CCF60ABEB0B1BD1F808E00BEB2B
:1012B0008B0B5E440F360EF80760CE68761CCE604E
:1012C00092F8F7689B1E06EB460707EBC61600EB85
:1012D000C6063689BCFBF6F706FB17CC76E700009E
:1012E0008C050024B5814E1B0E4E00250E4C0821A6
:1012F000706809F023FB207880B1257000F09CF81D
:10130000D4F8081404F20C40FFF7A6F9C4F8085406
:101310008022064804F20C4105F072FF012008F01B
:1013200095FBE4E71800002400010024CC0501240B
:101330000E4A00230E48DFF83CC002F110014DF8C0
:10134000044DC2E902C30CF20444C2E9004302683E
:101350000A6042684A6082688A60C268CA6002693C
:101360000A61406948615DF8044B70478C050024B0
:1013700000000024080100242E4900222DE9F0037A
:10138000CA605A23D1F808C0A5274FF00908822463
:1013900084258CF800300126D1F80CC00CF1010C2A
:1013A000C1F80CC0D1F8089009F80C70D1F80CC045
:1013B000070A0CF1010CC1F80CC0D1F8089009F82B
:1013C0000C80D1F80CC00CF1010CC1F80CC0D1F8A4
:1013D000088008F80C40D1F80CC00CF1010CC1F8E1
:1013E0000CC08C6804F80C20CA68521CCA60D1F882
:1013F00008C00CF80250CA68521CCA60D1F808C074
:101400000CF80230CA68521CCA608B689E54CA68C5
:10141000521CCA608B689F54CA68521CCA608B6891
:101420009854C868421CCA60886891B2BDE8F0034D
:1014300000F03EB88C0500241849002208680378A3
:101440005A2B03BF4378A52BC1784A600CBF832970
:10145000704770B584B08188002400924DBA019223
:1014600002920392817949060E0EC11D32466846EA
:10147000FFF759F80A4800BF50F83430AB4207D1A3
:1014800000EBC400314642686846904704B070BD26
:10149000611CCCB2032CEFD304B070BD8C050024CA
:1014A0009C05002401494860704700008C05002419
:1014B00070B5C0B00C464FF4807105466846FFF722
:1014C000CBF8224629466846FFF72DF8E11E4FF675
:1014D000FF70EB1C4FF0000211EA000518BF4AF242
:1014E000010C15D013F8016B0421704010F0010FAE
:1014F00014BF8CEA5000400810F0010F14BF8CEAB2
:1015000050004008491EF1D1511C8AB2AA42E9D3C9
:10151000621C030A0DF8040090B2421C92B20DF84E
:101520000030002A684623DD00F01F039918BFF33E
:101530004F8FDFF868C0A1F12003CCF80000002B2A
:1015400000F1200110DD6FF01E04E31A0120DC170A
:1015500003EBD4635B115B4204E000BFCCF80010E6
:10156000401C20318342F9DABFF34F8FBFF36F8FF6
:101570000B48694605F0AEFE094C2068C06910F0C2
:10158000400F1CBF40B070BD1E2008F05FFA2068FD
:10159000C06910F0400FF7D040B070BD68EF00E0B8
:1015A000CC050124354B4FF05A0C2DE9F0030024F3
:1015B000DC60D3F80880A527541D8225060A88F828
:1015C00000C0002AD3F80CC00CF1010CC3F80CC009
:1015D000D3F8088008F80C70D3F80CC00CF1010C9B
:1015E000C3F80CC09F6807F80C40D3F80CC00CF18E
:1015F000010CC3F80CC09C6804F80C50D3F80CC064
:101600000CF1010CC3F80CC09C6804F80C60D3F812
:101610000CC00CF1010CC3F80CC09C6804F80C0061
:10162000D86800F10100D86020D0D3F808C012F0CB
:10163000010FA1F101016044A0F1010003D011F8F4
:1016400001CF00F801CFC2F3470CBCF1000F0AD064
:101650004C78ACF1010C44701CF0FF0C11F8024FF7
:1016600000F8024FF4D1D8681044D860998998687E
:10167000BDE8F00389B2FFF71BBF00008C05002412
:101680008B18A3F1010370B4520803F0FF0C19BFCB
:101690000144002370BC7047ACEB03040D78521E6C
:1016A00003F10103065D01F8016B0555F4D170BC2F
:1016B000704772B6FEE70000F8B5002504461646EE
:1016C0000F46009590F85000012804BF0220F8BD95
:1016D000012084F850002046FFF70CF90200606DED
:1016E00018BF40F010002DD120F4885040F00200C7
:1016F0006065206807F4803106F0804C144B41EAA5
:101700000C01D0F808C00CEA0303194341F0004172
:101710008160104B20688168C90F0ED00099491C68
:1017200000918B42F7D8606D84F8505020F0020091
:1017300040F0100060650120F8BD606D20F00200EF
:1017400040F001006065104684F85050F8BD00007C
:10175000C0FFFE3F00F8C3252DE9F00190F85020AE
:10176000002599B0012A01BF022019B0BDE8F0019F
:1017700070474FF0000C012280F85020CDF854C083
:10178000344BCDF858C002689A4218D1324C0094BC
:10179000A668926812F0040FC6F3800208BF002A00
:1017A00019D0416D4FF0010541F02001C0F85410EF
:1017B00080F850C019B02846BDE8F0017047416D6F
:1017C00080F850C041F02001416519B04FF0010090
:1017D000BDE8F0017047214A214E0F680FB3D2F8DF
:1017E00008804F6828F4404848EA07079760076870
:1017F0009F4211BFA7429C68D3F80831234318BF0A
:10180000B36813F0010FD3D10B688968946843EA79
:10181000010124F01F0323F4706341EA0301916086
:10182000C6E7916821F4404191600168994219BF6F
:10183000A142B1689968D3F8083108BF194311F083
:10184000010F02BF916821F01F0121F47061AFD137
:10185000E5E7000000200240002102400023024092
:10186000006002582DE9F00F84B00025AC460195C8
:1018700090F85020012A01BF022004B0BDE8F00F0B
:101880007047012380F850300268946814F0040F08
:101890000DD0416D4FF0010C41F02001C0F8541003
:1018A00080F8505004B06046BDE8F00F70470C68F7
:1018B000D66927033F0B1ABF94FAA4F4B4FA84F450
:1018C000C4F3846404F01F0403FA04F43443D461C1
:1018D000D1E900720C2406684FF01F0804EA92193F
:1018E00002F01F0409EB0602C7F3846608FA04F746
:1018F00006FA04F4166BBE433443146302680424EE
:1019000007269768D2F80890C7F38008C9F3C00784
:1019100058EA070762D10F68D1F8088004EAD7595E
:10192000C7F304574A4406FA07F908FA07F7D2F84A
:10193000148028EA090848EA07075761E54A12684F
:1019400002F07042B2F1805F026848D0D768D26876
:1019500017F0100F4F6907BFC2F38202520002F066
:101960001002520807FA02F20F69042F3FD0D0F894
:101970000090D1F8008009EB870708F0F849D7F804
:10198000608049EA020208F0004848EA02023A662A
:101990004F7E0268D1F81080012F0CBF4FF0004736
:1019A000002702EB8802D2F8608028F0004848EA5D
:1019B000070717660F7E0268D1F81080012F0CBF51
:1019C0004FF400670027D2F8109008F01F0807FABC
:1019D00008F729F4F04848EA070717613BE04F6928
:1019E000D268C2F38202520007FA02F2BCE7026830
:1019F0000F78D2F8608008F0F848B8EB876F03D111
:101A0000176E27F00047176602680F78D2F86480D7
:101A100008F0F848B8EB876F03D1576E27F00047FE
:101A2000576602680F78D2F8688008F0F848B8EB7B
:101A3000876F03D1976E27F00047976602680F788B
:101A4000D2F86C8008F0F848B8EB876F03D1D76EF6
:101A500027F00047D7660268976817F0010F7FF4F8
:101A60001FAFD2F8C09091F80C800F68DFF868A221
:101A700008F0180BC7F313082AFA0BFA29EA08082A
:101A80000AEA070748EA0707C2F8C070CF68A7F15B
:101A90008E42B2F57F027DD10A680768C2F313084F
:101AA000B8F1000F1ABF92FAA2F8B8FA88F8C2F398
:101AB000846808F1010808F01F08B8F1090FC2F3A3
:101AC00013082BD8B8F1000F1ABF92FAA2F8B8FA8F
:101AD00088F8C2F3846808F1010808F01F0803FAC7
:101AE00008F80EBFC2F3846392FAA2F3B3FA83F349
:101AF00003F1010303F01F0348EA83630EBFC2F33F
:101B0000846292FAA2F2B2FA82F202F1010202F0C7
:101B10001F0202EB420243EA025230E0B8F1000F2A
:101B20000EBFC2F3846892FAA2F8B8FA88F808F1F6
:101B3000010808F01F0803FA08F80EBFC2F3846317
:101B400092FAA2F3B3FA83F303F1010303F01F0344
:101B500048EA83630EBFC2F3846292FAA2F2B2FA39
:101B600082F2DFF8788102F1010202F01F0202EB3B
:101B7000420208EB025243EA020242F000728B6812
:101B800004EAD254C2F30452274406FA02F403FAD8
:101B900002F300E005E07E6926EA040444EA030358
:101BA0007B610C6814F0004F3FF47AAE4C4F016833
:101BB0004C4EDFF83491B942DFF8308116BF414511
:101BC00032464A469268B942494B02F0E07211BF70
:101BD0004145D7F808A0D7F808B14AEA0B0A18BF60
:101BE000D3F808A01AF0010F7FF453AE04F1505A55
:101BF0001AF5F80A08BF12F4000F1ED004F1605A5B
:101C00001AF52E0A08BF12F0807F4ED004F1405A18
:101C10001AF5900A04BF12F4800F99427FF440AE87
:101C2000B9421CBF41454E46B36842F4800123F0DF
:101C3000E07242EA0101B16032E699427FF430AECF
:101C4000B9421CBF41454E46B36842F4000123F03F
:101C5000E07242EA0101B160274A26491268B2FBEC
:101C6000F1F14FEA4101891C019100913FF418AE56
:101C7000B1F1004F29D20029D8BF002105DD11F0B4
:101C8000010102D0019A521E0192009A491C521C75
:101C90009142B8BF019BBFF603AE5B1E891C914207
:101CA000A3F101030193F8DBFAE599427FF4F8AD63
:101CB000B9421CBF41454E46B36842F0807123F0E3
:101CC000E07242EA0101B160EAE50199491E019121
:101CD000FCD1E5E50010005CFFFF0F00000020FED6
:101CE000002002400023024000630258002102400D
:101CF00000600258400D0300440000247047704704
:101D000070470000F0B583B04FF000060400354680
:101D1000029602BF012003B0F0BD606D28B92046D5
:101D200000F02EF9A66584F8506020688168C1F340
:101D3000407129B1816821F03F0121F0204181608B
:101D400020688168C1F3007161BB816821F03F01A7
:101D500021F0004141F08051816080497E4809684E
:101D6000B1FBF0F0401C029000901BD0B0F1004F8E
:101D700080F0EC800028D8BF002005DD10F00100C5
:101D800002D00299491E02910099401C491C8842C8
:101D9000B8BF029A06DA521E801C8842A2F10102E4
:101DA0000292F8DB20688168C1F3007141B9616D6E
:101DB000012541F010016165A16D41F00101A165AE
:101DC0008168626D12F0100FC1F3800108BF002915
:101DD00005D0606D4FF0010540F0100097E0616D97
:101DE00021F4807141F002016165816811F0010FF9
:101DF00016D000BF01F072FD41F20301884202D902
:101E0000A068102829D0617D237FA268206B490338
:101E100041EA034110430843217F012931D12AE0DF
:101E20004F49504A88421DBF90424F4B9B688B6878
:101E300004BFD1F808C143EA0C0313F0010FD9D154
:101E400088421ABF9042494849488268616822F432
:101E50007C1242EA01018160CCE7607D227F216B28
:101E60004FEA403040EA024041F0100141EA0000F0
:101E700040F00C00D0E7218C3E4A02EB414141EAA0
:101E80000000616A31B1A26A01F4787141EA000090
:101E900042EA00002168384ACB6803EA020242EABB
:101EA0000000C860206881688368C1F38002C3F3C2
:101EB000C00111431DD1237DE16AC26841EA83312B
:101EC00022F0030222F480421143C16094F83800EA
:101ED000012820D02068016921F0010101612068FA
:101EE000616B026922F07042114301612046FEF7E6
:101EF00027FCE068012820681CBF016B21F00F015E
:101F00001DD00163606D20F0020040F001006065AB
:101F100003B02846F0BD2068D4E91012B4F83CC0E4
:101F2000164EA36C0769ACF1010C114343EA0C4255
:101F3000114307EA0603194341F00101CEE7A26904
:101F4000016B521E21F00F011143DAE70298401E87
:101F50000290FCD126E70000400D0300440000245D
:101F60000020024000210240006002580063025835
:101F7000002302400000FEFF03C0F0FF1EF800FC3B
:101F80002DE9F04786B0064600253B480322009520
:101F90004FF4806701954FF4006802954FF40059A3
:101FA00003954FF4807A04953168A1F18043B3F52D
:101FB000083332D0A1F1B043B3F518331CBF06B0DB
:101FC000BDE8F087016841F080710160016801F0AF
:101FD00080710591016841F0200101600068694647
:101FE00000F0200005908020CDE90002234801F098
:101FF00055FB234C1121234820602046C4E90115DC
:10200000C4E90357C4E907A5C4E9058900F05EFFE8
:1020100068B300BFFFF74DFB29E01B490B6843F095
:1020200020030B60096801F020010591016841F06F
:10203000040101600068694600F00400059030204A
:10204000CDE90002114801F029FB114C092011498A
:102050002160C4E90105C4E90357C4E907A5656225
:102060002046C4E9058900F031FF0028D2D1F4648C
:10207000A66306B0BDE8F087E04402580014025899
:102080007004012408540258D84402580008025829
:10209000F8030124400002402DE9F0473F4E04467A
:1020A00000689146DFF8F8808A46B04216BF404586
:1020B0003C493D498968806801F01F0510F0040F14
:1020C00069D194F85000012865D001204FF0000735
:1020D000002D84F8500018BF052D06D0092D1EBF15
:1020E000012084F85070BDE8F0872046FEF742FCDE
:1020F00000281CBF84F85070BDE8F087616D20682F
:1021000021F0010121F46061404541F48071616575
:1021100018BF0646864218BF002D03D1606D20F41B
:1021200080106065606D10F4805F08BFA76503D004
:10213000A06D20F00600A065E16C4FF01C001B4A6A
:10214000CA63E26C1A491164E26C1A49D1642168CD
:10215000086084F850702068416841F010014160C7
:102160002068E16AC26822F0030242EA0101C1600C
:1021700021684B46E06C524601F1400101F042F902
:1021800021688A6822F03F0222F0004242F00402F5
:102190008A60BDE8F0870220BDE8F0870020024099
:1021A0000021024000230240006302584D0800084D
:1021B000E9080008CF0800082DE9F05F044601F0A7
:1021C00093FB002C834600F0D38094F8350002285E
:1021D00006D080216165002084F8340000F0C8B882
:1021E000B3492068B34DB44E8842B44FDFF8D08273
:1021F000DFF8D09218BFA84225D0B04218BFB8422D
:1022000021D0404518BF48451DD0AF4A90421CBF61
:10221000AE4A904217D0AE4A90421CBFAD4A90429F
:1022200011D0AD4A90421CBFAC4A90420BD0AC4A90
:1022300090421CBFAB4A904205D0AB4A90421CBFB3
:10224000AA4A904209D1026822F01E020260206868
:10225000426922F08002426103E0026822F00E022D
:102260000260D4F800A08A45504618BFA8423DD06D
:10227000B04218BFB84239D0404518BF484535D0A4
:10228000914A90421CBF914A90422FD0904A90426E
:102290001CBF904A904229D08F4A90421CBF8F4A5F
:1022A000904223D08E4A90421CBF8E4A90421DD04D
:1022B0008D4A90421CBF8D4A904217D08C4A904262
:1022C0001CBF8C4A904211D08B4A90421CBF8B4A53
:1022D00090420BD08A4A90421CBF8A4A904205D055
:1022E000894A90421CBF894A924504D1206E0268F7
:1022F00022F4807202606E492068884218BFA842AA
:102300001FD0B04218BFB8421BD0404518BF484547
:1023100017D06D4988421CBF6C49884211D06C4966
:1023200088421CBF6B4988420BD06B4988421CBF56
:102330006A49884205D06A4988421EBF6949884275
:102340006949016821F001010160DAF8000010F02C
:10235000010F15D001F0C8FAA0EB0B0005280AD92F
:10236000202262650020032184F8340084F83510AF
:102370000120BDE8F09FDAF8000010F0010FE9D16C
:102380004B4901222068884218BFA84225D0B0429C
:1023900018BFB84221D0404518BF48451DD04A4B10
:1023A00098421CBF494B984217D0494B98421CBFDA
:1023B000484B984211D0484B98421CBF474B98421B
:1023C0000BD0474B98421CBF464B984205D0464B1A
:1023D00098421CBF454B98420AD194F85C304FF0AC
:1023E0003F0CA06D03F01F030CFA03F3836007E0BA
:1023F00094F85C30A06D03F01F0302FA03F343600E
:102400002068884218BFA8423DD0B04218BFB842E9
:1024100039D0404518BF484535D02B4988421CBFAC
:102420002A4988422FD02A4988421CBF294988421C
:1024300029D0294988421CBF2849884223D02849ED
:1024400088421CBF274988421DD0274988421CBFAB
:102450002649884217D0264988421CBF2549884210
:1024600011D0254988421CBF244988420BD02449F9
:1024700088421CBF2349884205D0234988421CBF9B
:10248000224988420BD1D4E919014160E06E30B194
:10249000016821F480710160D4E91C0141604FF0B2
:1024A000000084F8340084F83520BDE8F09F000077
:1024B0001000024028000240400002405800024044
:1024C0007000024088000240A0000240B8000240B4
:1024D0001004024028040240400402405804024014
:1024E0007004024088040240A0040240B804024084
:1024F000085402581C54025830540258445402588C
:10250000585402586C54025880540258945402583B
:10251000002804BF0120704790F83510022903D02D
:1025200080214165012070472DE9F05FDFF8ECB1B3
:1025300001687B4A7B4B5945DFF8ECC17B4C7C4DF5
:102540007C4E7D4FDFF8F481DFF8F491DFF8F4A1E1
:1025500018BF914225D0994218BF614521D0A142B0
:1025600018BFA9421DD0B1421CBFDFF8DCE17145A4
:1025700017D0DFF8D8E1714518BFB94211D0DFF8A4
:10258000D0E171451CBFDFF8CCE1714509D0DFF81F
:10259000C8E1714518BF414503D0494518BF5145B1
:1025A00024D14FF0040E80F835E0594518BF914210
:1025B00017D0994218BF614513D0A14218BFA94254
:1025C0000FD0B1421CBF604881420AD05F488142AF
:1025D00018BFB94205D05E4881421EBF5D488142A6
:1025E0005D48086820F00100086094E0D1F800E040
:1025F000DFF828B12EF00E0EC1F800E00168594551
:1026000018BF91421CD0994218BF614518D0A14211
:1026100018BFA94214D0B1421CBFDFF82CB15945F4
:102620000ED0DFF828B1594518BFB94208D0DFF8FD
:1026300020B159451EBFDFF81CB15945DFF818B16C
:10264000D1F800B02BF0010BC1F800B0DFF8CCE0FE
:102650004FF0010B0168714518BF914238D0994283
:1026600018BF614534D0A14218BFA94230D0B14251
:102670001CBF354A91422BD0344A914218BFB9420F
:1026800026D0334A91421CBF324A914220D0324A6E
:10269000914218BF41451BD0494518BF514517D03D
:1026A0002E4A91421CBF2E4A914211D02D4A91428E
:1026B0001CBF2D4A91420BD02C4A91421CBF2C4A80
:1026C000914205D02B4A91421CBF2B4A914218D10E
:1026D000016E0A6822F480720A6090F85C20816DB5
:1026E00002F01F020BFA02F24A60D0E919124A60A6
:1026F000C16E31B10A6822F480720A60D0E91C12FE
:102700004A604FF00002016D80F8342080F835B047
:10271000002918BF88470020BDE8F09F1000024044
:102720002800024040000240580002407000024071
:1027300088000240A00002402804024088040240B1
:10274000A0040240B8040240B80002401004024055
:1027500040040240580402407004024008540258E9
:102760001C540258305402584454025858540258C9
:102770006C5402588054025894540258406D70476B
:102780002DE9F84F0446DFF800840020DFF80094BC
:1027900000904FF41652FD48A56DFE4EFE4F0168A5
:1027A0002068B1FBF2FBD5F800A0404529681CBFAA
:1027B000F74A90422BD0B04218BFB84227D0F74A10
:1027C00090421CBFF64A904221D0F64A90421CBF6C
:1027D000F54A90421BD0F54A90421CBFF44A904201
:1027E00015D0F44A90421CBFF34A90420FD0F34BED
:1027F00098421CBFDFF8C8C3604508D0DFF8C4E3C7
:1028000070451CBFDFF8C0E3704540F0308294F89B
:102810005C204FF0080102F01F0201FA02F212EAF6
:102820000A0F41D0404518BF48452AD0B04218BFD2
:10283000B84226D0D94A90421CBFD94A904220D0F3
:10284000D84A90421CBFD84A90421AD0D74A9042E8
:102850001CBFD74A904214D0D64A90421CBFD64AD9
:1028600090420ED0D54A90421CBFD54A904208D023
:10287000D44A90421FBFD44A9042026802F0080234
:1028800002D1026802F0040272B1026822F004026E
:10289000026094F85C0000F01F0001FA00F0A860EC
:1028A000606D40F00100606594F85C0000F01F016D
:1028B0004FF0010000FA01F111EA0A0F36D020684A
:1028C000404518BF484528D0B04218BFB84224D070
:1028D000B24A90421CBFB24A90421ED0B14A9042C6
:1028E0001CBFB14A904218D0B04A90421CBFB04AB7
:1028F000904212D0AF4A90421CBFAF4A90420CD0D7
:10290000AE4A90421CBFAE4A904206D0AD4A9042B9
:102910001EBFAD4A9042006808D1406910F0800F98
:1029200004D0A960606D40F00200606594F85C001E
:1029300000F01F014FF0040000FA01F111EA0A0F44
:1029400036D02068404518BF484528D0B04218BF4F
:10295000B84224D0914A90421CBF914A90421ED066
:10296000904A90421CBF904A904218D08F4A9042A1
:102970001CBF8F4A904212D08E4A90421CBF8E4A92
:1029800090420CD08D4A90421CBF8D4A904206D096
:102990008C4A90421EBF8C4A9042006808D1006861
:1029A00010F0020F04D0A960606D40F00400606573
:1029B00094F85C104FF0100001F01F0100FA01F1D3
:1029C00011EA0A0F4FD02068404518BF48452AD069
:1029D000B04218BFB84226D0704A90421CBF704A1D
:1029E000904220D06F4A90421CBF6F4A90421AD04A
:1029F0006E4A90421CBF6E4A904214D06D4A90427B
:102A00001CBF6D4A90420ED06C4A90421CBF6C4A6B
:102A1000904208D06B4A90421FBF6B4A90420068B8
:102A200000F0040002D1006800F00800D8B1A960ED
:102A30002068016811F4802F09D0006810F4002F7D
:102A400002D0A16C79B10CE0216C51B90BE00168A6
:102A500011F4807F03D1016821F008010160216C2D
:102A600009B12046884794F85C10202001F01F012E
:102A700000FA01F111EA0A0F6ED02068404518BF34
:102A800048452AD0B04218BFB84226D0434A9042A7
:102A90001CBF434A904220D0424A90421CBF424A47
:102AA00090421AD0414A90421CBF414A904214D0F1
:102AB000404A90421CBF404A90420ED03F4A90424A
:102AC0001CBF3F4A904208D03E4A90421FBF3E4A38
:102AD0009042006800F0020002D1006800F010008F
:102AE000D0B3A96094F8350004282068016809D0A3
:102AF00011F4802F34D0006810F4002F2DD0E16B3A
:102B000051B33DE021F0160101602068416921F0D8
:102B100080014161206C002804BFA06C002804D013
:102B20002068016821F00801016094F85C304FF0E2
:102B30003F024FF000014FF0010003F01F0302FAC3
:102B400003F2AA6084F8341084F83500216D00295E
:102B500040F08C81BDE8F88F14E0616C81B911E020
:102B6000016811F4807F09D102680023012122F05D
:102B70001002026084F8343084F83510E16B09B13A
:102B800020468847606D21E0100002404400002488
:102B900028000240400002405800024070000240FD
:102BA00088000240A0000240B80002401004024029
:102BB00028040240400402405804024070040240CD
:102BC00088040240A0040240B8040240002808BF64
:102BD000BDE8F88F606D10F0010F43D0206804212C
:102BE00084F83510404518BF484521D0B04218BF81
:102BF000B8421DD0A04988421CBFA049884217D0C6
:102C00009F4988421CBF9F49884211D09E498842F3
:102C10001CBF9E4988420BD09D4988421CBF9D49DC
:102C2000884205D09C4988421EBF9C4988429C49E5
:102C3000016821F0010101602068009901F10101A2
:102C40000091594503D8016811F0010FF5D1002119
:102C500084F83410006810F0010F14BF0320012025
:102C600084F83500E16C00293FD1BDE8F88FDFF82A
:102C7000349248451CBFDFF83092484518D0DFF841
:102C80002C9248451CBFDFF82892484510D0DFF849
:102C9000249248451CBFDFF82092484508D0DFF851
:102CA0001C9248451EBFDFF818924845BDE8F88FD2
:102CB00094F85CA04FF0040BD0F800900AF01F0AC3
:102CC0000BFA0AFB1BEA010F18BF19F0040F4BD0D7
:102CD00019F4004FC5F804B00DD019F4803F05D0A9
:102CE000216C002908BFBDE8F88FBFE0A16C002966
:102CF00076D1BDE8F88F19F0200F31D1206840451A
:102D00001CBF7049884227D0B04218BFB84223D0B8
:102D1000594988421CBF594988421DD058498842A8
:102D20001CBF5849884217D0574988421CBF574991
:102D3000884211D05649884218BF90420CD0984220
:102D400018BF604508D0564988421FBF5E49884277
:102D5000016821F0040102D1016821F0080101603D
:102D6000216CE9BBBDE8F88F4FF0020B0BFA0AFBB0
:102D70001BEA010F18BF19F0020F54D019F4004FCD
:102D8000C5F804B00CD019F4803F05D0E16B0029E0
:102D900008BFBDE8F88F69E0616C09BBBDE8F88F3A
:102DA00019F0200F3BD1206840451CBF454988429F
:102DB00029D0B04218BFB84225D02F4988421CBF45
:102DC0002E4988421FD02E4988421CBF2D49884277
:102DD00019D02D4988421CBF2C49884213D000E0ED
:102DE00044E02B49884218BF90420CD0984218BF4B
:102DF000604508D02A4988421FBF3349884201688C
:102E000021F00A0102D1016821F0140101604FF0A4
:102E1000000184F834104FF0010084F83500E16BB4
:102E200021BBBDE8F88F4FF0080202FA0AF20A420D
:102E300014BF19F0080FBDE8F88F016821F00E01EA
:102E4000016094F85C104FF0010001F01F0100FADE
:102E500001F24FF000016A60606584F8341084F874
:102E60003500E16C002908BFBDE8F88F204601B0AD
:102E7000BDE8F04F084700007000024088000240A3
:102E8000A0000240B80002401004024028040240A2
:102E9000400402405804024070040240880402408A
:102EA000A0040240085402581C54025830540258DE
:102EB00044540258585402586C54025880540258D2
:102EC0009454025828000240B80402402DE9F84FFB
:102ED000044600F009FD002C834600F04982FE49BB
:102EE0004FF0010620684FF00005FC4FDFF8F0833B
:102EF0008842DFF8F093DFF8F0A31CBFFB4988425B
:102F00002AD0FB4988421CBFFA49884224D0FA499A
:102F100088421CBFF94988421ED0F94988421CBF2B
:102F2000F849884218D0F84988421CBFF7498842BE
:102F300012D0F74988421CBFF64988420CD0F649A6
:102F400088421CBFF549884206D0F54988421CBF1B
:102F5000F449884240F0D980DF494FF0020284F8FA
:102F6000345084F8352088421CBFE049884223D081
:102F7000DF4988421CBFDF4988421DD0DE498842B4
:102F80001CBFDE49884217D0DD4988421CBFDD499D
:102F9000884211D0DC4988421CBFDC4988420BD0F2
:102FA000DB4988421CBFDB49884205D0DA498842A8
:102FB0001EBFDA498842DA49016821F00101016047
:102FC0002068006810F0010F13D000BF00F08CFCE7
:102FD000A0EB0B00052807D920216165032084F8A8
:102FE00035000120BDE8F88F2068006810F0010F5F
:102FF000ECD1D4E9021C2068D4E9042E009041EA07
:103000000C01D4E9063CD4F820B042EA0E02006874
:103010000A43C5491A43D4F824E042EA0C020840A6
:1030200042EA0B01BEF1040F41EA000003D1D4E9EA
:103030000B1211430843BD4909686FF30F01B1F149
:10304000005F11D36168A1F12902052A84BFA1F1B3
:103050003F02032A06D9A1F14702012A84BF4F3952
:10306000032901D840F48010009908602368606A41
:103070005969042821F0070140EA010239D1D4E955
:103080000A100A4330B3D4F818C0BCF1000F0AD0BC
:10309000BCF5005F14D000291CBF0129022921D0F2
:1030A00003291CD025E019B1012905D0022920D11E
:1030B00010F0807F1DD015E0B0F1C07F19D111E074
:1030C00081B1012907D002290CD0032908BFB0F132
:1030D000C07F07D00DE010F0807F03D109E010F031
:1030E000807F06D04FF04000606584F8356000F0C6
:1030F0003FB95A612046FDF70BFE94F85C203F2152
:1031000002F01F029140816051E08949884218BF56
:10311000B8420FD0404518BF48450BD050451CBFA2
:103120008449884206D0844988421CBF834988422A
:1031300040F0168184F834504FF0020184F83510C5
:103140000168A2686FF310110091402A08BF102295
:1031500004D0802A0CBF4FF480420022D4E903CE71
:10316000D4E9053142EADC02D4E907CB42EADE0EBB
:10317000734A4EEAD30E734B4EEAD10141EADC01A9
:1031800041EA1B1C00994CEA0101016020681044CF
:10319000A3FB001000098000E0652046FDF7B8FDA4
:1031A00094F85C1001F01F0106FA01F141604A49F0
:1031B000206888421CBF4D4988423DD04C49884216
:1031C0001CBF4C49884237D04B4988421CBF4B49F1
:1031D000884231D04A4988421CBF4A4988422BD094
:1031E000494988421CBF4949884225D048498842FC
:1031F0001CBF484988421FD0474988421CBF4749E5
:10320000884219D0464988421CBF4649884213D09B
:103210004749884218BFB8420ED0404518BF4845BC
:103220000AD050451CBF4349884205D042498842D4
:103230001CBF424988424DD13D4A904218BFB84216
:103240000ED0404518BF48450AD050451CBF3949EB
:10325000884205D0384988421CBF384988423AD153
:10326000384BC0B2A0F108003749A3FB0030374B00
:1032700063664FEA101000F01F0301EB800006FAAE
:1032800003F1A1662066A068802808BF65602079E8
:10329000216E0860D4E9190141606068411E072968
:1032A0007DD8C1B24B1E072B7AD82068904218BF38
:1032B000B8420ED0404518BF48450AD050451CBF03
:1032C0001C4A904205D01C4A90421CBF1B4A9042A7
:1032D0006FD13DE07FE04FE0100002401C540258E7
:1032E000305402584454025858540258280002409E
:1032F0004000024058000240700002408800024036
:10330000A0000240B800024010040240280402401D
:103310004004024058040240700402408804024005
:10332000A0040240B80402403F8010FE0010005C80
:10333000085402586C54025880540258945402584D
:10334000F8ABFDA7CDCCCCCC005802588058025821
:103350002548244A02EB8101C4E91B102FE000BF7D
:103360004FF040014FF00300616584F8350000BF65
:103370004FF00100BDE8F88F1C49C3B2A3F1100C57
:103380001B4BA1FB0CC11844A8284FEA111098BF91
:103390000830184900F01F0301EB800002E017E03D
:1033A00010E006E0144906FA03F3A366C4E9180125
:1033B00069E71348114A02EB8101C4E91B1006FAC0
:1033C00003F06067E06E0560D4E91C01416002E033
:1033D000E56625676567656584F835600020BDE8AA
:1033E000F88F0000FC58025840590258ABAAAAAA0C
:1033F000F0FBFDBF0008024080080240FC080240CC
:10340000400902402DE9F84F04008E464FF00000BD
:10341000009004BF0120BDE8F88F94F83400012823
:1034200004BF0220BDE8F88F94F835C001200021C8
:1034300084F83400BCF1010F07D084F83410C202C4
:10344000009062650098BDE8F88FDFF8F0C10225B2
:10345000206884F835506045794D6165794E7A4F22
:10346000DFF8E881DFF8E891DFF8E8A1DFF8E8B1FC
:1034700018BFA8421DD0B04218BFB84219D040456D
:1034800018BF484515D0504518BF584511D073494D
:1034900088421CBF724988420BD0724988421CBFC7
:1034A0007149884205D0714988421EBF70498842DF
:1034B0007049016821F00101016071462046FDF765
:1034C00095FC5E492068884218BFA84223D0B042CC
:1034D00018BFB8421FD0404518BF48451BD05045C3
:1034E00018BF584517D05D4A90421CBF5C4A9042B5
:1034F00011D05C4A90421CBF5B4A90420BD05B4AA1
:1035000090421CBF5A4A904205D05A4A90421CBF72
:10351000594A90420CD1026822F01E0242F0160273
:103520000260206C88B12068026842F008020BE05B
:10353000026822F00E0242F00A020260206C20B102
:103540002068026842F0040202602068884218BFC6
:10355000A8423BD0B04218BFB84237D0404518BF50
:10356000484533D0504518BF58452FD03B4A90426C
:103570001CBF3B4A904229D03A4A90421CBF3A4A6B
:10358000904223D0394A90421CBF394A90421DD004
:10359000384A90421CBF384A904217D0374A90426E
:1035A0001CBF374A904211D0364A90421CBF364A5F
:1035B00090420BD0354A90421CBF354A904205D00C
:1035C000344A90421CBF344A90420ED1206E0268A9
:1035D00012F4803F03D0026842F480720260E06E11
:1035E00018B1026842F4807202602068884218BFF5
:1035F000A8421DD0B04218BFB84219D0404518BFEC
:10360000484515D0504518BF584511D01349884238
:103610001CBF134988420BD0124988421CBF124973
:10362000884205D0114988421EBF1149884211497C
:10363000016841F00101016004E700001000024050
:103640002800024040000240580002407000024042
:1036500088000240A0000240B8000240100402406E
:103660002804024040040240580402407004024012
:1036700088040240A0040240B804024008540258E2
:103680001C5402583054025844540258585402589A
:103690006C54025880540258945402580B6800220B
:1036A000DFF81CC2002B08BF70472DE9F84F032537
:1036B0004FF0010A0B680AFA02F6334000F0F88076
:1036C0004C68012C18BF022C03D0112C18BF122CEF
:1036D00018D184684FEA4207D1F80C8005FA07F93F
:1036E00024EA090408FA07F747EA040484604468F6
:1036F0000F7924EA0604C7F3001707FA02F646EA30
:1037000004044460C6684FEA4204D1F8088005FA10
:1037100004F726EA070608FA04F848EA0606C6602F
:103720004E68022E18BF122E17D14FEAD208D1F8D8
:1037300010E04FEA42764FF00F0B00EB8808D8F804
:1037400020904FEAD6660BFA06FB0EFA06F629EA37
:103750000B0946EA0906C8F8206091F8048006685B
:1037600008F0030826EA070608FA04F444EA060407
:1037700004604C6814F0805F7DD0524C266846F09F
:1037800002062660246822F0030606F1B0464FF0D8
:103790000F0804F0020400944FEA8274D6F808740B
:1037A0004FEA1474A0F1B04908FA04F8B9F50039E9
:1037B00027EA080708BF4FF0000848D0A0F1B0483A
:1037C000B8F5013808BF4FF0010840D0A0F1B0486B
:1037D000B8F5023808BF4FF0020838D0A0F1B04861
:1037E000B8F5033808BF4FF0030830D0A0F1B04857
:1037F000B8F5043808BF4FF0040828D0A0F1B0484D
:10380000B8F5053808BF4FF0050820D0A0F1B04842
:10381000B8F5063808BF4FF0060818D0A0F1B04838
:10382000B8F5073808BF4FF0070810D0A0F1B0482E
:10383000B8F5083808BF4FF0080808D0A0F1B04824
:10384000B8F509380CBF4FF009084FF00A0808FA1C
:1038500004F43C43C6F80844DCF800404E6824EA0F
:10386000030416F4803F18BF1C43CCF80040DCF87A
:1038700004404E6800E01BE016F4003F24EA030415
:1038800018BF1C43CCF804404FF0B0444F68266882
:1038900017F4801F26EA030618BF1E4326604F68F0
:1038A000666817F4001F26EA030618BF1E43666009
:1038B0000B68521CD3407FF4FDAEBDE8F88F0000CA
:1038C00080000058F44402580069084018BF0120E5
:1038D0007047002A08BF09048161704701480068E9
:1038E000000C70470010005C0148806870470000C1
:1038F00038000024002804BF0120704770B502681A
:1039000004464CF6CC4145F25550116021680860E0
:10391000D4E9000141602168A0688860FFF7E4FFF6
:1039200005462068C06810F0070F10D0FFF7DCFFD5
:10393000401B302806D92068C06810F0070F01D05E
:10394000032070BD2068C06810F0070FEED1216819
:10395000E0680A69824212BF08614AF6AA2008603C
:10396000002070BD01684AF6AA2008600020704758
:103970000248816802781144816070473800002451
:10398000032010B500F016F901F0FAFC0F4A1049B7
:1039900013681268C3F3032302F00F02CB5C895C47
:1039A00003F01F0201F01F01D0400A4A20FA01F182
:1039B000116009490860002000F010F800281CBFC1
:1039C000012010BD00F0A4F8002010BD18440258DA
:1039D000C4BA0008480000244400002410B5102890
:1039E00004468AB02ED2002201461C2000F0B2F814
:1039F0001C2000F09FF8194804601948016841F044
:103A000001010160006809A900F001000890684602
:103A100001F000FC0598C0B101F056FC4000114ACD
:103A2000002140F2E733B0FBF2F20F484FF0804C38
:103A3000C0F800C0C0E90331521EC0E9012102F004
:103A4000B5F828B10AB0012010BD01F03DFCE6E751
:103A5000054802F085F90AB010BD00003C000024C2
:103A6000E844025840420F004C070124DFF858C0D8
:103A7000F0B443780CF10402111DCCF80030037847
:103A8000002B04BF002010601BD043681360057B2F
:103A9000C37A827A90F80DC02F07847B47EA0367C8
:103AA000C57B47EAC242467A42EA8C42037A42EA3E
:103AB000444242EA0542007842EA062242EA4302D0
:103AC00010430860F0BC704798ED00E0BFF35F8FD3
:103AD000044800210368044A23F480330360116022
:103AE0007047000024ED00E094ED00E0074A40F04C
:103AF000010005491060086840F480300860BFF399
:103B00004F8FBFF36F8F704724ED00E094ED00E01E
:103B1000074882B0016841F002010160006800229C
:103B20000F2100F002000090901E02B000F012B8C9
:103B3000F44402580028B8BF7047410900F01F0044
:103B40008A00012102F1E02201FA00F0C2F800012E
:103B500070470000164B30B41B68C3F30223C3F157
:103B6000070CBCF1040F88BF4FF0040C1C1D072C80
:103B700034BF0023DB1E012404FA0CFC04FA03F515
:103B8000ACF101042140A5F1010C99400CEA0202BC
:103B9000114300284FEA0111B8BF00F00F0000F1F7
:103BA000E020ACBF80F8001480F8141D30BC7047D2
:103BB0000CED00E0074900F007004FF6FF030A682C
:103BC0001A4042EA002040F0FD7040F0806008603A
:103BD000704700000CED00E014490A6812F0040F71
:103BE00007D1096801F00701814214BF01200020BC
:103BF000704770B50A6822F0070210430860FFF7AB
:103C000073FE0B4D0446286810F4005F0CD100BF12
:103C1000FFF76AFE001BB0F57A7F01D9012070BD65
:103C2000286810F4005FF3D0002070BD0C480258E3
:103C30000448025810B501F023FB05490968054AFC
:103C4000C1F30211515C01F01F01C84010BD00001A
:103C500020440258C4BA000862494DF8044DDFF808
:103C600088C10B1D0A6809681C68DCF800C002F0F6
:103C7000030304F00102C1F30511CCF3CC0C0029BD
:103C80001CFB02F200EE102AF8EE400A7ED09FEDF7
:103C9000571A9FED572A574AB7EE000A23B1012B56
:103CA0003BD0022B4FD024E0534BD3F800C01CF084
:103CB000200F1ED0DFF844C11B6801EE901AC3F339
:103CC000C1011368F8EE612A2CFA01F101EE901A95
:103CD000C3F30801F8EE611A81EEA22A01EE901AF0
:103CE000F8EE611A40EE811A71EE800A62EE200A47
:103CF0003EE001EE901A1168F8EE611AC1F3080176
:103D0000C2EE212A01EE901AF8EE611A40EE811AF5
:103D100071EE800A62EEA00A2AE001EE901A1168A4
:103D2000DFED372AF8EE611AC1F3080182EEA12A0D
:103D300001EE901AF8EE611A40EE811A71EE800AD7
:103D400062EE200A14E001EE901A1168DFED2D2AD0
:103D5000F8EE611AC1F3080182EEA12A01EE901A71
:103D6000F8EE611A40EE811A71EE800A62EE200AC6
:103D70001168C1F3462101EE101AB8EE411A31EE76
:103D8000001AC0EE811ABCEEE11A00E022E080EDDC
:103D9000001A1168C1F3064101EE101AB8EE411A7B
:103DA00031EE001AC0EE811ABCEEE11A80ED011A64
:103DB0001168C1F3066101EE101AB8EE411A31EE36
:103DC000000A80EE801ABCEEC10A80ED020A5DF89E
:103DD000044B704700210160416081605DF8044B35
:103DE000704700002844025834440258000000394B
:103DF0000024744C30440258004402580090D00310
:103E00000024744A20BCBE4B61494DF8044DDFF8D4
:103E100084C10B1D0A6809681C68DCF800C002F048
:103E20000303C1F30531C4F30012CCF3CC0C002919
:103E30001CFB02F200EE102AF8EE400A7DD09FED46
:103E4000561A564AB7EE000ACBB1DFED551A012BD0
:103E500001D0022B4ED002EE101A1168F8EE422A61
:103E6000C1F3080181EEA22A01EE901AF8EE611A60
:103E700040EE811A71EE800A62EE200A4FE0494B53
:103E8000D3F800C01CF0200F1ED0DFF81CC11B6847
:103E900001EE901AC3F3C1011368F8EE612A2CFAFF
:103EA00001F101EE901AC3F30801F8EE611A81EEF8
:103EB000A22A01EE901AF8EE611A40EE811A71EE14
:103EC000800A62EE200A2AE001EE901A1168DFED06
:103ED000372AF8EE611AC1F3080182EEA12A01EE39
:103EE000901AF8EE611A40EE811A71EE800A62EEC5
:103EF000200A14E001EE901A1168DFED2D2AF8EE89
:103F0000611AC1F3080182EEA12A01EE901AF8EEBF
:103F1000611A40EE811A71EE800A62EE200A116881
:103F2000C1F3462101EE101AB8EE411A31EE001A23
:103F3000C0EE811ABCEEE11A00E022E080ED001A2A
:103F40001168C1F3064101EE101AB8EE411A31EEC4
:103F5000001AC0EE811ABCEEE11A80ED011A116858
:103F6000C1F3066101EE101AB8EE411A31EE000AF3
:103F700080EE801ABCEEC10A80ED020A5DF8044BA7
:103F8000704700210160416081605DF8044B70471B
:103F9000284402583C440258000000393844025872
:103FA0000024744A004402580090D0030024744C4A
:103FB00020BCBE4B61494DF8044DDFF884C10B1D98
:103FC0000A6809681C68DCF800C002F00303C1F34A
:103FD0000551C4F30022CCF3CC0C00291CFB02F2E7
:103FE00000EE102AF8EE400A7DD09FED561A564A90
:103FF000B7EE000ACBB1DFED551A012B01D0022B31
:104000004ED002EE101A1168F8EE422AC1F30801F0
:1040100081EEA22A01EE901AF8EE611A40EE811AA2
:1040200071EE800A62EE200A4FE0494BD3F800C0DF
:104030001CF0200F1ED0DFF81CC11B6801EE901A87
:10404000C3F3C1011368F8EE612A2CFA01F101EE05
:10405000901AC3F30801F8EE611A81EEA22A01EE6C
:10406000901AF8EE611A40EE811A71EE800A62EE43
:10407000200A2AE001EE901A1168DFED372AF8EEE7
:10408000611AC1F3080182EEA12A01EE901AF8EE3E
:10409000611A40EE811A71EE800A62EE200A14E085
:1040A00001EE901A1168DFED2D2AF8EE611AC1F3C6
:1040B000080182EEA12A01EE901AF8EE611A40EE94
:1040C000811A71EE800A62EE200A1168C1F346215E
:1040D00001EE101AB8EE411A31EE001AC0EE811A44
:1040E000BCEEE11A00E022E080ED001A1168C1F395
:1040F000064101EE101AB8EE411A31EE001AC0EE78
:10410000811ABCEEE11A80ED011A1168C1F3066153
:1041100001EE101AB8EE411A31EE000A80EE801A54
:10412000BCEEC10A80ED020A5DF8044B7047002125
:104130000160416081605DF8044B7047284402587B
:104140004444025800000039404402580024744A94
:10415000004402580090D0030024744C20BCBE4B95
:10416000F0B5DFF8F0C3B0F5807FF94E0246FA48AB
:1041700089B0FA4DA6F10404F9494FEA2C131CD07A
:10418000B2F5007F75D0F74FB2F5806F6DD0B2F504
:10419000006F6BD0B2F5805F69D0B2F5002F67D0A9
:1041A000B2F5803F00F09681B2F5804F00F0AA8111
:1041B000B2F5004F00F0FB8146E0326802F00702E2
:1041C000052A41D2DFE802F0030F1B4D27000868E3
:1041D00010F0007004BF09B0F0BD03A8FFF73CFD6C
:1041E000049809B0F0BD086810F0006004BF09B081
:1041F000F0BD6846FFF708FE009809B0F0BD0868FA
:1042000010F0005004BF09B0F0BD06A8FFF7D2FEC1
:10421000069809B0F0BD22680C6802F0405214F014
:10422000040F00D09AB1D1F800C01CF4807F02D0F6
:10423000B2F1805F12D0096811F4003F04D0B2F1EE
:10424000005F04BF09B0F0BD002009B0F0BD0868F0
:1042500009B0C0F3C1002CFA00F0F0BD09B0184657
:10426000F0BD284609B0F0BD03E038E073E0B5E0EA
:10427000F8E0326802F4E072802A2BD007DC22B327
:10428000402AE1D1086810F00060B2D1EAE7C02A04
:10429000E7D0B2F5807FD7D122680C6802F0405297
:1042A00014F0040F01D0002AD1D0D1F800C01CF4C2
:1042B000807F02D0B2F1805FD0D0096811F4003F56
:1042C000C2D0B2F1005FCDD0BEE7086810F0007038
:1042D00083D1C7E7086810F0005096D1C2E73A686A
:1042E00002F46002B2F5800F2FD009DC3AB3B2F5C8
:1042F000001FA9D1086810F000607FF47AAFB1E721
:10430000B2F5C00FADD0B2F5000F9DD122680C6898
:1043100002F0405214F0040F01D0002A97D0D1F8D7
:1043200000C01CF4807F02D0B2F1805F96D0096893
:1043300011F4003F88D0B2F1005F93D084E70868A1
:1043400010F000707FF449AF8CE7086810F000505F
:104350007FF45BAF86E73A6802F0E062B2F1007F7B
:1043600036D00ADC72B3B2F1807F7FF46DAF08689B
:1043700010F000607FF43DAF74E7B2F1407F3FF48E
:1043800070AFB2F1806F7FF45FAF22680C6802F00B
:10439000405214F0040F02D0002A3FF458AFD1F875
:1043A00000C01CF4807F03D0B2F1805F3FF456AFB1
:1043B000096811F4003F3FF447AFB2F1005F3FF4EA
:1043C00051AF41E7086810F000707FF406AF49E78D
:1043D000086810F000507FF418AF43E7326802F429
:1043E000E042B2F5005F37D00ADC72B3B2F5805F0D
:1043F0007FF42AAF086810F000607FF4FAAE31E76E
:10440000B2F5405F3FF42DAFB2F5804F7FF41CAFA3
:1044100022680C6802F0405214F0040F02D0002A07
:104420003FF415AFD1F800C01CF4807F03D0B2F187
:10443000805F3FF413AF096811F4003F3FF404AF0D
:10444000B2F1005F3FF40EAFFEE6FFE7086810F040
:1044500000707FF4C2AE05E7086810F000507FF4EA
:10446000D4AEFFE63A6812F4403223D0B2F5803F72
:1044700026D0B2F5003F7FF4E7AE22680C6802F068
:10448000405214F0040F02D0002A3FF4E0AED1F8FD
:1044900000C01CF4807F03D0B2F1805F3FF4DEAE39
:1044A000096811F4003F3FF4CFAEB2F1005F3FF472
:1044B000D9AEC9E6086810F000607FF49AAED1E684
:1044C000086810F000503FF4CDAE06A8FFF772FD6B
:1044D0000898C7E6206810F480300DD0B0F5803F12
:1044E0007FF4B2AE086810F000603FF4BBAE6846DF
:1044F000FFF78AFC0298B5E6086810F000707FF4B8
:104500006CAEAFE63A6802F0E042B2F1405F42D0F2
:1045100011DC4AB3B2F1805F33D0B2F1005F7FF4B7
:1045200093AE086810F000503FF49CAE06A8FFF769
:1045300041FD079896E6B2F1804F32D0B2F1A04F1C
:104540007FF482AE096811F4003F7FF48BAE7BE606
:10455000504402580090D00340787D010080BB0099
:104560000044025858440258FFE700F089FE1E49F3
:1045700009681E4AC1F30211515C01F01F01C840D5
:1045800070E6086810F000603FF46CAE6846FFF714
:104590003BFC019866E6086810F004007FF457AE13
:1045A00060E6086810F480707FF458AE5AE632680E
:1045B00012F040520BD0B2F1805F0ED0B2F1005F2A
:1045C0007FF442AE086810F00060DFD14AE6096867
:1045D00011F4003F7FF446AE36E6086810F0007034
:1045E0007FF4FBAD3EE6000020440258C4BA000848
:1045F0002DE9F05F0025044600682E46FD4FDFF8E8
:10460000F88310F0006F1FD0606E58B1B0F5801FB6
:104610000DD0B0F5001F0FD0B0F5401F18BF012519
:104620001ED010E0386840F40030386018E00221F5
:10463000201D03F01DFA04E0022104F1240003F020
:10464000B9FA05000CD02E46208810F4807F24D0C3
:10465000606D05281FD2DFE800F00C11161C1C004D
:10466000606ED8F8001021F440110843C8F800002B
:10467000EAE7386840F4003038600AE00021201D85
:1046800003F0F6F904E0002104F1240003F092FAAB
:1046900005467DB100E001252E46208810F4007FFC
:1046A0002BD0A06D802820D00DDC90B1402815D0F3
:1046B000012521E0606DD8F8001021F007010843C2
:1046C000C8F80000E9E7C02818BFB0F5807FEFD137
:1046D00011E0386840F4003038600CE004F1040068
:1046E0004FF0000103F0C4F904E0002104F12400BC
:1046F00003F060FA054695B12E462088DFF8FC925B
:1047000010F4806F2FD0D4F8A400B0F5800F22D021
:104710000EDCA0B1B0F5001F16D0012522E0A06D7F
:10472000D8F8001021F4E0710843C8F80000E4E76D
:10473000B0F5C00F18BFB0F5000FEED111E038682A
:1047400040F4003038600CE004F104004FF0000148
:1047500003F08EF904E0002104F1240003F02AFAAA
:10476000054685B12E46208810F4006F30D0D4F86D
:10477000A800B0F1007F23D00FDCA8B1B0F1807F9A
:1047800017D0012523E0D4F8A400D9F8001021F4B3
:1047900060010843C9F80000E5E7B0F1407F18BFA9
:1047A000B0F1806FEDD111E0386840F4003038602E
:1047B0000CE004F104004FF0000103F059F904E0AB
:1047C000002104F1240003F0F5F905467DB12E46E1
:1047D000206810F0007F20D0A06CE0B1102810D02D
:1047E000202813D0302818BF012514D014E0D4F8A5
:1047F000A800D9F8001021F0E0610843C9F80000D2
:10480000E6E7386840F40030386004E00221201DFB
:1048100003F02EF905467DB12E46208810F4805F06
:104820002DD0E06DB0F5005F21D00DDC98B1B0F572
:10483000805F15D0012521E07148A16C026822F04B
:10484000300211430160E8E7B0F5405F18BFB0F5F2
:10485000804FEFD111E0386840F4003038600CE050
:1048600004F104004FF0000103F002F904E000211C
:1048700004F1240003F09EF9054695B12E462088E8
:1048800010F4005F2CD0206EB0F5403F26D011DC34
:1048900020B3B0F5803F14D0B0F5003F18D001250B
:1048A0001DE0E16DD8F8000020F4E0400843C8F8AE
:1048B0000000E4E7B0F5802F18BFB0F5A02FEED1CF
:1048C0000CE004F104004FF0010103F0D1F804E022
:1048D000012104F1240003F06DF905469DB12E4637
:1048E000208810F4804F2DD0D4F8AC00B0F1405F98
:1048F00026D011DC20B3B0F1805F14D0B0F1005F9E
:1049000018D001251DE0206ED8F8001021F4E02118
:104910000843C8F80000E3E7B0F1804F18BFB0F1DA
:10492000A04FEED10CE004F104004FF0010103F0C0
:104930009FF804E0012104F1240003F03BF905464F
:104940007DB12E46208810F4004F20D0E06EE0B1FB
:10495000B0F1805F0FD0B0F1005F18BF01250FD01C
:1049600014E0D4F8AC10D9F8000020F0E04008437F
:10497000C9F80000E6E7386840F40030386004E029
:104980000121201D03F074F805467DB12E462068F4
:1049900010F0807F1FD0606CD8B101280FD00228A2
:1049A00012D0032818BF012513D013E0E06ED8F809
:1049B000001021F040510843C8F80000E7E73868CC
:1049C00040F40030386004E00221201D03F050F86C
:1049D000054605B32E46206810F4800F32D0DFF86C
:1049E00024A0DAF8000040F48070CAF80000FEF756
:1049F0007BFF09E02C4402585044025858440258A6
:104A00004C440258004802588346DAF8000010F47B
:104A1000807F08D014E0F748616C026822F003023E
:104A200011430160D7E7FEF75FFFA0EB0B0064289E
:104A300001D9032505E0DAF8000010F4807FF2D0F8
:104A40008DB12E462078DFF8B0A310F0010F71D0A1
:104A5000A06F18286CD059DCA8B308285BD01028A8
:104A600060D0012565E0E548B4F8B020016802F4A3
:104A7000407001F4407181420CD0E0480168026846
:104A800021F4407142F480320260026822F48032E4
:104A900002600160D4F8B000B0F5807F19D1FEF754
:104AA00023FF8246D548016811F0020F08BF41F28A
:104AB000883B0ED1FEF718FFA0EB0A00584503D93A
:104AC00003252E46BEE733E0CC48006810F0020F05
:104AD000F0D0D4F8B0104FF440708843C8481CBFE1
:104AE000016821F47C5109D00160C448B4F8B020B9
:104AF0000168C2F30B0211430160A3E7C14A0368D6
:104B000002EA111123F47C521143EDE7202818BF6B
:104B10002828A6D10CE004F104004FF0010102F0B6
:104B2000A7FF04E0012104F1240003F043F8054647
:104B300065B12E46207810F0020F1FD0606F062856
:104B40001AD2DFE800F0170C11171717A06FDAF868
:104B5000001021F038010843CAF80000EAE70121FB
:104B6000201D02F085FF04E0012104F1240003F080
:104B700021F805467DB100E001252E46207810F091
:104B8000040F20D0D4F8900006281AD2DFE800F0F5
:104B9000170C11171717606FDAF8001021F00701D2
:104BA0000843CAF80000E9E70121201D02F060FF78
:104BB00004E0012104F1240002F0FCFF0546ADB140
:104BC00000E001252E46207810F0200F2ED0D4F8DA
:104BD0008C00B0F1405F27D012DC28B3B0F1805FC9
:104BE00015D0B0F1005F19D001251EE0D4F8900077
:104BF000D9F8001021F007010843C9F80000E2E7E6
:104C0000B0F1804F18BFB0F1A04FEDD10CE004F12E
:104C100004004FF0000102F02BFF04E0022104F138
:104C2000240002F0C7FF05469DB12E46207810F003
:104C3000400F2ED0D4F89800B0F5406F27D012DC8A
:104C400028B3B0F5806F15D0B0F5006F19D00125ED
:104C50001EE0D4F88C00DAF8001021F0E04108439F
:104C6000CAF80000E2E7B0F5805F18BFB0F5A05FBA
:104C7000EDD10CE004F104004FF0000102F0F8FE69
:104C800004E0022104F1240002F094FF05469DB1E6
:104C90002E46207810F0800F2ED0D4F89C00B0F56E
:104CA000C04F27D012DC28B3B0F5005F15D0B0F5A7
:104CB000804F19D001251EE0D4F89810D9F80000D3
:104CC00020F4E0500843C9F80000E2E7B0F5004FD7
:104CD00018BFB0F5204FEDD10CE004F104004FF007
:104CE000000102F0C5FE04E0022104F1240002F0FC
:104CF00061FF054655B12E46207810F0080F20D0F0
:104D0000D4F88000B0F5805F0AD011E0D4F89C00A0
:104D1000D9F8001021F460410843C9F80000EBE71E
:104D2000022104F1240002F045FF002818BF0126EB
:104D3000D4F88000DAF8001021F440510843CAF892
:104D40000000207810F0100F15D0D4F89400B0F5C2
:104D5000807F07D1022104F1240002F02BFF0028FC
:104D600018BF0126D4F89400D9F8001021F440713E
:104D70000843C9F80000206810F4002F18D0D4F8B8
:104D8000A00040B1B0F5803F0AD0B0F5003F18BF99
:104D900001250BD00BE00021201D02F069FE04E08C
:104DA000022104F1240002F005FF054695B12E46CC
:104DB000206810F4802F2FD0D4F88400B0F5801F25
:104DC00012D0B0F5001F1FD0B0F5401F18BF01254D
:104DD00020D020E0D4F8A000D9F8001021F4403110
:104DE0000843C9F80000E3E7386840F40030386051
:104DF00010E000004C4402585444025870440258D9
:104E000010440258CFFFFF00012104F1240002F0FA
:104E1000D1FE054665B12E46206810F4803F1DD0B6
:104E2000E06C78B1B0F5803F18BF01250FD014E0D9
:104E3000D4F88400DAF8001021F440110843CAF8CD
:104E40000000E9E7386840F40030386004E00221EF
:104E5000201D02F00DFE0546EDB12E46206810F033
:104E6000005F07D0022104F1240002F0A3FE002815
:104E700018BF0126206810F4003F1BD0E06FB8B1C6
:104E8000B0F5807F10D0B0F5007F1CBFB0F5407F3B
:104E900001250DD00DE03848E16C026822F4803223
:104EA00042EA01010160D9E7386840F40030386017
:104EB000F5B32E46206810F4801F08D0206FD8F874
:104EC000001021F0004141EA0000C8F8000020680D
:104ED00010F0805F08D02948D4F8B410026822F49A
:104EE000804242EA01010160206810F4001F08D0EE
:104EF000A06ED8F8001021F0807141EA0000C8F8D7
:104F00000000206810F0804F0AD01C48016821F48E
:104F1000004101600168D4F8B82041EA0201016053
:104F2000206810F0004F09D01348216D026800E09E
:104F300018E022F0405242EA01010160206810F4BA
:104F4000000F09D0D4F88800DAF8001021F44001ED
:104F500041EA0000CAF80000002E0CBF002001202A
:104F6000BDE8F09FE06FDAF8001021F440710843CB
:104F7000CAF800009EE700004C4402581044025852
:104F8000002804BF012070472DE9F05FDFF85C9234
:104F900004468A46D9F8000000F00F0050450DD2B3
:104FA000D9F8000020F00F0040EA0A00C9F800001C
:104FB000D9F8000000F00F0050457DD120788C4DCD
:104FC00010F0040F0AD02069296801F070018842AE
:104FD00004D9296821F07001084328602078854EA3
:104FE00010F0080F0AD06069316801F07001884242
:104FF00004D9316821F0700108433060207810F046
:10500000100F0AD0A069316801F4E061884204D928
:10501000316821F4E06108433060207810F0200FFF
:105020000BD07548E169026802F07002914204D920
:10503000026822F0700211430160207810F0020F24
:105040000AD0E068296801F00F01884204D9296874
:1050500021F00F0108432860207810F0010F45D09F
:105060006648A1682A6822F4706211432960616869
:10507000022926D0032929D0006801292BD010F05D
:10508000040F56D05E4F386820F0070008433860A0
:10509000FEF72AFC39688046606801F03801B1EB00
:1050A000C00F18BF41F2883B20D000BFFEF71CFCA8
:1050B000A0EB0800584500E03BE010D90320BDE814
:1050C000F09F006810F4003FDCD132E0006810F07F
:1050D000007FD7D12DE010F4807FD3D129E0606824
:1050E000396801F03801B1EBC00FDFD1207810F042
:1050F000020F0AD0E068296801F00F01814204D94B
:10510000296821F00F0108432860D9F8000000F059
:105110000F00504510D9D9F8000020F00F0040EAE8
:105120000A00C9F80000D9F8000000F00F0050454F
:1051300002D00120BDE8F09F207810F0040F0AD0C3
:105140002069296801F07001814204D9296821F0A1
:10515000700108432860207810F0080F0AD06069B9
:10516000316801F07001814204D9316821F0700189
:1051700008433060207810F0100F0AD0A069316821
:1051800001F4E061814204D9316821F4E06108430F
:105190003060207810F0200F0BD01748E1690268CA
:1051A00002F070028A4204D9026822F070021143B0
:1051B000016000F0E5F813492B682A68C3F3032364
:1051C00002F00F02CB5C895C03F01F0201F01F01AB
:1051D000D0400D4A20FA01F111600C4908600C48DA
:1051E0000068BDE8F05FFEF7F9BB00000020005248
:1051F000184402581C4402582044025800440258E3
:1052000010440258C4BA0008480000244400002496
:105210003C000024DFF85CC03F2230B40260164A34
:10522000DCF800C0131D0CF0070CC0F804C0DFF858
:105230004CC01C1D156805F470658560156805F087
:105240000F05C560126802F0700202611A6802F070
:10525000700242611A6802F4E0628261226802F020
:105260007002C261DCF8000000F00F00086030BC82
:1052700070470000104402581844025800200052A1
:1052800010B500F07DF80C4A0C490D4B1468D2F8AB
:1052900000C0C4F303220CF00F0C8A5C11F80CC0A0
:1052A00002F01F01074A20FA01F10CF01F0021FA59
:1052B00000F01860116010BD18440258C4BA00080C
:1052C000480000244400002410B500F059F8104AAA
:1052D0001049114B1468D2F800C0C4F303220CF03B
:1052E0000F0C8A5C11F80CC002F01F02D0400CF0C9
:1052F0001F0220FA02F21A60084B18600848006882
:10530000C0F30210085C00F01F0022FA00F010BD8C
:1053100018440258C4BA000848000024440000247D
:105320001C44025810B500F02BF8104A1049114BDC
:105330001468D2F800C0C4F303220CF00F0C8A5C8E
:1053400011F80CC002F01F02D0400CF01F0220FA2E
:1053500002F21A60084B186008480068C0F3022087
:10536000085C00F01F0022FA00F010BD184402583B
:10537000C4BA000848000024440000241C44025819
:105380005E4930B45E4809685E4B11F038020CD0BB
:105390000111082A06D0102A02BF5B4830BC7047B2
:1053A000182A0ED030BC08467047196811F0200F3B
:1053B00004BF30BC7047196830BCC1F3C101C8409C
:1053C00070475249524C01F1040C0A680968DCF834
:1053D0000050246802F0030C05F00102C1F305112E
:1053E000C4F3CC04002914FB02F200EE102AF8EEFC
:1053F000400A02BF002030BC7047BCF1000F9FED97
:10540000451A454AB7EE000A1BD0DFED441ABCF13D
:10541000010F02D0BCF1020F4AD002EE101A106840
:10542000F8EE422AC0F3080081EEA22A01EE900AAB
:10543000F8EE611A40EE811A31EE800A22EE000A7F
:105440004BE0D3F800C01CF0200F1BD01B6801EE0E
:10545000901A1168C3F3C103F8EE612AD84001EE37
:10546000900AC1F30800F8EE611A81EEA22A01EE5B
:10547000900AF8EE611A40EE811A31EE800A22EEAF
:10548000000A2AE001EE901A1068DFED252AF8EEF6
:10549000611AC0F3080082EEA12A01EE900AF8EE2C
:1054A000611A40EE811A31EE800A22EE000A14E001
:1054B00001EE901A1068DFED1B2AF8EE611AC0F3B6
:1054C000080082EEA12A01EE900AF8EE611A40EE81
:1054D000811A31EE800A22EE000A106830BCC0F357
:1054E0004620401C00EE900AF8EE600A80EE201A7A
:1054F000BCEEC10A10EE100A7047000010440258BA
:105500000090D0030044025840787D01284402589E
:105510003444025800000039304402580024744AD0
:105520000024744C20BCBE4B002804BF01207047EF
:105530002DE9F05F04460078DFF8D883F64F10F0CD
:10554000010FF64D58D0D8F80000396800F0380047
:10555000102819D0182804BF01F00300022813D026
:105560006068B0F5803F04BF286840F4803014D0F4
:1055700010B1B0F5A02F1BD0286820F4803028602F
:10558000286820F4802008E0286810F4003F33D019
:105590006068002800F0AB822EE028606068D0B11F
:1055A000FEF7A2F90646286810F4003F08D023E071
:1055B000286840F480202860286840F48030ECE7B8
:1055C000FEF792F9801B642800F2E381286810F44A
:1055D000003FF5D010E0FEF787F90646286810F482
:1055E000003F09D0FEF780F9801B642800F2D181CA
:1055F000286810F4003FF5D1207841F2030BC84E23
:1056000010F0020F67D0D8F8000010F038013868A9
:1056100014D0182908BF10F0030F0FD0E068E8B3CA
:10562000296821F0190141EA00002860FEF75CF9C1
:105630008146286810F0040F1CD026E0286810F07E
:10564000040F03D0E068002800F05182FEF746F90D
:10565000584508D8206940281ED0316821F47C3193
:1056600041EA00301FE0207C316821F0FE4141EA30
:10567000006018E0FEF738F9A0EB0900022800F2FC
:105680008881286810F0040FF4D0FEF727F95845F8
:10569000E9D820694028E0D1306800E005E020F436
:1056A0007C3040F40030306015E0286820F00100C4
:1056B0002860FEF719F98146286810F0040F0AD017
:1056C000FEF712F9A0EB0900022800F262812868B7
:1056D00010F0040FF4D1207810F0100F69D0D8F832
:1056E0000000DFF840A2396800F03800082814D024
:1056F000182804BF01F0030001280ED0E06900283B
:10570000286843D040F080002860FEF7EDF881461D
:10571000286810F4807F27D030E0286810F4807F5C
:105720001CBFE069802840F0E281FEF7D7F85845B9
:105730000FD8206A202805D1306820F0F84040F0CA
:10574000804004E0316821F0F84141EA8060306037
:105750002FE094F82000DAF8001021F07C5141EAA3
:105760000060CAF8000024E0FEF7BEF8A0EB0900D4
:1057700002287DD8286810F4807FF5D0FEF7AEF8B7
:105780005845E6D8206A2028DCD1D5E720F08000F3
:105790002860FEF7A9F80646286810F4807F08D034
:1057A000FEF7A2F8801B022862D8286810F4807FD8
:1057B000F6D1207810F0080F2ED05B4E60690028DB
:1057C000306814D040F001003060FEF78DF881465B
:1057D000306810F0020F1FD1FEF786F8A0EB090029
:1057E000022845D8306810F0020FF5D014E020F000
:1057F00001003060FEF778F88146306810F0020F43
:105800000AD000BFFEF770F8A0EB090002282FD8DD
:10581000306810F0020FF5D1207810F0200F2CD056
:10582000A0690028286813D040F480502860FEF753
:105830005BF80646286810F4005F1ED1FEF754F8A6
:10584000801B022814D8286810F4005FF6D014E0FA
:1058500020F480502860FEF747F80646286810F4C8
:10586000005F0AD0FEF740F8801B022800D800E055
:105870008FE0286810F4005FF4D1207810F0040F56
:105880006AD02A4E306840F480703060FEF72CF801
:105890008146306810F4807F0AD100BFFEF724F8FB
:1058A000A0EB0900642874D8306810F4807FF5D02C
:1058B000A0681F4E012804BF306840F0010009D0E5
:1058C00008B1052813D0306820F00100306030683E
:1058D00020F004003060A06841F2883A50B3FEF72F
:1058E00003F88146306810F0020F08D034E03068C9
:1058F00040F004003060306840F00100EAE7FDF756
:10590000F3FFA0EB0900504543D8306810F0020FB8
:10591000F5D021E0104402582844025800440258AF
:10592000044402580C440258744402580048025877
:1059300070440258FFE7FDF7D7FF8146306810F04A
:10594000020F09D0FDF7D0FFA0EB0900504520D889
:10595000306810F0020FF5D1606AE8B3DFF89C916F
:10596000D8F8001001F0380118297DD002282868E5
:1059700020F0807028600FD0FDF7B6FF044628683D
:1059800010F0007F28D000BFFDF7AEFF001B0228FB
:105990006BD90320BDE8F09FFDF7A6FF06462868F7
:1059A00010F0007F09D000BFFDF79EFF801B02288A
:1059B000EFD8286810F0007FF6D1E06A3A68A16A53
:1059C00022F0F30222F4407242EA001008433860E9
:1059D0004FF4FE00010200E08CE094F8342094F8CB
:1059E0003C30278E5602B4F838C05A1E7F1EA6F5EA
:1059F0000076ACF1010C06F47E46C7F3080333438E
:105A000000EA0C4001EA026143EA00023C4811430B
:105A10003C4AC9F80010016821F0010101601168D9
:105A2000A36C6FF3CF0141EAC30111600268216CDE
:105A300022F00C02114301600168626C21F0020146
:105A400011430160016841F480310160016841F453
:105A500000310160016841F480210160016841F07A
:105A600001010160286801E01AE013E040F0807055
:105A70002860FDF739FF0446286810F0007F39D10F
:105A8000FDF732FF001B022883D8286810F0007F42
:105A9000F6D02FE0286810F0007F7FF475AF29E082
:105AA00039680128D9F8000021D0A26A01F0030367
:105AB00093421CD1E26AC1F305118A4217D1226BCD
:105AC000C0F30801521E914211D1616BC0F346220E
:105AD000491E91420BD1A16BC0F30642491E91426F
