:020000040800F2
:1000000080700124A504000857780008997300083F
:1000100055780008B71F00082D8800080000000070
:10002000000000000000000000000000E5030008E0
:10003000E12200080000000041040008457D00089E
:10004000BF040008BF040008BF040008BF04000884
:10005000BF040008BF040008BF040008BF04000874
:10006000BF040008BF040008BF040008B91F00084F
:10007000C51F0008BF040008BF040008BF04000833
:10008000BF040008BF040008BF040008BF04000844
:10009000BF040008BF040008BF040008BF04000834
:1000A000BF040008BF040008BF040008BF04000824
:1000B000397F0008457F0008517F0008BF04000811
:1000C000BF040008BF040008BF040008BF04000804
:1000D000BF04000851870008BF040008BF040008DF
:1000E000BF040008BF04000800000000BF040008AF
:1000F000BF040008BF040008BF040008BF040008D4
:10010000BF040008BF040008BF040008BF040008C3
:10011000BF040008BF0400085D7F0008BF0400089A
:10012000BF040008BF040008BF040008BF040008A3
:10013000BF040008BF040008BF040008BF04000893
:1001400000000000000000000000000000000000AF
:10015000BF040008BF040008BF040008BF04000873
:10016000BF040008BF040008BF040008BF04000863
:10017000BF040008BF040008BF040008000000001E
:10018000BF040008BF040008BF040008BF04000843
:10019000BF040008BF040008BF040008BF04000833
:1001A000BF040008BF040008BF040008BF04000823
:1001B000BF040008BF040008BF040008BF04000813
:1001C000BF040008BF040008BF040008BF04000803
:1001D000BF040008BF040008BF040008BF040008F3
:1001E000BF040008BF040008BF040008BF040008E3
:1001F000BF040008BF040008BF040008BF040008D3
:10020000BF040008BF040008BF040008BF040008C2
:10021000BF040008BF040008BF040008BF040008B2
:10022000BF040008BF040008BF040008000000006D
:10023000BF040008BF04000800000000BF0400085D
:10024000BF040008BF040008BF040008BF04000882
:10025000BF040008BF040008BF040008BF04000872
:10026000BF040008BF040008BF040008BF04000862
:10027000BF040008BF040008BF040008000000001D
:10028000BF040008BF040008BF040008000000000D
:1002900000000000BF04000800F002F800F092F82F
:1002A0000AA090E8000C82448344AAF10107DA45D1
:1002B00001D100F087F8AFF2090EBAE80F0013F091
:1002C000010F18BFFB1A43F001031847F4B50000F3
:1002D00014B60000103A24BF78C878C1FAD8520783
:1002E00024BF30C830C144BF04680C6070470000B0
:1002F0000023002400250026103A28BF78C1FBD82F
:10030000520728BF30C148BF0B6070476E2900F00C
:10031000C582702900F00F8466290BF0D48065290E
:100320000BF0D18067290BF0CE8061290BF0CD80D6
:1003300003681B0A28BF41F08001692900F072821E
:10034000642900F06F82752900F06C826F2900F03B
:100350009C83782900F0DB83E92900F03783E429C6
:1003600000F03483F52900F03183EF2900F0998300
:10037000F82900F0DA830368DB0928BF41F0800127
:10038000632901F0E180732901F0E680E32901F09F
:10039000F180F32901F0F680002070471FB50BF0C3
:1003A0008DF801F045F90400002000210BF068F8F9
:1003B000401C6060002000210BF04CF8E0601FBD85
:1003C00010B510BD01F006F91146FFF7E7FF09F07F
:1003D0002FF801F0E3F903B4FFF7F2FF03BC01F0DB
:1003E0001BFA00002C4B19680868B0E8F04F80F346
:1003F0000988BFF36F8F4FF0000080F311887047BA
:100400000000000008480068006880F308884FF08A
:10041000000080F3148862B661B6BFF34F8FBFF35C
:100420006F8F00DF00BF00BF08ED00E0DFF80C00B9
:10043000016841F470010160704700BF88ED00E081
:10044000EFF30980BFF36F8F134B1A681EF0100F84
:1004500008BF20ED108A20E9F04F106009B44FF07A
:10046000500080F31188BFF34F8FBFF36F8F09F0F7
:10047000E3FF4FF0000080F3118809BC1968086899
:10048000B0E8F04F1EF0100F08BFB0EC108A80F3F8
:100490000988BFF36F8F704740000024EFF3058099
:1004A000704700000948804709480047FEE7FEE71B
:1004B000FEE7FEE7FEE7FEE7FEE7FEE7FEE7FEE714
:1004C00004480549054A064B704700002D7E000888
:1004D000990200088030012480700124805001249A
:1004E0008050012453EA020C00F069802DE9F04BA2
:1004F0004FF00006002B1FBFB3FA83F503FA05F493
:1005000024FA05F65E4012BF1643B2FA82F502FAEB
:1005100005F4C5F120051EBF22FA05FC44EA0C04CF
:10052000203556EA044C4FEA144418BF641C4FF0BF
:1005300000084FF00009904271EB030C39D30029F9
:1005400019BFB1FA81F701FA07F6B0FA80F700FA9D
:1005500007F6C7F120071EBF20FA07FC46EA0C0683
:100560002037B6FBF4FCA7EB0507103F07F01F0B85
:10057000CBF120060CFA0BFB2CFA06F644BFB3466F
:100580000026202FA4BF5E464FF0000B5BEA060C4E
:1005900008BF4FF0010B19EB0B09ABFB027C48EBDA
:1005A0000608C01B06FB02CC0BFB03CC71EB0C0155
:1005B000C1E70B46024641464846BDE8F08B13B5FD
:1005C0004FF000004FF00001AFF30080BDE81C4089
:1005D000704700007CB51D4616460C00009001D007
:1005E0002044401E074B7B442A4669460190304612
:1005F00000F06DF905461CB10020694600F07AF95B
:1006000028467CBD15030000032A40F2308010F01C
:10061000030C00F0158011F8013BBCF1020F62449D
:1006200098BF11F801CB00F8013B38BF11F8013B2E
:10063000A2F1040298BF00F801CB38BF00F8013BDB
:1006400011F0030300F02580083AC0F0088051F84B
:10065000043B083A51F804CBA0E80810F5E7121D56
:100660005CBF51F8043B40F8043BAFF30080D20775
:1006700024BF11F8013B11F801CB48BF11F8012B41
:1006800024BF00F8013B00F801CB48BF00F8012B64
:10069000704710B5203AC0F00B80B1E81850203AEE
:1006A000A0E81850B1E81850A0E81850BFF4F5AF12
:1006B0005FEA027C24BFB1E81850A0E8185044BF9C
:1006C00018C918C0BDE810405FEA827C24BF51F809
:1006D000043B40F8043B08BF7047D20728BF31F8FD
:1006E000023B48BF11F8012B28BF20F8023B48BF4E
:1006F00000F8012B70474FF0000200B513469446F6
:100700009646203922BFA0E80C50A0E80C50B1F169
:100710002001BFF4F7AF090728BFA0E80C5048BF7D
:100720000CC05DF804EB890028BF40F8042B08BF1B
:10073000704748BF20F8022B11F0804F18BF00F817
:10074000012B704770477047704710B500F0C2FA30
:10075000006810BD10B5044600F0BCFA046010BD7E
:1007600070B5044685690068C10601D5302600E0F1
:100770002026C00707D070BDD4E90121304690473C
:10078000206A401C20626D1EF6D570BD70B504460F
:1007900085690078C00707D170BDD4E90121202008
:1007A0009047206A401C20626D1EF6D570BD096816
:1007B0004A0501D540B27047C905FCD500B2704763
:1007C00009684A0501D5C0B27047C905FCD580B299
:1007D000704770B50C460546012A05D0287880067A
:1007E00000D5EA69002302E0012305E05B1C934287
:1007F00002D2E05C0028F9D1A869E618C01AA86105
:10080000286A184428622846FFF7AAFF04E0D5E9C1
:10081000012114F8010B9047B442F8D32846FFF7A2
:10082000B5FF70BD2DE9F04106460024106875291A
:10083000314616A510D0FFF7BAFF002802DA404271
:1008400013A507E031688A0701D512A502E0490720
:1008500004D511A5012401E0FFF7B2FF00210A220F
:1008600006F1240709E0B0FBF2FCB0FBF2F302FB57
:100870001C00303078541846491C0028F3D1234618
:100880002A463046BDE8F04100F06DBA0000000095
:100890002D0000002B0000002000000011680268FD
:1008A000006A530501D508700AE0D30501D5088018
:1008B00006E0130603D5C217C1E9000200E0086094
:1008C0000120704701694A1C02610878704700B531
:1008D0008FB0CDE901310021059105497944CDE979
:1008E00003101146684600F031F90FB000BD00005A
:1008F000E5FFFFFF0A6802F8010B0A607047D1E9C3
:1009000000239A4202D2531C0B6010707047000003
:100910002DE9FF5F15468A460446DFF8AC80F844AF
:100920000027D8E900103E46CDE9001010E03AF863
:1009300016106A4602A800F029FE411C07D0217853
:10094000890603D5E269391891420DD80744761C0F
:100950002078800602D5E069B84205DDAE42E6DBCC
:100960003AF816000028E2D1A069C01BA061204619
:10097000FFF7F6FED8E90010CDE90010002017E0DF
:100980003AF818106A4602A800F000FEB0F1FF3FE6
:1009900081460BD000250DF1080B05E0D4E90121BB
:1009A0001BF8050090476D1C4D45F7D308F1010079
:1009B000B0428046E4DB206A384420622046FFF7DC
:1009C000E5FEBDE8FF9F0000F6AD00002DE9F04117
:1009D0008046D21D22F007020025D2E90002F52947
:1009E00015A614D0011E72F1000106DA0023D0EB27
:1009F000030063EB020211A608E0D8F800108B0791
:100A000001D50FA602E0490701D50EA60125114622
:100A1000002408F1240704E000F060F930323A5570
:100A2000641C50EA0102F7D12B463246214640466B
:100A3000BDE8F04100F097B9000000002D00000073
:100A40002B0000002000000030B4002100F124043D
:100A500008E002F00705D208303542EA4372DB08AD
:100A60006554491C52EA0305F3D10468002310A21F
:100A7000250707D5A40600D421B1C46901230DA21E
:100A8000641EC46130BC00F06EB910B50446214646
:100A90001068FFF795FE02462046BDE8104000238F
:100AA000D2E7D21D22F00701D1E90023CCE70000F4
:100AB0000000000030000000F0B40D460188090578
:100AC00002D5214C7C4402E01F4C7C440E340021B2
:100AD00000F1240608E002F00F071209E75D42EA80
:100AE00003721B097754491C52EA0307F3D10278B9
:100AF0000023120704D5702D06D009B1022311344A
:100B00002246F0BC00F02FB901231034F8E770B58D
:100B100004460D4621461068FFF752FE024629465C
:100B20002046BDE870400023C6E7D21D22F007032F
:100B3000D3E90023C0E70368126843F02003036091
:100B40000823C3610023B7E758AC00002DE9F05F2C
:100B5000894604464FF0000ADFF874B1FB44C0F840
:100B600020A02046E1688847002874D0252806D0B8
:100B7000D4E901219047206A401C2062F1E7002659
:100B80005F462046E16888472028054607DB312D6F
:100B900005D2781910F8200C08B10643F1E7B00728
:100BA00001D526F00406C4F81CA00027C4F818A03C
:100BB0002A2D09D0284608F027FC38B304EB870813
:100BC000303DC8F8185019E059F8041B204604EBD2
:100BD00087029161E1688847012F054618D1E069D5
:100BE000002820DA26F020061DE0D8F8180000EBD7
:100BF000800005EB40003038C8F818002046E16856
:100C00008847054608F000FC0028EED1012F0AD0E5
:100C10002E2D08D12046E16888477F1C0546022F0B
:100C200046F02006C4DBA069002803DA404246F003
:100C30000106A061F00701D026F010066C2D0BD044
:100C4000682D09D04C2D39D06A2D35D0742D35D072
:100C50007A2D33D016E038E0E1682F4620468847E9
:100C6000B842054609D16C2F26D04FF48060E16868
:100C7000064320468847054604E06C2F1AD04FF4FF
:100C8000807006430DB3A5F14100192802D8203524
:100C900046F400664A462946204626604E46FFF73F
:100CA00035FB80B101280BD0F61D26F0070000F1BE
:100CB000080956E74020E4E78020D8E70020D6E77F
:100CC00006F104094DE7284652E7206ABDE8F09F87
:100CD000E8AB0000004870471C30012430B5B0F18B
:100CE0000A024FEA900E71F100034EEA817EB0EBEA
:100CF0000E0061EB91014FEA101E4EEA017E10EBEF
:100D00000E0041EB11114FEA102E4EEA016E10EB6E
:100D10000E0041EB11214FEA104E4EEA014E10EB4E
:100D20000E0041EB1141401841F100014FEAD000A3
:100D300040EA41704FEAD10110EB80054FEA81048F
:100D400044EA907444EB01046D1944EB0404521B13
:100D5000A3414FF0000348BF0A3200D530BD401C0C
:100D600041F1000130BD2DE9F0470D46994692460C
:100D7000044600F124080168880604D5E06921F0E2
:100D80001001216000E00120A84201DD471B00E0C6
:100D90000027A1697A1902EB0900081AA0612078DE
:100DA000C00602D42046FFF7DBFC002608E0D4E9A9
:100DB00001211AF806009047206A401C761C206228
:100DC0004E45F4DB2078C0060AD52046FFF7C8FC64
:100DD00006E0D4E9012130209047206A401C2062BF
:100DE000381EA7F10107F4DC07E0D4E9012118F867
:100DF00005009047206A401C2062281EA5F10105CD
:100E0000F3DC2046FFF7C2FC2078000602D5022062
:100E1000BDE8F0870120FBE770472DE9FF4F0C4646
:100E20001E464FF0FF378BB0D2E90001DDF860803D
:100E30000A908A46C1F30A5505B93D460021084685
:100E40004FF00000BAF1000F00F4400005DA00EBAB
:100E500080004FF4400101EA50004FEA9059B9F187
:100E6000010F00DDB9460A9850EA4A000ED044F658
:100E70001050A5F2FF3545432F14B8F1000F1ED0D6
:100E80007542291E1EDDC9F100021CE0B8F1010FF8
:100E90004FF0000001D0302103E0F24305E021547F
:100EA000401CB042FBDB30460022002121540B994C
:100EB000C1F80880C1E900200FB0BDE8F08FBD1B6C
:100EC0006D1CDEE74A4600DA694206A800F0F4FB32
:100ED00006AB93E8070003AB83E8070050460A9986
:100EE00000F0A1FC8DE80700A0F500501F3800902D
:100EF0000398002D0ADD42F21F014A4608440023F0
:100F000003A90390684600F00AFF09E0A0F500502D
:100F10004A461F38002303A90390684600F014FFD7
:100F20008DE807000004000C03D04FF0FF304108AB
:100F300000E01046B8F1000F03D0002200921546E1
:100F40001EE0751E05D4FFF7C9FE303262556D1ED6
:100F5000F9D5B3460122084302D000227F1C04E0E9
:100F60002078302801D100227F1E002A099784D0E2
:100F70001DE0112D07DAFFF7B1FE303262556D1C0E
:100F800050EA0102F5D1084302D00098C8B10EE042
:100F90000021681E05E0235C625C63542254401EFD
:100FA000491C8142F7DBAB46A81B401E099000207C
:100FB00004F80B000B98099AC0F80880C0E9002BD0
:100FC0007AE711264FF0000857E72DE9F04F8846E1
:100FD0000446D21D22F0070191B0D1E90001CDE90C
:100FE0000A0107F00DFD02460B98C00F01D02D201D
:100FF00007E02068810701D52B2002E0202101EACB
:10100000C000032A099001D0072A05DB03464146A8
:10101000204600F011FB0BE12078800601D5E06945
:1010200000E00620B8F1650F814606D0B8F1660FE2
:1010300018D0B8F1670F70D131E00020B9F1110F6D
:10104000009001DB112301E009F101030AAA01A9C3
:101050000CA8FFF7E2FEDDE90C70002609F101059E
:10106000834647E001204B4600904FF000470AAA14
:1010700001A90CA8FFF7D1FEDDE90DB00C995D4682
:10108000002610B909F101000D18B9EB050003D4D1
:10109000C0F1FF3609F10105A5EB09002BE0B9F11C
:1010A000010F01DA4FF001090020B9F1110F009092
:1010B000484601DD112300E003460AAA01A90CA855
:1010C000FFF7ABFEDDE90C704D4600268346207825
:1010D00000070AD4AB4500DA5D4601A8012D04DD06
:1010E000411911F8011C302907D04F4502DA17F1D8
:1010F000040F04DA012082460FE06D1EEEE7002F98
:1011000002DCED1B3E4403E0781CA84200DD7D1CA0
:10111000B81B00F1010A4FF000472078000703D404
:10112000AA4501DB4FF0FF3A0021B7F1004F0DF166
:1011300043088DF8431024D002202B23002F01DA1E
:101140007F422D230A21021EA0F1010000DC5FB1C5
:1011500097FBF1FC97FBF1F201FB1C7C17460CF1AD
:10116000300C08F801CDEEE7A8F1010003702188EA
:10117000090501D5452100E06521A0F1010800F82D
:10118000011C09980FA9A1EB0807FF1D00B1012060
:10119000411901EBEA70A1693844081A401EA061A8
:1011A0002078C00602D42046FFF7DAFA099828B161
:1011B000D4E901219047206A401C20622078C006B3
:1011C00022D52046FFF7CCFA1EE0002E04DBB34503
:1011D00002DD01A8805D00E03020D4E901219047C4
:1011E000206A401C2062761CAAF101005FEA000A16
:1011F0000AD100F01DFAC0680168405CD4E9012101
:101200009047206A401C2062281EA5F10105DCDC05
:1012100007E0D4E9012118F8010B9047206A401C2F
:101220002062381EA7F10107F3DC2046FFF7AEFA73
:10123000032011B041E600002DE9F04F04460D46B1
:10124000D21D22F0070089B0D0E900974846394600
:1012500007F0D6FB0246F80F01D02D2307E02068E7
:10126000810701D52B2302E0202101EAC0038DF87C
:1012700020300BB1012000E00020032A824601D07B
:10128000072A04DB2946204600F0D6F93FE1207802
:10129000800601D40D2500E0E569C7F30A560D2D3F
:1012A00049DA00214FEA175B08464FF00000002F93
:1012B00000F4400007DA00EB80004FF4400100EB3F
:1012C000D07001EA60008115012901DD4FF0FF3186
:1012D00000224FEA850CBCF1180F06D31346ACF17F
:1012E00018004FF08052C24003E04FF4801323FAFD
:1012F0000CF30CF10C0CBCF1200F04D3ACF1200C5E
:1013000009FA0CF001E007FA0CF000294FF0004850
:1013100001DD18B90FE00ED140450CD319EB0209DD
:101320005F4121B9404502D19F4329EA0209BBEB45
:10133000175F00D0761C2088000502D57B487844D2
:1013400002E07A487844193808AA302302F80A30B3
:10135000037C0AF10101002E0AF1020A53546A4685
:1013600002DC4FF0300101E04FF031014FF0010895
:101370008DF8001002D0A6F2FF3603E059EA4701CB
:1013800000D06B4E002D02DC2178090704D54FF008
:1013900002082E218DF80110C44600210BE0C7F38E
:1013A00003433F01C35C491C6D1E02F80830052948
:1013B00008F1010801DA002DF1DC00210CE000EB5E
:1013C0001973491C1B786D1E082902F808304FEA72
:1013D000091908F1010801DA002DF0DC21688B06FB
:1013E00002D516E0A8F10108E04505DD02EB08038F
:1013F00013F8013C302BF5D0B8F1000F09DD02EBFA
:10140000080313F8013C2E2B03D1090701D4A8F1DE
:101410000108002D05DD3E2102F808106D1E08F1BF
:101420000108407C002E02F8080008F1010804DAE7
:101430002D20764202F8080002E02B2002F8080076
:101440000A214FF47A70864208F101080BDB96FB03
:10145000F0F3303302F8083096FBF0F308F101089E
:1014600000FB136601E0642E0CDB642096FBF0F3B6
:10147000303302F8083096FBF0F308F1010800FB66
:10148000136601E00A2E06DB96FBF1F0303002F81D
:10149000080008F1010896FBF1F001FB1060303004
:1014A00002F80800A16908F1010808EB050202EB47
:1014B0000A00081AA0612078C00602D42046FFF76F
:1014C0004FF9216A08AE01EB0A00206204E0D4E97A
:1014D000012116F8010B9047BAF1010AF7D22078E2
:1014E000C00602D52046FFF73BF96E4609E016F824
:1014F000010B3E280FD0D4E901219047206A401CFF
:101500002062B8F10108F2D22046FFF73FF909B096
:101510000320BDE8F08F206A2844206203E0D4E96C
:101520000121302090476D1EEBD3F8E739A400006D
:1015300002FCFFFF10B5436913B1AFF3008001E077
:10154000FFF747F9012010BD127800F124010A705D
:1015500000224A700122EDE711684FF0FF32E9E7FF
:1015600010B5436913B1AFF3008001E0FFF7D0F984
:10157000012010BD128800F1240182840022C2845F
:101580000122EDE711684FF0FF32E9E770B516462A
:101590000C46054600F044F8036893F80101012861
:1015A00006D0FF2C0FD8185D68B101202C7070BDDB
:1015B000D3F807013246214603F2071303442846B5
:1015C000BDE8704018474FF0FF3070BD00487047CD
:1015D0001C3001247546FFF7F9FFAE460500694649
:1015E000534620F00700854618B020B5FEF768FF87
:1015F000BDE820404FF000064FF000074FF0000814
:101600004FF0000B21F00701AC46ACE8C009ACE894
:10161000C009ACE8C009ACE8C0098D4670470000BD
:1016200010B500F005F8001D10BD00BF559E00006C
:10163000004870473C3001242DE9F0411F46044624
:1016400003260168072A01F4006004DB08B116A52F
:1016500005E016A503E008B115A500E015A521F0E9
:1016600010002060A069C01EA0610FB1401EA061E3
:101670002046FFF775F84FB1D4E90121384690476D
:10168000206A401C2062C01C206206E0206AFAE743
:10169000D4E9012115F8010B9047761EF8D22046B7
:1016A000FFF774F8BDE8F0814E414E006E616E00A8
:1016B000494E4600696E66002DE9F04781461646A0
:1016C0008AB0354878440DC88DE80D00324878441A
:1016D000801C03AC0DC884E80D0041F69B30084423
:1016E000372190FBF1F290FBF1F5A5F1800501FBAC
:1016F00012041B3C02D56442012000E00020DFF808
:1017000098A080460027FA44AAF1BE0A0EE0E0073E
:101710000AD03246684607EB470101230AEB8101F4
:1017200000F012FB8DE8070064107F1C002CEED146
:10173000194F7F44AE3F19E0E80715D007EB0410BE
:101740000DF1180A90E80E008AE80E00C068F04219
:1017500001D1981908903246012306A903A800F088
:10176000F3FA03AB83E807006D10641C002DE3D18E
:101770004FF0010332466946B8F1000F03A802D0CA
:1017800000F0CDFA01E000F0DFFAC9E90001C9F884
:1017900008200AB0BDE8F08744A1000010B5044657
:1017A000AFF300802046BDE81040FEF714BE0000F5
:1017B0004FF0013C50F8042B51F8043B9A4215D1EC
:1017C000A2EB0C03934313EACC130BD150F8042B78
:1017D00051F8043B9A4209D1A2EB0C03934313EA5C
:1017E000CC13E7D04FF00000704700BFD01A01BA09
:1017F000B1FA81F101F0180122FA01F0CB40C1F1F8
:101800002001DBB2C0B2C01A2CFA01F3D11A914305
:1018100011EAC311E6D1704701491820ABBEFEE7BB
:101820002600020070475FEA400C08BF91F0000FED
:101830004FEA8C234FEAC12243EA51514FEA1C5030
:1018400018BF00F5F0404FEA300018BF41F00041EA
:101850005FEA6C5C00F02980BCF1FF3F08BF40F0FC
:1018600080407047130C06BF12044FF0100C4FF06D
:10187000000C130E04BF12020CF1080C130F04BF6E
:1018800012010CF1040C930F04BF92000CF1020C36
:10189000D30F04BF52000CF1010C11464FF00002AF
:1018A000A0F11F00A0EB0C00704711F0004F08BF23
:1018B000704731F000413FF4D5AF0B0C06BF09046F
:1018C0004FF0100C4FF0000C0B0E04BF09020CF18E
:1018D000080C0B0F04BF09010CF1040C8B0F04BFA3
:1018E00089000CF1020CCB0F04BF49000CF1010C74
:1018F000CCF12003A0EB0C0022FA03F302FA0CF265
:1019000041EA030100F10100704720F07F4C80EABA
:10191000030023F07F47ACEB070303F57C5300F093
:10192000004003F1FF032DE980494FEA154B09B44C
:101930004FEA144325EA0B4E24EA03480FF204262B
:1019400006EB132749083E785FEA320203FB06677D
:10195000C7F5000707FB06F64FEA54374FEAD646AD
:1019600006F1020607FB066CCCF1005C4FEA1C474F
:101970002CEA074C07FB06F40CFB06F504EB1546B6
:101980004FEA961634BF00204FF000404FEAD1379F
:1019900006FB07FC4FEA1C4C0CFB0BF7D21B03FBAE
:1019A0000CF761EB07010CFB0EF7B0EB074072EB95
:1019B00017420CFB08F734BFA2EB0742B2EB074219
:1019C00061EB17414FEA0C444FEA910706FB07FC15
:1019D0004FEA1C4C0CFB0BF7B0EBC74072EB5732D5
:1019E00003FB0CF734BFA2EBC742B2EBC74261EB7B
:1019F00057310CFB0EF7B0EBC70072EB57720CFBC4
:101A000008F734BFA2EBC702B2EBC70261EB577114
:101A1000039F4FEA816141EA921104EBCC044FEA43
:101A2000D1374FEA826206FB07FC42EA90124FEA86
:101A300080604FEA1C4C0CFB0BF7D21B03FB0CF72E
:101A400061EB07010CFB0EF7B0EB074072EB17429E
:101A50000CFB08F734BFA2EB0742B2EB074261EB85
:101A600017414FEA8C554FEA910704EB9C2406FB83
:101A700007FC4FEA1C4C0CFB0BF7B0EBC74072EBBA
:101A8000573203FB0CF734BFA2EBC742B2EBC7429D
:101A900061EB57310CFB0EF7B0EBC70072EB5772DE
:101AA0000CFB08F734BFA2EBC702B2EBC70261EB35
:101AB000577115EB4C254FEA816141EA92114FEACB
:101AC00082624FEAD13742EA901206FB07FC44F1EA
:101AD00000044FEA80604FEA1C4C0CFB0BF7D21B52
:101AE00003FB0CF761EB07010CFB0EF7B0EB0740B3
:101AF00072EB17420CFB08F734BFA2EB0742B2EBC4
:101B0000074261EB174115EB1C154FEA813141EAA1
:101B100092414FEA823242EA90424FEA80304FEAE5
:101B20000C7644F1000448EA03434EEA0B484FF0B8
:101B3000000EB2EB080C71EB030724BF6246394676
:101B40004EEB0E0E4FF0000B0018524149414BEB8B
:101B50000B0BB2EB080C71EB03077BF1000B24BFFE
:101B6000624639464EEB0E0E4FF0000B0018524104
:101B700049414BEB0B0BB2EB080C71EB03077BF10C
:101B8000000B24BF624639464EEB0E0E51EA0207A7
:101B900018BF46F0010616EB0E7655F1000254F11F
:101BA000000103D5BDE88901BDE80088BDE88901D1
:101BB000BDE80048B619524141EB0101A3F1010310
:101BC000704780807F7E7D7C7B7A797877767675AA
:101BD0007473727171706F6E6E6D6C6C6B6A6A6922
:101BE0006868676666656464636362616160605FBC
:101BF0005F5E5E5D5D5C5C5B5B5A5A595958585735
:101C0000575656555555545453535252525151509C
:101C100050504F4F4F4E4E4D4D4D4C4C4C4B4B4BEF
:101C20004A4A4A4949494848484747474746464635
:101C30004545454444444443434343424242424170
:101C40004141002B9C4630D477002BD01CB54FEA85
:101C5000370703B44FF010004FF01001BAF1000F36
:101C600006D0BCF1000FDCBF40F0080040F00801D6
:101C70004FF000000FBCBDE810400BF1010BBBF1B1
:101C8000010F08BF5FEA170722BF12F1010211F12D
:101C900001014FF0004143F1000300F0004043EA2E
:101CA00000007047F9D35708D0E746EA064613F11B
:101CB000400F4FEA16461FDD13F1200FDFBF16431A
:101CC0000A46002120335B42BED0C3F1200746EA1A
:101CD000064602FA07F74FEA164646EA0706C3F138
:101CE000200722FA03F201FA07F721FA03F14FF075
:101CF000000342EA0702A7E746EA020646EA06466A
:101D00004FEA164646EA0106BCBF46EA0646360CCE
:101D10004FF000034FF000024FF0000194E72DE96F
:101D2000804C9A46934670B491E8380007C831EA6F
:101D3000400C48BF34EA430C03D5FFF7E6FDFFF73C
:101D400080FFF0BCBDE8008C2DE9804C9A4693469C
:101D500070B491E8380007C810F0804F08BF13F046
:101D6000804F03D100F005F8FFF76BFFF0BCBDE832
:101D7000008C20F07F4780EA030023F07F4C07EBC4
:101D80000C03A3F57C5300F00040A3F1FE0392F096
:101D9000000F00F0B38095F0000F00F077802DE980
:101DA00001494FEA11404FEA144621EA004800FB7E
:101DB00006FC24EA064708FB06F607FB08F800FBCA
:101DC00007F718EB06484CEB164C4FEA124B18EB92
:101DD00007484FEA15464CEB174022EA0B4E0BFB27
:101DE00006FC25EA06470EFB06F607FB0EFE0BFB7C
:101DF00007F71EEB064E4CEB164C4FF000061EEBA1
:101E0000074E4CEB174B18EB0B0840F1000018EB9A
:101E10000E0B58EB000840F100008F1A4FF0000144
:101E20003CBFC943661B14BFB5EB040C00213CBF8B
:101E3000C943F61B4FEA17444EEA8E0E27EA0445C3
:101E40004FEA1C4704FB07622CEA074C05FB07F727
:101E50000CFB05F604FB0CFC16EB074642EB1742A5
:101E600016EB0C4642EB1C421BEB060658EB02023B
:101E7000414146EA9E0601D5BDE80189B6195241A5
:101E800041EB0101A3F10103BDE801894FEA1445CB
:101E90004FEA114724EA054621EA074C05FB07F4FF
:101EA00006FB07F70CFB06F105FB0CFC11EB0741E9
:101EB00044EB17444FEA124711EB0C4144EB1C442E
:101EC00022EA074C05FB07F206FB07F70CFB06F6B8
:101ED00005FB0CFC16EB074642EB174216EB0C46D3
:101EE00042EB1C456A1854F1000148BF7047B6190F
:101EF000524141EB0101A3F10103704795F0000F3E
:101F000037D04FEA11424FEA144721EA024624EA49
:101F1000074C02FB07F106FB07F70CFB06F402FB7C
:101F20000CFC14EB074441EB17414FEA154714EB47
:101F30000C4441EB1C4125EA074C02FB07F506FB6C
:101F400007F70CFB06F602FB0CFC16EB074645EB0D
:101F5000174516EB0C4645EB1C42121951F10001D6
:101F600048BF7047B619524141EB0101A3F101038B
:101F700070474FEA14454FEA114724EA054621EA23
:101F8000074C05FB07F106FB07F70CFB06F24FF0C9
:101F9000000605FB0CFC12EB074241EB174112EB6C
:101FA0000C4251EB1C4148BF7047921841EB0101B4
:101FB000A3F101037047FEE7014800F07BBE00007B
:101FC00088040124014800F075BE000000050124CA
:101FD000244A016891421CBF234A91422CD0234AD3
:101FE00091421CBF224A914226D0224A91421CBFF4
:101FF000214A914220D0214A91421CBF204A91425D
:102000001AD0204A91421CBF1F4A914214D01F4A45
:1020100091421CBF1E4A91420ED01E4A91421CBFE3
:102020001D4A914208D01D4A91421FBF1C4A91424D
:1020300021F0FF01816512D11A4ACBB2A3F110033E
:102040006FF30901A2FB03324FEA1212032A02F0D6
:102050000703154AD25CC26588BF091D8165084621
:10206000704700001000024028000240400002407B
:10207000580002407000024088000240A000024068
:10208000B80002401004024028040240400402400C
:10209000580402407004024088040240A004024038
:1020A000B8040240ABAAAAAA4CB600082DE9F04F2A
:1020B000734ED0F800C0734FDFF8CC81B445DFF821
:1020C000CC91DFF8CCA1846DDFF8C8B1724D18BF98
:1020D000BC454DD0C44518BFCC4549D0D44518BFE8
:1020E000DC4545D0DFF8B4E1F44518BFAC453FD03E
:1020F000DFF8ACE1F4451CBFDFF8A8E1F44537D0C8
:10210000DFF8A4E1F4451CBFDFF8A0E1F4452FD0CF
:10211000DFF89CE1F4451CBFDFF898E1F44527D0D7
:10212000DFF894E1F4451CBFDFF890E1F4451FD0DF
:10213000DFF88CE1F4451CBFDFF888E1F44517D0E7
:10214000DFF884E1F4451CBFDFF880E1F4450FD0EF
:10215000DFF87CE1F4451CBFDFF878E1F44507D0F7
:10216000DFF874E1F4451CBFDFF870E1F4450CD1F1
:10217000D0E919CECCF804E0D0F86CC0BCF1000F67
:102180001CBFD0E91CCECCF804E0D0F800C0B445A8
:1021900018BFBC4524D0C44518BFCC4520D0D44579
:1021A00018BFDC451CD03D4EB44518BFAC4517D018
:1021B0003B4DAC451CBF3B4DAC4511D03A4DAC45F9
:1021C0001CBF3A4DAC450BD0394DAC451CBF394D09
:1021D000AC4505D0384DAC451CBF384DAC4524D17D
:1021E00090F85C504FF03F0C05F01F050CFA05FC11
:1021F000C4F808C0D0F800C0DCF8004024F4802403
:10220000CCF80040D0F800C0CCF804308368402BF4
:1022100005D103689A600068C160BDE8F08F03686B
:1022200099600068C260BDE8F08F254DAC451CBFC9
:10223000244DAC4512D0244DAC451CBF234DAC45BC
:102240000CD0234DAC451CBF224DAC4506D0224DD1
:10225000AC451EBF214DAC45BDE8F08F90F85C50F9
:102260004FF0010C05F01F050CFA05FCC4F804C082
:10227000D0F800C0CCF804308368402BCFD1C8E739
:102280001000024028000240400002405800024076
:102290007000024088000240B8000240A0000240E6
:1022A0001004024028040240400402405804024046
:1022B0007004024088040240A0040240B8040240B6
:1022C000085402581C5402583054025844540258BE
:1022D000585402586C54025880540258945402586E
:1022E000704700000FB440F2014170B5264C05ABB9
:1022F000049A04F10800FEF76DF982B2002A04F195
:10230000080023DD00F01F039918BFF34F8FDFF89B
:102310007CC0A1F12003CCF80000002B00F12001CB
:1023200010DD6FF01E05EB1A0120DD1703EBD563FE
:102330005B115B4204E000BFCCF80010401C203170
:102340008342F9DABFF34F8FBFF36F8F104804F168
:10235000080104F0CDFF002818BF00F0C5F90C4CAF
:102360002068C06910F0400F1CBF70BC5DF814FB02
:10237000012007F025F92068C06910F0400FF7D060
:1023800070BC5DF814FB00006CFF002468EF00E0F7
:10239000F80301241F4900222DE9F003CA605A25E1
:1023A000D1F808800127A5264FF0820C07230324CB
:1023B00088F8005007EB4005C868401CC8608F686B
:1023C0003E54C868401CC8608E683354C868401CBE
:1023D000C8608B6803F800C0C868401CC8608B6880
:1023E0001C54C868401CC8608B681D54C868401CD9
:1023F000C8608B681A54C868401CC8608B681A543F
:10240000C868421CCA60886891B2BDE8F00300F059
:1024100083B80000BC0000240E4E00250E4C08219D
:10242000706808F045F8207880B1257000F038F821
:10243000D4F8081404F20C40FEF75DF9C4F808540F
:102440008022064804F20C4104F0E8FE012007F067
:10245000B7F8E4E7100000246CFF0024F80301241F
:102460000C4800230C49DFF834C000F110024DF88D
:10247000044DC0E902C30CF20444C0E900430868FB
:1024800010604868506088689060C868D0605DF8E7
:10249000044B7047BC0000240000002474FF00249B
:1024A00018490022086803785A2B03BF4378A52BEC
:1024B000C1784A600CBF8329704770B584B08188A9
:1024C000002400924DBA019202920392817949064A
:1024D0000E0EC11D32466846FEF796F80A4800BF48
:1024E00050F83430AB4207D100EBC40031464268AB
:1024F0006846904704B070BD611CCCB2022CEFD38B
:1025000004B070BDBC000024CC0000240149486028
:1025100070470000BC00002470B5C0B00C464FF4FA
:10252000807105466846FEF7E6F822462946684669
:10253000FEF76AF8E11E4FF6FF70EB1C4FF0000249
:1025400011EA000518BF4AF2010C15D013F8016B0F
:102550000421704010F0010F14BF8CEA50004008B5
:1025600010F0010F14BF8CEA50004008491EF1D151
:10257000511C8AB2AA42E9D3621C030A0DF8040076
:1025800090B2421C92B20DF80030002A684623DD5A
:1025900000F01F039918BFF34F8FDFF868C0A1F157
:1025A0002003CCF80000002B00F1200110DD6FF0BB
:1025B0001E04E31A0120DC1703EBD4635B115B42BA
:1025C00004E000BFCCF80010401C20318342F9DA4F
:1025D000BFF34F8FBFF36F8F0B48694604F088FE3F
:1025E000094C2068C06910F0400F1CBF40B070BD9E
:1025F0001E2006F0E5FF2068C06910F0400FF7D0FC
:1026000040B070BD68EF00E0F8030124354B4FF097
:102610005A0C2DE9F0030024DC60D3F80880A527CC
:10262000541D8225060A88F800C0002AD3F80CC081
:102630000CF1010CC3F80CC0D3F8088008F80C703A
:10264000D3F80CC00CF1010CC3F80CC09F6807F85C
:102650000C40D3F80CC00CF1010CC3F80CC09C6802
:1026600004F80C50D3F80CC00CF1010CC3F80CC0EA
:102670009C6804F80C60D3F80CC00CF1010CC3F892
:102680000CC09C6804F80C00D86800F10100D86008
:1026900020D0D3F808C012F0010FA1F1010160446D
:1026A000A0F1010003D011F801CF00F801CFC2F36F
:1026B000470CBCF1000F0AD04C78ACF1010C44700F
:1026C0001CF0FF0C11F8024F00F8024FF4D1D8684B
:1026D0001044D86099899868BDE8F00389B2FFF783
:1026E0001BBF0000BC00002472B6FEE72DE9F05FBE
:1026F000044601F093FB002C834600F0D38094F84D
:102700003500022806D080216165002084F834005D
:1027100000F0C8B8B3492068B34DB44E8842B44FF6
:10272000DFF8D082DFF8D09218BFA84225D0B0429F
:1027300018BFB84221D0404518BF48451DD0AF4A08
:1027400090421CBFAE4A904217D0AE4A90421CBF86
:10275000AD4A904211D0AD4A90421CBFAC4A904263
:102760000BD0AC4A90421CBFAB4A904205D0AB4A5A
:1027700090421CBFAA4A904209D1026822F01E0270
:1027800002602068426922F08002426103E0026830
:1027900022F00E020260D4F800A08A45504618BF0D
:1027A000A8423DD0B04218BFB84239D0404518BF0A
:1027B000484535D0914A90421CBF914A90422FD053
:1027C000904A90421CBF904A904229D08F4A904232
:1027D0001CBF8F4A904223D08E4A90421CBF8E4A23
:1027E00090421DD08D4A90421CBF8D4A904217D016
:1027F0008C4A90421CBF8C4A904211D08B4A904226
:102800001CBF8B4A90420BD08A4A90421CBF8A4A16
:10281000904205D0894A90421CBF894A924504D112
:10282000206E026822F4807202606E49206888423D
:1028300018BFA8421FD0B04218BFB8421BD04045B5
:1028400018BF484517D06D4988421CBF6C49884263
:1028500011D06C4988421CBF6B4988420BD06B4930
:1028600088421CBF6A49884205D06A4988421EBF17
:10287000694988426949016821F001010160DAF87B
:10288000000010F0010F15D001F0C8FAA0EB0B000A
:1028900005280AD9202262650020032184F834002B
:1028A00084F835100120BDE8F09FDAF8000010F040
:1028B000010FE9D14B4901222068884218BFA84284
:1028C00025D0B04218BFB84221D0404518BF484576
:1028D0001DD04A4B98421CBF494B984217D0494BD8
:1028E00098421CBF484B984211D0484B98421CBF9D
:1028F000474B98420BD0474B98421CBF464B9842DF
:1029000005D0464B98421CBF454B98420AD194F8DB
:102910005C304FF03F0CA06D03F01F030CFA03F383
:10292000836007E094F85C30A06D03F01F0302FAA7
:1029300003F343602068884218BFA8423DD0B042EC
:1029400018BFB84239D0404518BF484535D02B494B
:1029500088421CBF2A4988422FD02A4988421CBF7E
:102960002949884229D0294988421CBF28498842E0
:1029700023D0284988421CBF274988421DD02749B7
:1029800088421CBF2649884217D0264988421CBF6E
:102990002549884211D0254988421CBF24498842D4
:1029A0000BD0244988421CBF2349884205D02349C3
:1029B00088421CBF224988420BD1D4E919014160E9
:1029C000E06E30B1016821F480710160D4E91C012E
:1029D00041604FF0000084F8340084F83520BDE8F1
:1029E000F09F00001000024028000240400002401A
:1029F000580002407000024088000240A0000240DF
:102A0000B800024010040240280402404004024082
:102A1000580402407004024088040240A0040240AE
:102A2000B8040240085402581C540258305402584A
:102A300044540258585402586C5402588054025856
:102A400094540258002804BF0120704790F83510B4
:102A5000022903D080214165012070472DE9F05FF4
:102A6000DFF8ECB101687B4A7B4B5945DFF8ECC1DC
:102A70007B4C7C4D7C4E7D4FDFF8F481DFF8F49188
:102A8000DFF8F4A118BF914225D0994218BF6145E3
:102A900021D0A14218BFA9421DD0B1421CBFDFF80E
:102AA000DCE1714517D0DFF8D8E1714518BFB942B4
:102AB00011D0DFF8D0E171451CBFDFF8CCE17145E2
:102AC00009D0DFF8C8E1714518BF414503D0494539
:102AD00018BF514524D14FF0040E80F835E0594518
:102AE00018BF914217D0994218BF614513D0A14237
:102AF00018BFA9420FD0B1421CBF604881420AD022
:102B00005F48814218BFB94205D05E4881421EBF6E
:102B10005D4881425D48086820F00100086094E04B
:102B2000D1F800E0DFF828B12EF00E0EC1F800E079
:102B30000168594518BF91421CD0994218BF6145A0
:102B400018D0A14218BFA94214D0B1421CBFDFF86F
:102B50002CB159450ED0DFF828B1594518BFB942FC
:102B600008D0DFF820B159451EBFDFF81CB1594528
:102B7000DFF818B1D1F800B02BF0010BC1F800B0AC
:102B8000DFF8CCE04FF0010B0168714518BF9142AE
:102B900038D0994218BF614534D0A14218BFA9422C
:102BA00030D0B1421CBF354A91422BD0344A9142B9
:102BB00018BFB94226D0334A91421CBF324A9142D3
:102BC00020D0324A914218BF41451BD0494518BF19
:102BD000514517D02E4A91421CBF2E4A914211D026
:102BE0002D4A91421CBF2D4A91420BD02C4A914252
:102BF0001CBF2C4A914205D02B4A91421CBF2B4A44
:102C0000914218D1016E0A6822F480720A6090F82D
:102C10005C20816D02F01F020BFA02F24A60D0E9DB
:102C200019124A60C16E31B10A6822F480720A60DA
:102C3000D0E91C124A604FF00002016D80F8342088
:102C400080F835B0002918BF88470020BDE8F09F04
:102C5000100002402800024040000240580002409C
:102C60007000024088000240A00002402804024098
:102C700088040240A0040240B8040240B8000240A8
:102C80001004024040040240580402407004024014
:102C9000085402581C5402583054025844540258E4
:102CA000585402586C540258805402589454025894
:102CB000406D70472DE9F84F0446DFF8008400208E
:102CC000DFF8009400904FF41652FD48A56DFE4EBB
:102CD000FE4F01682068B1FBF2FBD5F800A040452B
:102CE00029681CBFF74A90422BD0B04218BFB842A7
:102CF00027D0F74A90421CBFF64A904221D0F64AAC
:102D000090421CBFF54A90421BD0F54A90421CBF2E
:102D1000F44A904215D0F44A90421CBFF34A9042C4
:102D20000FD0F34B98421CBFDFF8C8C3604508D0F2
:102D3000DFF8C4E370451CBFDFF8C0E3704540F026
:102D4000308294F85C204FF0080102F01F0201FA73
:102D500002F212EA0A0F41D0404518BF48452AD076
:102D6000B04218BFB84226D0D94A90421CBFD94AB7
:102D7000904220D0D84A90421CBFD84A90421AD0E4
:102D8000D74A90421CBFD74A904214D0D64A9042AC
:102D90001CBFD64A90420ED0D54A90421CBFD54A9D
:102DA000904208D0D44A90421FBFD44A9042026851
:102DB00002F0080202D1026802F0040272B1026855
:102DC00022F00402026094F85C0000F01F0001FA97
:102DD00000F0A860606D40F00100606594F85C0050
:102DE00000F01F014FF0010000FA01F111EA0A0F93
:102DF00036D02068404518BF484528D0B04218BF9B
:102E0000B84224D0B24A90421CBFB24A90421ED06F
:102E1000B14A90421CBFB14A904218D0B04A904289
:102E20001CBFB04A904212D0AF4A90421CBFAF4A7A
:102E300090420CD0AE4A90421CBFAE4A904206D09F
:102E4000AD4A90421EBFAD4A9042006808D1406929
:102E500010F0800F04D0A960606D40F00200606542
:102E600094F85C0000F01F014FF0040000FA01F13B
:102E700011EA0A0F36D02068404518BF484528D0CF
:102E8000B04218BFB84224D0914A90421CBF914A28
:102E900090421ED0904A90421CBF904A904218D057
:102EA0008F4A90421CBF8F4A904212D08E4A904265
:102EB0001CBF8E4A90420CD08D4A90421CBF8D4A56
:102EC000904206D08C4A90421EBF8C4A90420068C5
:102ED00008D1006810F0020F04D0A960606D40F0C6
:102EE0000400606594F85C104FF0100001F01F01C1
:102EF00000FA01F111EA0A0F4FD02068404518BFCF
:102F000048452AD0B04218BFB84226D0704A9042F5
:102F10001CBF704A904220D06F4A90421CBF6F4A3B
:102F200090421AD06E4A90421CBF6E4A904214D012
:102F30006D4A90421CBF6D4A90420ED06C4A90423E
:102F40001CBF6C4A904208D06B4A90421FBF6B4A2C
:102F50009042006800F0040002D1006800F0080010
:102F6000D8B1A9602068016811F4802F09D00068E9
:102F700010F4002F02D0A16C79B10CE0216C51B992
:102F80000BE0016811F4807F03D1016821F0080192
:102F90000160216C09B12046884794F85C1020201C
:102FA00001F01F0100FA01F111EA0A0F6ED020684A
:102FB000404518BF48452AD0B04218BFB84226D075
:102FC000434A90421CBF434A904220D0424A90421A
:102FD0001CBF424A90421AD0414A90421CBF414A0B
:102FE000904214D0404A90421CBF404A90420ED0BA
:102FF0003F4A90421CBF3F4A904208D03E4A90420E
:103000001FBF3E4A9042006800F0020002D10068F3
:1030100000F01000D0B3A96094F8350004282068AF
:10302000016809D011F4802F34D0006810F4002F0B
:103030002DD0E16B51B33DE021F016010160206815
:10304000416921F080014161206C002804BFA06C1F
:10305000002804D02068016821F00801016094F87C
:103060005C304FF03F024FF000014FF0010003F0E1
:103070001F0302FA03F2AA6084F8341084F83500C2
:10308000216D002940F08C81BDE8F88F14E0616C5F
:1030900081B911E0016811F4807F09D10268002331
:1030A000012122F01002026084F8343084F83510D7
:1030B000E16B09B120468847606D21E010000240B5
:1030C000380000242800024040000240580002401E
:1030D0007000024088000240A0000240B800024098
:1030E00010040240280402404004024058040240F8
:1030F0007004024088040240A0040240B804024068
:10310000002808BFBDE8F88F606D10F0010F43D0B4
:103110002068042184F83510404518BF484521D067
:10312000B04218BFB8421DD0A04988421CBFA04978
:10313000884217D09F4988421CBF9F49884211D0BE
:103140009E4988421CBF9E4988420BD09D498842B7
:103150001CBF9D49884205D09C4988421EBF9C499E
:1031600088429C49016821F00101016020680099B2
:1031700001F101010091594503D8016811F0010FD7
:10318000F5D1002184F83410006810F0010F14BF4D
:103190000320012084F83500E16C00293FD1BDE80F
:1031A000F88FDFF8349248451CBFDFF8309248456D
:1031B00018D0DFF82C9248451CBFDFF8289248450C
:1031C00010D0DFF8249248451CBFDFF82092484514
:1031D00008D0DFF81C9248451EBFDFF8189248451A
:1031E000BDE8F88F94F85CA04FF0040BD0F8009085
:1031F0000AF01F0A0BFA0AFB1BEA010F18BF19F0AD
:10320000040F4BD019F4004FC5F804B00DD019F4D9
:10321000803F05D0216C002908BFBDE8F88FBFE0D2
:10322000A16C002976D1BDE8F88F19F0200F31D1BB
:10323000206840451CBF7049884227D0B04218BF63
:10324000B84223D0594988421CBF594988421DD0F1
:10325000584988421CBF5849884217D0574988426C
:103260001CBF5749884211D05649884218BF904226
:103270000CD0984218BF604508D0564988421FBFFD
:103280005E498842016821F0040102D1016821F001
:1032900008010160216CE9BBBDE8F88F4FF0020B1B
:1032A0000BFA0AFB1BEA010F18BF19F0020F54D0EA
:1032B00019F4004FC5F804B00CD019F4803F05D0C4
:1032C000E16B002908BFBDE8F88F69E0616C09BBBC
:1032D000BDE8F88F19F0200F3BD1206840451CBF96
:1032E0004549884229D0B04218BFB84225D02F495D
:1032F00088421CBF2E4988421FD02E4988421CBFDD
:103300002D49884219D02D4988421CBF2C4988423A
:1033100013D000E044E02B49884218BF90420CD003
:10332000984218BF604508D02A4988421FBF3349D8
:103330008842016821F00A0102D1016821F01401DC
:1033400001604FF0000184F834104FF0010084F860
:103350003500E16B21BBBDE8F88F4FF0080202FA9F
:103360000AF20A4214BF19F0080FBDE8F88F01688D
:1033700021F00E01016094F85C104FF0010001F0A3
:103380001F0100FA01F24FF000016A60606584F8E5
:10339000341084F83500E16C002908BFBDE8F88FCF
:1033A000204601B0BDE8F04F084700007000024021
:1033B00088000240A0000240B80002401004024011
:1033C00028040240400402405804024070040240B5
:1033D00088040240A0040240085402581C540258B9
:1033E0003054025844540258585402586C540258ED
:1033F000805402589454025828000240B8040240F5
:103400002DE9F84F044600F009FD002C834600F03A
:103410004982FE494FF0010620684FF00005FC4F3D
:10342000DFF8F0838842DFF8F093DFF8F0A31CBFE9
:10343000FB4988422AD0FB4988421CBFFA4988428E
:1034400024D0FA4988421CBFF94988421ED0F94964
:1034500088421CBFF849884218D0F84988421CBFEE
:10346000F749884212D0F74988421CBFF649884282
:103470000CD0F64988421CBFF549884206D0F54970
:1034800088421CBFF449884240F0D980DF494FF0A0
:10349000020284F8345084F8352088421CBFE04989
:1034A000884223D0DF4988421CBFDF4988421DD0B3
:1034B000DE4988421CBFDE49884217D0DD49884278
:1034C0001CBFDD49884211D0DC4988421CBFDC4961
:1034D00088420BD0DB4988421CBFDB49884205D0BB
:1034E000DA4988421EBFDA498842DA49016821F088
:1034F000010101602068006810F0010F13D000BFC7
:1035000000F08CFCA0EB0B00052807D92021616599
:10351000032084F835000120BDE8F88F206800689A
:1035200010F0010FECD1D4E9021C2068D4E9042E7C
:10353000009041EA0C01D4E9063CD4F820B042EAFC
:103540000E0200680A43C5491A43D4F824E042EA4F
:103550000C02084042EA0B01BEF1040F41EA0000F0
:1035600003D1D4E90B1211430843BD4909686FF335
:103570000F01B1F1005F11D36168A1F12902052AA1
:1035800084BFA1F13F02032A06D9A1F14702012A13
:1035900084BF4F39032901D840F480100099086096
:1035A0002368606A5969042821F0070140EA010292
:1035B00039D1D4E90A100A4330B3D4F818C0BCF1A9
:1035C000000F0AD0BCF5005F14D000291CBF0129F0
:1035D000022921D003291CD025E019B1012905D0E9
:1035E000022920D110F0807F1DD015E0B0F1C07FFE
:1035F00019D111E081B1012907D002290CD003298A
:1036000008BFB0F1C07F07D00DE010F0807F03D17C
:1036100009E010F0807F06D04FF04000606584F82C
:10362000356000F03FB95A612046FEF7D1FC94F8AE
:103630005C203F2102F01F029140816051E08949E6
:10364000884218BFB8420FD0404518BF48450BD03C
:1036500050451CBF8449884206D0844988421CBF1B
:103660008349884240F0168184F834504FF00201BB
:1036700084F835100168A2686FF310110091402A98
:1036800008BF102204D0802A0CBF4FF480420022D1
:10369000D4E903CED4E9053142EADC02D4E907CB10
:1036A00042EADE0E734A4EEAD30E734B4EEAD10164
:1036B00041EADC0141EA1B1C00994CEA010101606E
:1036C00020681044A3FB001000098000E06520463C
:1036D000FEF77EFC94F85C1001F01F0106FA01F180
:1036E00041604A49206888421CBF4D4988423DD00C
:1036F0004C4988421CBF4C49884237D04B498842CC
:103700001CBF4B49884231D04A4988421CBF4A49B4
:1037100088422BD0494988421CBF4949884225D05C
:10372000484988421CBF484988421FD047498842BF
:103730001CBF4749884219D0464988421CBF4649A8
:10374000884213D04749884218BFB8420ED040453E
:1037500018BF48450AD050451CBF4349884205D090
:10376000424988421CBF424988424DD13D4A90425D
:1037700018BFB8420ED0404518BF48450AD0504542
:103780001CBF3949884205D0384988421CBF384996
:1037900088423AD1384BC0B2A0F108003749A3FBA8
:1037A0000030374B63664FEA101000F01F0301EB47
:1037B000800006FA03F1A1662066A068802808BF91
:1037C00065602079216E0860D4E919014160606864
:1037D000411E07297DD8C1B24B1E072B7AD820681D
:1037E000904218BFB8420ED0404518BF48450AD095
:1037F00050451CBF1C4A904205D01C4A90421CBF39
:103800001B4A90426FD13DE07FE04FE01000024044
:103810001C54025830540258445402585854025808
:103820002800024040000240580002407000024060
:1038300088000240A0000240B8000240100402408C
:103840002804024040040240580402407004024030
:1038500088040240A0040240B80402403F8010FEE9
:103860000010005C085402586C54025880540258EE
:1038700094540258F8ABFDA7CDCCCCCC00580258DC
:10388000805802582548244A02EB8101C4E91B10E4
:103890002FE000BF4FF040014FF00300616584F856
:1038A000350000BF4FF00100BDE8F88F1C49C3B2DE
:1038B000A3F1100C1B4BA1FB0CC11844A8284FEA24
:1038C000111098BF0830184900F01F0301EB800069
:1038D00002E017E010E006E0144906FA03F3A366DD
:1038E000C4E9180169E71348114A02EB8101C4E9F0
:1038F0001B1006FA03F06067E06E0560D4E91C0156
:10390000416002E0E56625676567656584F83560B6
:103910000020BDE8F88F0000FC58025840590258BA
:10392000ABAAAAAAF0FBFDBF000802408008024033
:10393000FC080240400902402DE9F84F04008E4681
:103940004FF00000009004BF0120BDE8F88F94F80C
:103950003400012804BF0220BDE8F88F94F835C078
:103960000120002184F83400BCF1010F07D084F855
:103970003410C202009062650098BDE8F88FDFF84D
:10398000F0C10225206884F835506045794D6165A5
:10399000794E7A4FDFF8E881DFF8E891DFF8E8A1A7
:1039A000DFF8E8B118BFA8421DD0B04218BFB84236
:1039B00019D0404518BF484515D0504518BF584547
:1039C00011D0734988421CBF724988420BD072499A
:1039D00088421CBF7149884205D0714988421EBF88
:1039E000704988427049016821F001010160714607
:1039F0002046FEF75BFB5E492068884218BFA8425C
:103A000023D0B04218BFB8421FD0404518BF484528
:103A10001BD0504518BF584517D05D4A90421CBF77
:103A20005C4A904211D05C4A90421CBF5B4A904273
:103A30000BD05B4A90421CBF5A4A904205D05A4A6A
:103A400090421CBF594A90420CD1026822F01E02DB
:103A500042F016020260206C88B12068026842F0D1
:103A600008020BE0026822F00E0242F00A02026035
:103A7000206C20B12068026842F0040202602068D5
:103A8000884218BFA8423BD0B04218BFB84237D0D6
:103A9000404518BF484533D0504518BF58452FD032
:103AA0003B4A90421CBF3B4A904229D03A4A90423E
:103AB0001CBF3A4A904223D0394A90421CBF394A2F
:103AC00090421DD0384A90421CBF384A904217D0CD
:103AD000374A90421CBF374A904211D0364A904232
:103AE0001CBF364A90420BD0354A90421CBF354A23
:103AF000904205D0344A90421CBF344A90420ED1C5
:103B0000206E026812F4803F03D0026842F4807293
:103B10000260E06E18B1026842F4807202602068B0
:103B2000884218BFA8421DD0B04218BFB84219D071
:103B3000404518BF484515D0504518BF584511D0CD
:103B4000134988421CBF134988420BD0124988424E
:103B50001CBF1249884205D0114988421EBF114935
:103B600088421149016841F00101016004E7000049
:103B7000100002402800024040000240580002406D
:103B80007000024088000240A0000240B8000240DD
:103B9000100402402804024040040240580402403D
:103BA0007004024088040240A0040240B8040240AD
:103BB000085402581C5402583054025844540258B5
:103BC000585402586C540258805402589454025865
:103BD0000B680022DFF81CC2002B08BF70472DE9DC
:103BE000F84F03254FF0010A0B680AFA02F633403A
:103BF00000F0F8804C68012C18BF022C03D0112C67
:103C000018BF122C18D184684FEA4207D1F80C80F3
:103C100005FA07F924EA090408FA07F747EA040451
:103C2000846044680F7924EA0604C7F3001707FA92
:103C300002F646EA04044460C6684FEA4204D1F83A
:103C4000088005FA04F726EA070608FA04F848EAA5
:103C50000606C6604E68022E18BF122E17D14FEA14
:103C6000D208D1F810E04FEA42764FF00F0B00EB8C
:103C70008808D8F820904FEAD6660BFA06FB0EFAB1
:103C800006F629EA0B0946EA0906C8F8206091F809
:103C90000480066808F0030826EA070608FA04F418
:103CA00044EA060404604C6814F0805F7DD0524CF6
:103CB000266846F002062660246822F0030606F114
:103CC000B0464FF00F0804F0020400944FEA8274EB
:103CD000D6F808744FEA1474A0F1B04908FA04F851
:103CE000B9F5003927EA080708BF4FF0000848D0A7
:103CF000A0F1B048B8F5013808BF4FF0010840D036
:103D0000A0F1B048B8F5023808BF4FF0020838D02B
:103D1000A0F1B048B8F5033808BF4FF0030830D021
:103D2000A0F1B048B8F5043808BF4FF0040828D017
:103D3000A0F1B048B8F5053808BF4FF0050820D00D
:103D4000A0F1B048B8F5063808BF4FF0060818D003
:103D5000A0F1B048B8F5073808BF4FF0070810D0F9
:103D6000A0F1B048B8F5083808BF4FF0080808D0EF
:103D7000A0F1B048B8F509380CBF4FF009084FF072
:103D80000A0808FA04F43C43C6F80844DCF800408A
:103D90004E6824EA030416F4803F18BF1C43CCF895
:103DA0000040DCF804404E6800E01BE016F4003FE1
:103DB00024EA030418BF1C43CCF804404FF0B0447D
:103DC0004F68266817F4801F26EA030618BF1E43B3
:103DD00026604F68666817F4001F26EA030618BFBE
:103DE0001E4366600B68521CD3407FF4FDAEBDE8F5
:103DF000F88F000080000058F44402580069084021
:103E000018BF01207047002A08BF0904816170476C
:103E100001480068000C70470010005C0148806891
:103E2000704700002C000024002804BF01207047C8
:103E300070B5026804464CF6CC4145F2555011600D
:103E400021680860D4E9000141602168A0688860A9
:103E5000FFF7E4FF05462068C06810F0070F10D098
:103E6000FFF7DCFF401B302806D92068C06810F03F
:103E7000070F01D0032070BD2068C06810F0070F45
:103E8000EED12168E0680A69824212BF08614AF6F1
:103E9000AA200860002070BD01684AF6AA200860C8
:103EA00000207047024881680278114481607047A1
:103EB0002C000024032010B500F016F901F0DAF907
:103EC0000F4A104913681268C3F3032302F00F026C
:103ED000CB5C895C03F01F0201F01F01D0400A4A4D
:103EE00020FA01F1116009490860002000F010F883
:103EF00000281CBF012010BD00F0A4F8002010BD58
:103F0000184402587CB600083C0000243800002405
:103F100010B5102804468AB02ED2002201461C207B
:103F200000F0B2F81C2000F09FF81948046019480E
:103F3000016841F001010160006809A900F0010079
:103F40000890684601F0E0F80598C0B101F036F934
:103F50004000114A002140F2E733B0FBF2F20F4873
:103F60004FF0804CC0F800C0C0E90331521EC0E9D8
:103F7000012101F095FD28B10AB0012010BD01F02A
:103F80001DF9E6E7054801F065FE0AB010BD000026
:103F900030000024E844025840420F007805012414
:103FA000DFF858C0F0B443780CF10402111DCCF8CE
:103FB00000300378002B04BF002010601BD0436842
:103FC0001360057BC37A827A90F80DC02F07847B3B
:103FD00047EA0367C57B47EAC242467A42EA8C4217
:103FE000037A42EA444242EA0542007842EA062263
:103FF00042EA430210430860F0BC704798ED00E0CD
:10400000BFF35F8F044800210368044A23F4803320
:10401000036011607047000024ED00E094ED00E0C3
:10402000074A40F0010005491060086840F48030FC
:104030000860BFF34F8FBFF36F8F704724ED00E030
:1040400094ED00E0074882B0016841F00201016090
:10405000006800220F2100F002000090901E02B0C4
:1040600000F012B8F44402580028B8BF7047410964
:1040700000F01F008A00012102F1E02201FA00F0A5
:10408000C2F8000170470000164B30B41B68C3F340
:104090000223C3F1070CBCF1040F88BF4FF0040CDE
:1040A0001C1D072C34BF0023DB1E012404FA0CFC6A
:1040B00004FA03F5ACF101042140A5F1010C99408B
:1040C0000CEA0202114300284FEA0111B8BF00F0C8
:1040D0000F0000F1E020ACBF80F8001480F8141D40
:1040E00030BC70470CED00E0074900F007004FF6C8
:1040F000FF030A681A4042EA002040F0FD7040F0D9
:1041000080600860704700000CED00E014490A6808
:1041100012F0040F07D1096801F00701814214BFB2
:1041200001200020704770B50A6822F00702104392
:104130000860FFF773FE0B4D0446286810F4005F1B
:104140000CD100BFFFF76AFE001BB0F57A7F01D9E2
:10415000012070BD286810F4005FF3D0002070BD0E
:104160000C4802580448025810B501F003F80549FC
:104170000968054AC1F30211515C01F01F01C840F2
:1041800010BD0000204402587CB6000861494DF87B
:10419000044DDFF884C10B1D0A6809681C68DCF84F
:1041A00000C002F00303C1F30531C4F30012CCF3E5
:1041B000CC0C00291CFB02F200EE102AF8EE400A9B
:1041C0007DD09FED561A564AB7EE000ACBB1DFED0F
:1041D000551A012B01D0022B4ED002EE101A116895
:1041E000F8EE422AC1F3080181EEA22A01EE901AEC
:1041F000F8EE611A40EE811A71EE800A62EE200A32
:104200004FE0494BD3F800C01CF0200F1ED0DFF860
:104210001CC11B6801EE901AC3F3C1011368F8EECC
:10422000612A2CFA01F101EE901AC3F30801F8EEAD
:10423000611A81EEA22A01EE901AF8EE611A40EEA0
:10424000811A71EE800A62EE200A2AE001EE901ACD
:104250001168DFED372AF8EE611AC1F3080182EE2A
:10426000A12A01EE901AF8EE611A40EE811A71EE61
:10427000800A62EE200A14E001EE901A1168DFED68
:104280002D2AF8EE611AC1F3080182EEA12A01EE8F
:10429000901AF8EE611A40EE811A71EE800A62EE11
:1042A000200A1168C1F3462101EE101AB8EE411A36
:1042B00031EE001AC0EE811ABCEEE11A00E022E0F5
:1042C00080ED001A1168C1F3064101EE101AB8EE34
:1042D000411A31EE001AC0EE811ABCEEE11A80EDEF
:1042E000011A1168C1F3066101EE101AB8EE411A05
:1042F00031EE000A80EE801ABCEEC10A80ED020A9F
:104300005DF8044B704700210160416081605DF8F9
:10431000044B7047284402583C44025800000039BE
:10432000384402580024744A004402580090D003D4
:104330000024744C20BCBE4B61494DF8044DDFF89D
:1043400084C10B1D0A6809681C68DCF800C002F013
:104350000303C1F30551C4F30022CCF3CC0C0029B4
:104360001CFB02F200EE102AF8EE400A7DD09FED11
:10437000561A564AB7EE000ACBB1DFED551A012B9B
:1043800001D0022B4ED002EE101A1168F8EE422A2C
:10439000C1F3080181EEA22A01EE901AF8EE611A2B
:1043A00040EE811A71EE800A62EE200A4FE0494B1E
:1043B000D3F800C01CF0200F1ED0DFF81CC11B6812
:1043C00001EE901AC3F3C1011368F8EE612A2CFACA
:1043D00001F101EE901AC3F30801F8EE611A81EEC3
:1043E000A22A01EE901AF8EE611A40EE811A71EEDF
:1043F000800A62EE200A2AE001EE901A1168DFEDD1
:10440000372AF8EE611AC1F3080182EEA12A01EE03
:10441000901AF8EE611A40EE811A71EE800A62EE8F
:10442000200A14E001EE901A1168DFED2D2AF8EE53
:10443000611AC1F3080182EEA12A01EE901AF8EE8A
:10444000611A40EE811A71EE800A62EE200A11684C
:10445000C1F3462101EE101AB8EE411A31EE001AEE
:10446000C0EE811ABCEEE11A00E022E080ED001AF5
:104470001168C1F3064101EE101AB8EE411A31EE8F
:10448000001AC0EE811ABCEEE11A80ED011A116823
:10449000C1F3066101EE101AB8EE411A31EE000ABE
:1044A00080EE801ABCEEC10A80ED020A5DF8044B72
:1044B000704700210160416081605DF8044B7047E6
:1044C000284402584444025800000039404402582D
:1044D0000024744A004402580090D0030024744C15
:1044E00020BCBE4B2DE9F05F0025044600682E4637
:1044F000FD4FDFF8F88310F0006F1FD0606E58B1E9
:10450000B0F5801F0DD0B0F5001F0FD0B0F5401FE3
:1045100018BF01251ED010E0386840F40030386024
:1045200018E00221201D03F097F904E0022104F1B4
:10453000240003F033FA05000CD02E46208810F436
:10454000807F24D0606D05281FD2DFE800F00C11B9
:10455000161C1C00606ED8F8001021F440110843AE
:10456000C8F80000EAE7386840F4003038600AE034
:104570000021201D03F070F904E0002104F1240063
:1045800003F00CFA05467DB100E001252E46208897
:1045900010F4007F2BD0A06D802820D00DDC90B1CE
:1045A000402815D0012521E0606DD8F8001021F0D9
:1045B00007010843C8F80000E9E7C02818BFB0F5B4
:1045C000807FEFD111E0386840F4003038600CE0B3
:1045D00004F104004FF0000103F03EF904E0002173
:1045E00004F1240003F0DAF9054695B12E4620883F
:1045F000DFF8FC9210F4806F2FD0D4F8A400B0F54F
:10460000800F22D00EDCA0B1B0F5001F16D001251E
:1046100022E0A06DD8F8001021F4E0710843C8F83A
:104620000000E4E7B0F5C00F18BFB0F5000FEED101
:1046300011E0386840F4003038600CE004F1040008
:104640004FF0000103F008F904E0002104F1240018
:1046500003F0A4F9054685B12E46208810F4006FBA
:1046600030D0D4F8A800B0F1007F23D00FDCA8B17F
:10467000B0F1807F17D0012523E0D4F8A400D9F849
:10468000001021F460010843C9F80000E5E7B0F12B
:10469000407F18BFB0F1806FEDD111E0386840F471
:1046A000003038600CE004F104004FF0000103F02A
:1046B000D3F804E0002104F1240003F06FF905466B
:1046C0007DB12E46206810F0007F20D0A06CE0B1B4
:1046D000102810D0202813D0302818BF012514D05E
:1046E00014E0D4F8A800D9F8001021F0E0610843E4
:1046F000C9F80000E6E7386840F40030386004E0AC
:104700000221201D03F0A8F805467DB12E46208821
:1047100010F4805F2DD0E06DB0F5005F21D00DDC8E
:1047200098B1B0F5805F15D0012521E07148A16CEA
:10473000026822F0300211430160E8E7B0F5405F03
:1047400018BFB0F5804FEFD111E0386840F4003069
:1047500038600CE004F104004FF0000103F07CF835
:1047600004E0002104F1240003F018F9054695B196
:104770002E46208810F4005F2CD0206EB0F5403F0C
:1047800026D011DC20B3B0F5803F14D0B0F5003F47
:1047900018D001251DE0E16DD8F8000020F4E040BC
:1047A0000843C8F80000E4E7B0F5802F18BFB0F563
:1047B000A02FEED10CE004F104004FF0010103F052
:1047C0004BF804E0012104F1240003F0E7F805466A
:1047D0009DB12E46208810F4804F2DD0D4F8AC0027
:1047E000B0F1405F26D011DC20B3B0F1805F14D06F
:1047F000B0F1005F18D001251DE0206ED8F8001040
:1048000021F4E0210843C8F80000E3E7B0F1804F4D
:1048100018BFB0F1A04FEED10CE004F104004FF04E
:10482000010103F019F804E0012104F1240003F070
:10483000B5F805467DB12E46208810F4004F20D0F3
:10484000E06EE0B1B0F1805F0FD0B0F1005F18BF53
:1048500001250FD014E0D4F8AC10D9F8000020F0F6
:10486000E0400843C9F80000E6E7386840F400304B
:10487000386004E00121201D02F0EEFF05467DB105
:104880002E46206810F0807F1FD0606CD8B10128C0
:104890000FD0022812D0032818BF012513D013E02F
:1048A000E06ED8F8001021F040510843C8F800002D
:1048B000E7E7386840F40030386004E00221201D4A
:1048C00002F0CAFF054605B32E46206810F4800F9B
:1048D00032D0DFF824A0DAF8000040F48070CAF883
:1048E0000000FFF79BFA09E02C440258504402589C
:1048F000584402584C440258004802588346DAF89B
:10490000000010F4807F08D014E0F748616C026862
:1049100022F0030211430160D7E7FFF77FFAA0EB13
:104920000B00642801D9032505E0DAF8000010F433
:10493000807FF2D08DB12E462078DFF8B0A310F042
:10494000010F71D0A06F18286CD059DCA8B30828CB
:104950005BD0102860D0012565E0E548B4F8B020B0
:10496000016802F4407001F4407181420CD0E048CB
:104970000168026821F4407142F4803202600268EA
:1049800022F4803202600160D4F8B000B0F5807F7C
:1049900019D1FFF743FA8246D548016811F0020F9A
:1049A00008BF41F2883B0ED1FFF738FAA0EB0A00AE
:1049B000584503D903252E46BEE733E0CC480068AE
:1049C00010F0020FF0D0D4F8B0104FF440708843CC
:1049D000C8481CBF016821F47C5109D00160C4485B
:1049E000B4F8B0200168C2F30B0211430160A3E7E1
:1049F000C14A036802EA111123F47C521143EDE726
:104A0000202818BF2828A6D10CE004F104004FF09C
:104A1000010102F021FF04E0012104F1240002F071
:104A2000BDFF054665B12E46207810F0020F1FD05D
:104A3000606F06281AD2DFE800F0170C111717175D
:104A4000A06FDAF8001021F038010843CAF800001E
:104A5000EAE70121201D02F0FFFE04E0012104F13C
:104A6000240002F09BFF05467DB100E001252E46A3
:104A7000207810F0040F20D0D4F8900006281AD225
:104A8000DFE800F0170C11171717606FDAF8001045
:104A900021F007010843CAF80000E9E70121201DC1
:104AA00002F0DAFE04E0012104F1240002F076FFB6
:104AB0000546ADB100E001252E46207810F0200F0C
:104AC0002ED0D4F88C00B0F1405F27D012DC28B390
:104AD000B0F1805F15D0B0F1005F19D001251EE064
:104AE000D4F89000D9F8001021F007010843C9F864
:104AF0000000E2E7B0F1804F18BFB0F1A04FEDD158
:104B00000CE004F104004FF0000102F0A5FE04E007
:104B1000022104F1240002F041FF05469DB12E461A
:104B2000207810F0400F2ED0D4F89800B0F5406FE8
:104B300027D012DC28B3B0F5806F15D0B0F5006F28
:104B400019D001251EE0D4F88C00DAF8001021F00D
:104B5000E0410843CAF80000E2E7B0F5805F18BF03
:104B6000B0F5A05FEDD10CE004F104004FF00001BE
:104B700002F072FE04E0022104F1240002F00EFFB4
:104B800005469DB12E46207810F0800F2ED0D4F827
:104B90009C00B0F5C04F27D012DC28B3B0F5005F01
:104BA00015D0B0F5804F19D001251EE0D4F898102B
:104BB000D9F8000020F4E0500843C9F80000E2E70B
:104BC000B0F5004F18BFB0F5204FEDD10CE004F167
:104BD00004004FF0000102F03FFE04E0022104F166
:104BE000240002F0DBFE054655B12E46207810F079
:104BF000080F20D0D4F88000B0F5805F0AD011E013
:104C0000D4F89C00D9F8001021F460410843C9F899
:104C10000000EBE7022104F1240002F0BFFE0028AF
:104C200018BF0126D4F88000DAF8001021F44051B2
:104C30000843CAF80000207810F0100F15D0D4F8FF
:104C40009400B0F5807F07D1022104F1240002F026
:104C5000A5FE002818BF0126D4F89400D9F800104A
:104C600021F440710843C9F80000206810F4002FB7
:104C700018D0D4F8A00040B1B0F5803F0AD0B0F50C
:104C8000003F18BF01250BD00BE00021201D02F0D2
:104C9000E3FD04E0022104F1240002F07FFE05465A
:104CA00095B12E46206810F4802F2FD0D4F88400C0
:104CB000B0F5801F12D0B0F5001F1FD0B0F5401F17
:104CC00018BF012520D020E0D4F8A000D9F80010AA
:104CD00021F440310843C9F80000E3E7386840F4A4
:104CE0000030386010E000004C4402585444025830
:104CF0007044025810440258CFFFFF00012104F114
:104D0000240002F04BFE054665B12E46206810F4E3
:104D1000803F1DD0E06C78B1B0F5803F18BF012511
:104D20000FD014E0D4F88400DAF8001021F4401118
:104D30000843CAF80000E9E7386840F400303860FA
:104D400004E00221201D02F087FD0546EDB12E464C
:104D5000206810F0005F07D0022104F1240002F067
:104D60001DFE002818BF0126206810F4003F1BD04C
:104D7000E06FB8B1B0F5807F10D0B0F5007F1CBFF8
:104D8000B0F5407F01250DD00DE03848E16C026898
:104D900022F4803242EA01010160D9E7386840F428
:104DA00000303860F5B32E46206810F4801F08D01C
:104DB000206FD8F8001021F0004141EA0000C8F847
:104DC0000000206810F0805F08D02948D4F8B410A3
:104DD000026822F4804242EA01010160206810F476
:104DE000001F08D0A06ED8F8001021F0807141EAB1
:104DF0000000C8F80000206810F0804F0AD01C485E
:104E0000016821F4004101600168D4F8B82041EA4A
:104E100002010160206810F0004F09D01348216D95
:104E2000026800E018E022F0405242EA010101600D
:104E3000206810F4000F09D0D4F88800DAF80010C8
:104E400021F4400141EA0000CAF80000002E0CBF26
:104E500000200120BDE8F09FE06FDAF8001021F497
:104E600040710843CAF800009EE700004C44025815
:104E700010440258002804BF012070472DE9F05F5C
:104E8000DFF85C9204468A46D9F8000000F00F0073
:104E900050450DD2D9F8000020F00F0040EA0A007A
:104EA000C9F80000D9F8000000F00F0050457DD18E
:104EB00020788C4D10F0040F0AD02069296801F089
:104EC0007001884204D9296821F0700108432860E4
:104ED0002078854E10F0080F0AD06069316801F023
:104EE0007001884204D9316821F0700108433060B4
:104EF000207810F0100F0AD0A069316801F4E06149
:104F0000884204D9316821F4E06108433060207898
:104F100010F0200F0BD07548E169026802F07002B2
:104F2000914204D9026822F0700211430160207896
:104F300010F0020F0AD0E068296801F00F018842E2
:104F400004D9296821F00F0108432860207810F067
:104F5000010F45D06648A1682A6822F470621143A7
:104F600029606168022926D0032929D00068012917
:104F70002BD010F0040F56D05E4F386820F0070099
:104F800008433860FEF74AFF39688046606801F0E0
:104F90003801B1EBC00F18BF41F2883B20D000BFF1
:104FA000FEF73CFFA0EB0800584500E03BE010D9BD
:104FB0000320BDE8F09F006810F4003FDCD132E030
:104FC000006810F0007FD7D12DE010F4807FD3D19E
:104FD00029E06068396801F03801B1EBC00FDFD11A
:104FE000207810F0020F0AD0E068296801F00F0164
:104FF000814204D9296821F00F0108432860D9F8BB
:10500000000000F00F00504510D9D9F8000020F042
:105010000F0040EA0A00C9F80000D9F8000000F0CB
:105020000F00504502D00120BDE8F09F207810F01D
:10503000040F0AD02069296801F07001814204D967
:10504000296821F0700108432860207810F0080FCB
:105050000AD06069316801F07001814204D9316879
:1050600021F0700108433060207810F0100F0AD052
:10507000A069316801F4E061814204D9316821F40A
:10508000E06108433060207810F0200F0BD0174803
:10509000E169026802F070028A4204D9026822F0D3
:1050A00070021143016000F0E5F813492B682A688B
:1050B000C3F3032302F00F02CB5C895C03F01F02F1
:1050C00001F01F01D0400D4A20FA01F111600C4996
:1050D00008600C480068BDE8F05FFEF719BF0000EB
:1050E00000200052184402581C4402582044025820
:1050F00000440258104402587CB600083C000024CA
:105100003800002430000024DFF85CC03F2230B4B7
:105110000260164ADCF800C0131D0CF0070CC0F842
:1051200004C0DFF84CC01C1D156805F4706585606F
:10513000156805F00F05C560126802F07002026183
:105140001A6802F0700242611A6802F4E062826139
:10515000226802F07002C261DCF8000000F00F006B
:10516000086030BC704700001044025818440258D0
:105170000020005210B500F07DF80C4A0C490D4B90
:105180001468D2F800C0C4F303220CF00F0C8A5C40
:1051900011F80CC002F01F01074A20FA01F10CF0CF
:1051A0001F0021FA00F01860116010BD1844025869
:1051B0007CB600083C0000243800002410B500F044
:1051C00059F8104A1049114B1468D2F800C0C4F3C2
:1051D00003220CF00F0C8A5C11F80CC002F01F02C5
:1051E000D0400CF01F0220FA02F21A60084B18603F
:1051F00008480068C0F30210085C00F01F0022FAA3
:1052000000F010BD184402587CB600083C00002491
:10521000380000241C44025810B500F02BF8104A46
:105220001049114B1468D2F800C0C4F303220CF0EB
:105230000F0C8A5C11F80CC002F01F02D0400CF079
:105240001F0220FA02F21A60084B18600848006832
:10525000C0F30220085C00F01F0022FA00F010BD2D
:10526000184402587CB600083C0000243800002492
:105270001C4402585E4930B45E4809685E4B11F028
:1052800038020CD00111082A06D0102A02BF5B4850
:1052900030BC7047182A0ED030BC084670471968D9
:1052A00011F0200F04BF30BC7047196830BCC1F347
:1052B000C101C84070475249524C01F1040C0A68C0
:1052C0000968DCF80050246802F0030C05F00102C4
:1052D000C1F30511C4F3CC04002914FB02F200EE63
:1052E000102AF8EE400A02BF002030BC7047BCF123
:1052F000000F9FED451A454AB7EE000A1BD0DFEDBF
:10530000441ABCF1010F02D0BCF1020F4AD002EEE8
:10531000101A1068F8EE422AC0F3080081EEA22AA3
:1053200001EE900AF8EE611A40EE811A31EE800A21
:1053300022EE000A4BE0D3F800C01CF0200F1BD077
:105340001B6801EE901A1168C3F3C103F8EE612ADD
:10535000D84001EE900AC1F30800F8EE611A81EE20
:10536000A22A01EE900AF8EE611A40EE811A31EE9F
:10537000800A22EE000A2AE001EE901A1068DFEDA2
:10538000252AF8EE611AC0F3080082EEA12A01EE88
:10539000900AF8EE611A40EE811A31EE800A22EE90
:1053A000000A14E001EE901A1068DFED1B2AF8EEF7
:1053B000611AC0F3080082EEA12A01EE900AF8EE0D
:1053C000611A40EE811A31EE800A22EE000A10685E
:1053D00030BCC0F34620401C00EE900AF8EE600A94
:1053E00080EE201ABCEEC10A10EE100A70470000D1
:1053F000104402580090D0030044025840787D01C8
:1054000028440258344402580000003930440258FD
:105410000024744A0024744C20BCBE4B002804BFF6
:10542000012070472DE9F05F04460078DFF8D8834B
:10543000F64F10F0010FF64D58D0D8F8000039683B
:1054400000F03800102819D0182804BF01F003001C
:10545000022813D06068B0F5803F04BF286840F48C
:10546000803014D010B1B0F5A02F1BD0286820F4E4
:1054700080302860286820F4802008E0286810F434
:10548000003F33D06068002800F0AB822EE0286037
:105490006068D0B1FEF7C2FC0646286810F4003FF1
:1054A00008D023E0286840F480202860286840F471
:1054B0008030ECE7FEF7B2FC801B642800F2E38149
:1054C000286810F4003FF5D010E0FEF7A7FC064670
:1054D000286810F4003F09D0FEF7A0FC801B642868
:1054E00000F2D181286810F4003FF5D1207841F214
:1054F000030BC84E10F0020F67D0D8F8000010F070
:105500003801386814D0182908BF10F0030F0FD0E5
:10551000E068E8B3296821F0190141EA0000286039
:10552000FEF77CFC8146286810F0040F1CD026E0B2
:10553000286810F0040F03D0E068002800F05182C2
:10554000FEF766FC584508D8206940281ED031680F
:1055500021F47C3141EA00301FE0207C316821F0E9
:10556000FE4141EA006018E0FEF758FCA0EB09009C
:10557000022800F28881286810F0040FF4D0FEF7AA
:1055800047FC5845E9D820694028E0D1306800E060
:1055900005E020F47C3040F40030306015E02868ED
:1055A00020F001002860FEF739FC8146286810F0E1
:1055B000040F0AD0FEF732FCA0EB0900022800F22B
:1055C0006281286810F0040FF4D1207810F0100FD9
:1055D00069D0D8F80000DFF840A2396800F0380040
:1055E000082814D0182804BF01F0030001280ED0A9
:1055F000E0690028286843D040F080002860FEF76A
:105600000DFC8146286810F4807F27D030E02868A0
:1056100010F4807F1CBFE069802840F0E281FEF733
:10562000F7FB58450FD8206A202805D1306820F0B4
:10563000F84040F0804004E0316821F0F84141EA50
:10564000806030602FE094F82000DAF8001021F03C
:105650007C5141EA0060CAF8000024E0FEF7DEFB5E
:10566000A0EB090002287DD8286810F4807FF5D0CF
:10567000FEF7CEFB5845E6D8206A2028DCD1D5E7D6
:1056800020F080002860FEF7C9FB0646286810F469
:10569000807F08D0FEF7C2FB801B022862D82868F2
:1056A00010F4807FF6D1207810F0080F2ED05B4EDA
:1056B00060690028306814D040F001003060FEF7C7
:1056C000ADFB8146306810F0020F1FD1FEF7A6FB3C
:1056D000A0EB0900022845D8306810F0020FF5D081
:1056E00014E020F001003060FEF798FB814630683E
:1056F00010F0020F0AD000BFFEF790FBA0EB0900EC
:1057000002282FD8306810F0020FF5D1207810F061
:10571000200F2CD0A0690028286813D040F48050B6
:105720002860FEF77BFB0646286810F4005F1ED158
:10573000FEF774FB801B022814D8286810F4005F61
:10574000F6D014E020F480502860FEF767FB064690
:10575000286810F4005F0AD0FEF760FB801B022867
:1057600000D800E08FE0286810F4005FF4D12078C2
:1057700010F0040F6AD02A4E306840F48070306018
:10578000FEF74CFB8146306810F4807F0AD100BFE1
:10579000FEF744FBA0EB0900642874D8306810F4CD
:1057A000807FF5D0A0681F4E012804BF306840F00C
:1057B000010009D008B1052813D0306820F001009D
:1057C0003060306820F004003060A06841F2883A10
:1057D00050B3FEF723FB8146306810F0020F08D06B
:1057E00034E0306840F004003060306840F0010080
:1057F000EAE7FEF713FBA0EB0900504543D83068F9
:1058000010F0020FF5D021E010440258284402584D
:1058100000440258044402580C440258744402588C
:105820000048025870440258FFE7FEF7F7FA814635
:10583000306810F0020F09D0FEF7F0FAA0EB090073
:10584000504520D8306810F0020FF5D1606AE8B3F7
:10585000DFF89C91D8F8001001F0380118297DD0AC
:105860000228286820F0807028600FD0FEF7D6FA52
:105870000446286810F0007F28D000BFFEF7CEFA5B
:10588000001B02286BD90320BDE8F09FFEF7C6FA83
:105890000646286810F0007F09D000BFFEF7BEFA68
:1058A000801B0228EFD8286810F0007FF6D1E06A4C
:1058B0003A68A16A22F0F30222F4407242EA001030
:1058C000084338604FF4FE00010200E08CE094F8D9
:1058D000342094F83C30278E5602B4F838C05A1E53
:1058E0007F1EA6F50076ACF1010C06F47E46C7F3E8
:1058F0000803334300EA0C4001EA026143EA000274
:105900003C4811433C4AC9F80010016821F00101EC
:1059100001601168A36C6FF3CF0141EAC30111600C
:105920000268216C22F00C02114301600168626C74
:1059300021F0020111430160016841F480310160EE
:10594000016841F400310160016841F48021016087
:10595000016841F001010160286801E01AE013E0EC
:1059600040F080702860FEF759FA0446286810F06D
:10597000007F39D1FEF752FA001B022883D828682D
:1059800010F0007FF6D02FE0286810F0007F7FF441
:1059900075AF29E039680128D9F8000021D0A26A42
:1059A00001F0030393421CD1E26AC1F305118A425C
:1059B00017D1226BC0F30801521E914211D1616BC5
:1059C000C0F34622491E91420BD1A16BC0F306429F
:1059D000491E914205D1E16BC0F30660491E814228
:1059E00002D00120BDE8F09F0020BDE8F09F00003C
:1059F000304402582C4402583444025870477047CF
:105A00007047000090F83C20012A04BF0220704734
:105A1000F0B4214D4FF0010C80F83CC0022280F818
:105A20003D2002681D4C5368AA42966818BFA242E6
:105A300004D14F6823F4700347EA03030F6823F08F
:105A4000700347EA030353600268AA4218BFB2F129
:105A5000804F14D0A2F18043B3F580631CBFA2F144
:105A60008043B3F500630AD0A2F18043B3F54063ED
:105A70001EBFA242A2F18043B3F5C05304D18B688C
:105A800026F0800119439160002180F83DC080F824
:105A90003C100846F0BC7047000001400004014083
:105AA000002804BF0120704710B5044690F83D005F
:105AB00028B9002084F83C00204600F023F802209A
:105AC00084F83D002068211D02F04EFA012084F880
:105AD000480084F83E0084F83F0084F8400084F8D1
