:020000040800F2
:1000000038710024F90300082B520008294F00081A
:1000100029520008DB0600083160000800000000DB
:10002000000000000000000000000000390300088C
:10003000050A000800000000950300082555000887
:100040001304000813040008130400081304000834
:100050001304000813040008130400081304000824
:10006000130400081304000813040008DD06000848
:10007000E90600081304000813040008130400082C
:1000800013040008130400081304000813040008F4
:1000900013040008130400081304000813040008E4
:1000A00013040008130400081304000813040008D4
:1000B0000D5700081957000813040008130400081E
:1000C00013040008130400081304000813040008B4
:1000D00013040008195F0008130400081304000843
:1000E00013040008130400080000000013040008B3
:1000F0001304000813040008130400081304000884
:10010000130400081304000825570008130400080E
:100110001304000813040008130400081304000863
:100120001304000813040008130400081304000853
:100130001304000813040008130400081304000843
:1001400000000000000000000000000000000000AF
:100150001304000813040008130400081304000823
:100160001304000813040008130400081304000813
:100170001304000813040008130400080000000022
:1001800013040008130400081304000813040008F3
:1001900013040008130400081304000813040008E3
:1001A00013040008130400081304000813040008D3
:1001B00013040008130400081304000813040008C3
:1001C00013040008130400081304000813040008B3
:1001D00013040008130400081304000813040008A3
:1001E0001304000813040008130400081304000893
:1001F0001304000813040008130400081304000883
:100200001304000813040008130400081304000872
:100210001304000813040008130400081304000862
:100220001304000813040008130400080000000071
:100230001304000813040008000000001304000861
:100240001304000813040008130400081304000832
:100250001304000813040008130400081304000822
:100260001304000813040008130400081304000812
:100270001304000813040008130400080000000021
:100280001304000813040008130400080000000011
:10029000000000001304000800F002F800F03CF831
:1002A0000AA090E8000C82448344AAF10107DA45D1
:1002B00001D100F031F8AFF2090EBAE80F0013F0E7
:1002C000010F18BFFB1A43F0010318478C78000098
:1002D000AC780000103A24BF78C878C1FAD8520729
:1002E00024BF30C830C144BF04680C6070470000B0
:1002F0000023002400250026103A28BF78C1FBD82F
:10030000520728BF30C148BF0B6070471FB507F0C8
:10031000D5FB1FBD10B510BD00F0A6F91146FFF7C3
:10032000F5FF05F087FE00F0C4F903B4FFF7F2FF14
:1003300003BC00F0CBF900002C4B19680868B0E84A
:10034000F04F80F30988BFF36F8F4FF0000080F308
:10035000118870470000000008480068006880F3BA
:1003600008884FF0000080F3148862B661B6BFF3CE
:100370004F8FBFF36F8F00DF00BF00BF08ED00E0BD
:10038000DFF80C00016841F470010160704700BFA4
:1003900088ED00E0EFF30980BFF36F8F134B1A680D
:1003A0001EF0100F08BF20ED108A20E9F04F1060FA
:1003B00009B44FF0500080F31188BFF34F8FBFF3A3
:1003C0006F8F06F0C5FC4FF0000080F3118809BC68
:1003D00019680868B0E8F04F1EF0100F08BFB0ECC5
:1003E000108A80F30988BFF36F8F704720000024C4
:1003F000EFF305807047000009488047094800472F
:10040000FEE7FEE7FEE7FEE7FEE7FEE7FEE7FEE7C4
:10041000FEE7FEE704480549054A064B7047000021
:100420000156000899020008384F00243871002452
:10043000385100243851002453EA020C00F069803E
:100440002DE9F04B4FF00006002B1FBFB3FA83F5E8
:1004500003FA05F424FA05F65E4012BF1643B2FA19
:1004600082F502FA05F4C5F120051EBF22FA05FC4B
:1004700044EA0C04203556EA044C4FEA144418BFF1
:10048000641C4FF000084FF00009904271EB030C20
:1004900039D3002919BFB1FA81F701FA07F6B0FA8A
:1004A00080F700FA07F6C7F120071EBF20FA07FC05
:1004B00046EA0C062037B6FBF4FCA7EB0507103F15
:1004C00007F01F0BCBF120060CFA0BFB2CFA06F6FB
:1004D00044BFB3460026202FA4BF5E464FF0000B5A
:1004E0005BEA060C08BF4FF0010B19EB0B09ABFBE5
:1004F000027C48EB0608C01B06FB02CC0BFB03CCBE
:1005000071EB0C01C1E70B46024641464846BDE887
:10051000F08B13B54FF000004FF00001AFF30080F7
:10052000BDE81C407047032A40F2308010F0030CF5
:1005300000F0158011F8013BBCF1020F624498BF36
:1005400011F801CB00F8013B38BF11F8013BA2F1D3
:10055000040298BF00F801CB38BF00F8013B11F04E
:10056000030300F04F80083AC0F0088051F8043BC4
:10057000083A51F804CBA0E80810F5E7121D5CBF5B
:1005800051F8043B40F8043BAFF30080D20724BF8E
:1005900011F8013B11F801CB48BF11F8012B24BF22
:1005A00000F8013B00F801CB48BF00F8012B704771
:1005B0004FF0000200B5134694469646203922BFFC
:1005C000A0E80C50A0E80C50B1F12001BFF4F7AF47
:1005D000090728BFA0E80C5048BF0CC05DF804EB29
:1005E000890028BF40F8042B08BF704748BF20F897
:1005F000022B11F0804F18BF00F8012B7047704795
:100600007047704710B5203AC0F00B80B1E8185021
:10061000203AA0E81850B1E81850A0E81850BFF4EC
:10062000F5AF5FEA027C24BFB1E81850A0E818508B
:1006300044BF18C918C0BDE810405FEA827C24BFDF
:1006400051F8043B40F8043B08BF7047D20728BF6D
:1006500031F8023B48BF11F8012B28BF20F8023BBC
:1006600048BF00F8012B7047754600F02BF8AE46E6
:1006700005006946534620F00700854618B020B5AE
:10068000FFF7C8FEBDE820404FF000064FF000071E
:100690004FF000084FF0000B21F00701AC46ACE82A
:1006A000C009ACE8C009ACE8C009ACE8C0098D4697
:1006B000704710B50446AFF300802046BDE81040F7
:1006C000FFF733BE00487047D44E0024014918207C
:1006D000ABBEFEE7260002007047FEE7014800F0CF
:1006E00079BC000040230024014800F073BC0000E6
:1006F000B8230024244A016891421CBF234A914236
:100700002CD0234A91421CBF224A914226D0224A31
:1007100091421CBF214A914220D0214A91421CBFE4
:10072000204A91421AD0204A91421CBF1F4A91424E
:1007300014D01F4A91421CBF1E4A91420ED01E4A3D
:1007400091421CBF1D4A914208D01D4A91421FBFD1
:100750001C4A914221F0FF01816512D11A4ACBB2A5
:10076000A3F110036FF30901A2FB03324FEA121247
:10077000032A02F00703154AD25CC26588BF091D2F
:1007800081650846704700001000024028000240C2
:1007900040000240580002407000024088000240C1
:1007A000A0000240B80002401004024028040240A9
:1007B0004004024058040240700402408804024091
:1007C000A0040240B8040240ABAAAAAA007B000819
:1007D0002DE9F04F734ED0F800C0734FDFF8CC8195
:1007E000B445DFF8CC91DFF8CCA1846DDFF8C8B157
:1007F000724D18BFBC454DD0C44518BFCC4549D03B
:10080000D44518BFDC4545D0DFF8B4E1F44518BF46
:10081000AC453FD0DFF8ACE1F4451CBFDFF8A8E100
:10082000F44537D0DFF8A4E1F4451CBFDFF8A0E1C0
:10083000F4452FD0DFF89CE1F4451CBFDFF898E1C8
:10084000F44527D0DFF894E1F4451CBFDFF890E1D0
:10085000F4451FD0DFF88CE1F4451CBFDFF888E1D8
:10086000F44517D0DFF884E1F4451CBFDFF880E1E0
:10087000F4450FD0DFF87CE1F4451CBFDFF878E1E8
:10088000F44507D0DFF874E1F4451CBFDFF870E1F0
:10089000F4450CD1D0E919CECCF804E0D0F86CC006
:1008A000BCF1000F1CBFD0E91CCECCF804E0D0F89E
:1008B00000C0B44518BFBC4524D0C44518BFCC45C2
:1008C00020D0D44518BFDC451CD03D4EB44518BFE0
:1008D000AC4517D03B4DAC451CBF3B4DAC4511D092
:1008E0003A4DAC451CBF3A4DAC450BD0394DAC45EB
:1008F0001CBF394DAC4505D0384DAC451CBF384DFB
:10090000AC4524D190F85C504FF03F0C05F01F052A
:100910000CFA05FCC4F808C0D0F800C0DCF80040B0
:1009200024F48024CCF80040D0F800C0CCF8043087
:100930008368402B05D103689A600068C160BDE8F8
:10094000F08F036899600068C260BDE8F08F254DA4
:10095000AC451CBF244DAC4512D0244DAC451CBF4A
:10096000234DAC450CD0234DAC451CBF224DAC45AE
:1009700006D0224DAC451EBF214DAC45BDE8F08FE1
:1009800090F85C504FF0010C05F01F050CFA05FCC7
:10099000C4F804C0D0F800C0CCF804308368402B01
:1009A000CFD1C8E7100002402800024040000240BA
:1009B000580002407000024088000240B800024027
:1009C000A0000240100402402804024040040240FB
:1009D000580402407004024088040240A00402400F
:1009E000B8040240085402581C54025830540258AB
:1009F00044540258585402586C54025880540258B7
:100A000094540258704772B6FEE700002DE9F05F7B
:100A1000044601F08FFB002C834600F0D38094F84D
:100A20003500022806D080216165002084F834005A
:100A300000F0C8B8B3492068B34DB44E8842B44FF3
:100A4000DFF8D082DFF8D09218BFA84225D0B0429C
:100A500018BFB84221D0404518BF48451DD0AF4A05
:100A600090421CBFAE4A904217D0AE4A90421CBF83
:100A7000AD4A904211D0AD4A90421CBFAC4A904260
:100A80000BD0AC4A90421CBFAB4A904205D0AB4A57
:100A900090421CBFAA4A904209D1026822F01E026D
:100AA00002602068426922F08002426103E002682D
:100AB00022F00E020260D4F800A08A45504618BF0A
:100AC000A8423DD0B04218BFB84239D0404518BF07
:100AD000484535D0914A90421CBF914A90422FD050
:100AE000904A90421CBF904A904229D08F4A90422F
:100AF0001CBF8F4A904223D08E4A90421CBF8E4A20
:100B000090421DD08D4A90421CBF8D4A904217D012
:100B10008C4A90421CBF8C4A904211D08B4A904222
:100B20001CBF8B4A90420BD08A4A90421CBF8A4A13
:100B3000904205D0894A90421CBF894A924504D10F
:100B4000206E026822F4807202606E49206888423A
:100B500018BFA8421FD0B04218BFB8421BD04045B2
:100B600018BF484517D06D4988421CBF6C49884260
:100B700011D06C4988421CBF6B4988420BD06B492D
:100B800088421CBF6A49884205D06A4988421EBF14
:100B9000694988426949016821F001010160DAF878
:100BA000000010F0010F15D001F0C4FAA0EB0B000B
:100BB00005280AD9202262650020032184F8340028
:100BC00084F835100120BDE8F09FDAF8000010F03D
:100BD000010FE9D14B4901222068884218BFA84281
:100BE00025D0B04218BFB84221D0404518BF484573
:100BF0001DD04A4B98421CBF494B984217D0494BD5
:100C000098421CBF484B984211D0484B98421CBF99
:100C1000474B98420BD0474B98421CBF464B9842DB
:100C200005D0464B98421CBF454B98420AD194F8D8
:100C30005C304FF03F0CA06D03F01F030CFA03F380
:100C4000836007E094F85C30A06D03F01F0302FAA4
:100C500003F343602068884218BFA8423DD0B042E9
:100C600018BFB84239D0404518BF484535D02B4948
:100C700088421CBF2A4988422FD02A4988421CBF7B
:100C80002949884229D0294988421CBF28498842DD
:100C900023D0284988421CBF274988421DD02749B4
:100CA00088421CBF2649884217D0264988421CBF6B
:100CB0002549884211D0254988421CBF24498842D1
:100CC0000BD0244988421CBF2349884205D02349C0
:100CD00088421CBF224988420BD1D4E919014160E6
:100CE000E06E30B1016821F480710160D4E91C012B
:100CF00041604FF0000084F8340084F83520BDE8EE
:100D0000F09F000010000240280002404000024016
:100D1000580002407000024088000240A0000240DB
:100D2000B80002401004024028040240400402407F
:100D3000580402407004024088040240A0040240AB
:100D4000B8040240085402581C5402583054025847
:100D500044540258585402586C5402588054025853
:100D600094540258002804BF0120704790F83510B1
:100D7000022903D080214165012070472DE9F05FF1
:100D8000DFF8ECB101687B4A7B4B5945DFF8ECC1D9
:100D90007B4C7C4D7C4E7D4FDFF8F481DFF8F49185
:100DA000DFF8F4A118BF914225D0994218BF6145E0
:100DB00021D0A14218BFA9421DD0B1421CBFDFF80B
:100DC000DCE1714517D0DFF8D8E1714518BFB942B1
:100DD00011D0DFF8D0E171451CBFDFF8CCE17145DF
:100DE00009D0DFF8C8E1714518BF414503D0494536
:100DF00018BF514524D14FF0040E80F835E0594515
:100E000018BF914217D0994218BF614513D0A14233
:100E100018BFA9420FD0B1421CBF604881420AD01E
:100E20005F48814218BFB94205D05E4881421EBF6B
:100E30005D4881425D48086820F00100086094E048
:100E4000D1F800E0DFF828B12EF00E0EC1F800E076
:100E50000168594518BF91421CD0994218BF61459D
:100E600018D0A14218BFA94214D0B1421CBFDFF86C
:100E70002CB159450ED0DFF828B1594518BFB942F9
:100E800008D0DFF820B159451EBFDFF81CB1594525
:100E9000DFF818B1D1F800B02BF0010BC1F800B0A9
:100EA000DFF8CCE04FF0010B0168714518BF9142AB
:100EB00038D0994218BF614534D0A14218BFA94229
:100EC00030D0B1421CBF354A91422BD0344A9142B6
:100ED00018BFB94226D0334A91421CBF324A9142D0
:100EE00020D0324A914218BF41451BD0494518BF16
:100EF000514517D02E4A91421CBF2E4A914211D023
:100F00002D4A91421CBF2D4A91420BD02C4A91424E
:100F10001CBF2C4A914205D02B4A91421CBF2B4A40
:100F2000914218D1016E0A6822F480720A6090F82A
:100F30005C20816D02F01F020BFA02F24A60D0E9D8
:100F400019124A60C16E31B10A6822F480720A60D7
:100F5000D0E91C124A604FF00002016D80F8342085
:100F600080F835B0002918BF88470020BDE8F09F01
:100F70001000024028000240400002405800024099
:100F80007000024088000240A00002402804024095
:100F900088040240A0040240B8040240B8000240A5
:100FA0001004024040040240580402407004024011
:100FB000085402581C5402583054025844540258E1
:100FC000585402586C540258805402589454025891
:100FD000406D70472DE9F84F0446DFF8008400208B
:100FE000DFF8009400904FF41652FD48A56DFE4EB8
:100FF000FE4F01682068B1FBF2FBD5F800A0404528
:1010000029681CBFF74A90422BD0B04218BFB842A3
:1010100027D0F74A90421CBFF64A904221D0F64AA8
:1010200090421CBFF54A90421BD0F54A90421CBF2B
:10103000F44A904215D0F44A90421CBFF34A9042C1
:101040000FD0F34B98421CBFDFF8C8C3604508D0EF
:10105000DFF8C4E370451CBFDFF8C0E3704540F023
:10106000308294F85C204FF0080102F01F0201FA70
:1010700002F212EA0A0F41D0404518BF48452AD073
:10108000B04218BFB84226D0D94A90421CBFD94AB4
:10109000904220D0D84A90421CBFD84A90421AD0E1
:1010A000D74A90421CBFD74A904214D0D64A9042A9
:1010B0001CBFD64A90420ED0D54A90421CBFD54A9A
:1010C000904208D0D44A90421FBFD44A904202684E
:1010D00002F0080202D1026802F0040272B1026852
:1010E00022F00402026094F85C0000F01F0001FA94
:1010F00000F0A860606D40F00100606594F85C004D
:1011000000F01F014FF0010000FA01F111EA0A0F8F
:1011100036D02068404518BF484528D0B04218BF97
:10112000B84224D0B24A90421CBFB24A90421ED06C
:10113000B14A90421CBFB14A904218D0B04A904286
:101140001CBFB04A904212D0AF4A90421CBFAF4A77
:1011500090420CD0AE4A90421CBFAE4A904206D09C
:10116000AD4A90421EBFAD4A9042006808D1406926
:1011700010F0800F04D0A960606D40F0020060653F
:1011800094F85C0000F01F014FF0040000FA01F138
:1011900011EA0A0F36D02068404518BF484528D0CC
:1011A000B04218BFB84224D0914A90421CBF914A25
:1011B00090421ED0904A90421CBF904A904218D054
:1011C0008F4A90421CBF8F4A904212D08E4A904262
:1011D0001CBF8E4A90420CD08D4A90421CBF8D4A53
:1011E000904206D08C4A90421EBF8C4A90420068C2
:1011F00008D1006810F0020F04D0A960606D40F0C3
:101200000400606594F85C104FF0100001F01F01BD
:1012100000FA01F111EA0A0F4FD02068404518BFCB
:1012200048452AD0B04218BFB84226D0704A9042F2
:101230001CBF704A904220D06F4A90421CBF6F4A38
:1012400090421AD06E4A90421CBF6E4A904214D00F
:101250006D4A90421CBF6D4A90420ED06C4A90423B
:101260001CBF6C4A904208D06B4A90421FBF6B4A29
:101270009042006800F0040002D1006800F008000D
:10128000D8B1A9602068016811F4802F09D00068E6
:1012900010F4002F02D0A16C79B10CE0216C51B98F
:1012A0000BE0016811F4807F03D1016821F008018F
:1012B0000160216C09B12046884794F85C10202019
:1012C00001F01F0100FA01F111EA0A0F6ED0206847
:1012D000404518BF48452AD0B04218BFB84226D072
:1012E000434A90421CBF434A904220D0424A904217
:1012F0001CBF424A90421AD0414A90421CBF414A08
:10130000904214D0404A90421CBF404A90420ED0B6
:101310003F4A90421CBF3F4A904208D03E4A90420A
:101320001FBF3E4A9042006800F0020002D10068F0
:1013300000F01000D0B3A96094F8350004282068AC
:10134000016809D011F4802F34D0006810F4002F08
:101350002DD0E16B51B33DE021F016010160206812
:10136000416921F080014161206C002804BFA06C1C
:10137000002804D02068016821F00801016094F879
:101380005C304FF03F024FF000014FF0010003F0DE
:101390001F0302FA03F2AA6084F8341084F83500BF
:1013A000216D002940F08C81BDE8F88F14E0616C5C
:1013B00081B911E0016811F4807F09D1026800232E
:1013C000012122F01002026084F8343084F83510D4
:1013D000E16B09B120468847606D21E010000240B2
:1013E000180000242800024040000240580002403B
:1013F0007000024088000240A0000240B800024095
:1014000010040240280402404004024058040240F4
:101410007004024088040240A0040240B804024064
:10142000002808BFBDE8F88F606D10F0010F43D0B1
:101430002068042184F83510404518BF484521D064
:10144000B04218BFB8421DD0A04988421CBFA04975
:10145000884217D09F4988421CBF9F49884211D0BB
:101460009E4988421CBF9E4988420BD09D498842B4
:101470001CBF9D49884205D09C4988421EBF9C499B
:1014800088429C49016821F00101016020680099AF
:1014900001F101010091594503D8016811F0010FD4
:1014A000F5D1002184F83410006810F0010F14BF4A
:1014B0000320012084F83500E16C00293FD1BDE80C
:1014C000F88FDFF8349248451CBFDFF8309248456A
:1014D00018D0DFF82C9248451CBFDFF82892484509
:1014E00010D0DFF8249248451CBFDFF82092484511
:1014F00008D0DFF81C9248451EBFDFF81892484517
:10150000BDE8F88F94F85CA04FF0040BD0F8009081
:101510000AF01F0A0BFA0AFB1BEA010F18BF19F0A9
:10152000040F4BD019F4004FC5F804B00DD019F4D6
:10153000803F05D0216C002908BFBDE8F88FBFE0CF
:10154000A16C002976D1BDE8F88F19F0200F31D1B8
:10155000206840451CBF7049884227D0B04218BF60
:10156000B84223D0594988421CBF594988421DD0EE
:10157000584988421CBF5849884217D05749884269
:101580001CBF5749884211D05649884218BF904223
:101590000CD0984218BF604508D0564988421FBFFA
:1015A0005E498842016821F0040102D1016821F0FE
:1015B00008010160216CE9BBBDE8F88F4FF0020B18
:1015C0000BFA0AFB1BEA010F18BF19F0020F54D0E7
:1015D00019F4004FC5F804B00CD019F4803F05D0C1
:1015E000E16B002908BFBDE8F88F69E0616C09BBB9
:1015F000BDE8F88F19F0200F3BD1206840451CBF93
:101600004549884229D0B04218BFB84225D02F4959
:1016100088421CBF2E4988421FD02E4988421CBFD9
:101620002D49884219D02D4988421CBF2C49884237
:1016300013D000E044E02B49884218BF90420CD000
:10164000984218BF604508D02A4988421FBF3349D5
:101650008842016821F00A0102D1016821F01401D9
:1016600001604FF0000184F834104FF0010084F85D
:101670003500E16B21BBBDE8F88F4FF0080202FA9C
:101680000AF20A4214BF19F0080FBDE8F88F01688A
:1016900021F00E01016094F85C104FF0010001F0A0
:1016A0001F0100FA01F24FF000016A60606584F8E2
:1016B000341084F83500E16C002908BFBDE8F88FCC
:1016C000204601B0BDE8F04F08470000700002401E
:1016D00088000240A0000240B8000240100402400E
:1016E00028040240400402405804024070040240B2
:1016F00088040240A0040240085402581C540258B6
:101700003054025844540258585402586C540258E9
:10171000805402589454025828000240B8040240F1
:101720002DE9F84F044600F005FD002C834600F03B
:101730004982FE494FF0010620684FF00005FC4F3A
:10174000DFF8F0838842DFF8F093DFF8F0A31CBFE6
:10175000FB4988422AD0FB4988421CBFFA4988428B
:1017600024D0FA4988421CBFF94988421ED0F94961
:1017700088421CBFF849884218D0F84988421CBFEB
:10178000F749884212D0F74988421CBFF64988427F
:101790000CD0F64988421CBFF549884206D0F5496D
:1017A00088421CBFF449884240F0D980DF494FF09D
:1017B000020284F8345084F8352088421CBFE04986
:1017C000884223D0DF4988421CBFDF4988421DD0B0
:1017D000DE4988421CBFDE49884217D0DD49884275
:1017E0001CBFDD49884211D0DC4988421CBFDC495E
:1017F00088420BD0DB4988421CBFDB49884205D0B8
:10180000DA4988421EBFDA498842DA49016821F084
:10181000010101602068006810F0010F13D000BFC3
:1018200000F088FCA0EB0B00052807D9202161659A
:10183000032084F835000120BDE8F88F2068006897
:1018400010F0010FECD1D4E9021C2068D4E9042E79
:10185000009041EA0C01D4E9063CD4F820B042EAF9
:101860000E0200680A43C5491A43D4F824E042EA4C
:101870000C02084042EA0B01BEF1040F41EA0000ED
:1018800003D1D4E90B1211430843BD4909686FF332
:101890000F01B1F1005F11D36168A1F12902052A9E
:1018A00084BFA1F13F02032A06D9A1F14702012A10
:1018B00084BF4F39032901D840F480100099086093
:1018C0002368606A5969042821F0070140EA01028F
:1018D00039D1D4E90A100A4330B3D4F818C0BCF1A6
:1018E000000F0AD0BCF5005F14D000291CBF0129ED
:1018F000022921D003291CD025E019B1012905D0E6
:10190000022920D110F0807F1DD015E0B0F1C07FFA
:1019100019D111E081B1012907D002290CD0032986
:1019200008BFB0F1C07F07D00DE010F0807F03D179
:1019300009E010F0807F06D04FF04000606584F829
:10194000356000F03FB95A612046FEF7D3FE94F8A7
:101950005C203F2102F01F029140816051E08949E3
:10196000884218BFB8420FD0404518BF48450BD039
:1019700050451CBF8449884206D0844988421CBF18
:101980008349884240F0168184F834504FF00201B8
:1019900084F835100168A2686FF310110091402A95
:1019A00008BF102204D0802A0CBF4FF480420022CE
:1019B000D4E903CED4E9053142EADC02D4E907CB0D
:1019C00042EADE0E734A4EEAD30E734B4EEAD10161
:1019D00041EADC0141EA1B1C00994CEA010101606B
:1019E00020681044A3FB001000098000E065204639
:1019F000FEF780FE94F85C1001F01F0106FA01F179
:101A000041604A49206888421CBF4D4988423DD008
:101A10004C4988421CBF4C49884237D04B498842C8
:101A20001CBF4B49884231D04A4988421CBF4A49B1
:101A300088422BD0494988421CBF4949884225D059
:101A4000484988421CBF484988421FD047498842BC
:101A50001CBF4749884219D0464988421CBF4649A5
:101A6000884213D04749884218BFB8420ED040453B
:101A700018BF48450AD050451CBF4349884205D08D
:101A8000424988421CBF424988424DD13D4A90425A
:101A900018BFB8420ED0404518BF48450AD050453F
:101AA0001CBF3949884205D0384988421CBF384993
:101AB00088423AD1384BC0B2A0F108003749A3FBA5
:101AC0000030374B63664FEA101000F01F0301EB44
:101AD000800006FA03F1A1662066A068802808BF8E
:101AE00065602079216E0860D4E919014160606861
:101AF000411E07297DD8C1B24B1E072B7AD820681A
:101B0000904218BFB8420ED0404518BF48450AD091
:101B100050451CBF1C4A904205D01C4A90421CBF35
:101B20001B4A90426FD13DE07FE04FE01000024041
:101B30001C54025830540258445402585854025805
:101B4000280002404000024058000240700002405D
:101B500088000240A0000240B80002401004024089
:101B6000280402404004024058040240700402402D
:101B700088040240A0040240B80402403F8010FEE6
:101B80000010005C085402586C54025880540258EB
:101B900094540258F8ABFDA7CDCCCCCC00580258D9
:101BA000805802582548244A02EB8101C4E91B10E1
:101BB0002FE000BF4FF040014FF00300616584F853
:101BC000350000BF4FF00100BDE8F88F1C49C3B2DB
:101BD000A3F1100C1B4BA1FB0CC11844A8284FEA21
:101BE000111098BF0830184900F01F0301EB800066
:101BF00002E017E010E006E0144906FA03F3A366DA
:101C0000C4E9180169E71348114A02EB8101C4E9EC
:101C10001B1006FA03F06067E06E0560D4E91C0152
:101C2000416002E0E56625676567656584F83560B3
:101C30000020BDE8F88F0000FC58025840590258B7
:101C4000ABAAAAAAF0FBFDBF000802408008024030
:101C5000FC080240400902402DE9F84F04008E467E
:101C60004FF00000009004BF0120BDE8F88F94F809
:101C70003400012804BF0220BDE8F88F94F835C075
:101C80000120002184F83400BCF1010F07D084F852
:101C90003410C202009062650098BDE8F88FDFF84A
:101CA000F0C10225206884F835506045794D6165A2
:101CB000794E7A4FDFF8E881DFF8E891DFF8E8A1A4
:101CC000DFF8E8B118BFA8421DD0B04218BFB84233
:101CD00019D0404518BF484515D0504518BF584544
:101CE00011D0734988421CBF724988420BD0724997
:101CF00088421CBF7149884205D0714988421EBF85
:101D0000704988427049016821F001010160714603
:101D10002046FEF75DFD5E492068884218BFA84254
:101D200023D0B04218BFB8421FD0404518BF484525
:101D30001BD0504518BF584517D05D4A90421CBF74
:101D40005C4A904211D05C4A90421CBF5B4A904270
:101D50000BD05B4A90421CBF5A4A904205D05A4A67
:101D600090421CBF594A90420CD1026822F01E02D8
:101D700042F016020260206C88B12068026842F0CE
:101D800008020BE0026822F00E0242F00A02026032
:101D9000206C20B12068026842F0040202602068D2
:101DA000884218BFA8423BD0B04218BFB84237D0D3
:101DB000404518BF484533D0504518BF58452FD02F
:101DC0003B4A90421CBF3B4A904229D03A4A90423B
:101DD0001CBF3A4A904223D0394A90421CBF394A2C
:101DE00090421DD0384A90421CBF384A904217D0CA
:101DF000374A90421CBF374A904211D0364A90422F
:101E00001CBF364A90420BD0354A90421CBF354A1F
:101E1000904205D0344A90421CBF344A90420ED1C1
:101E2000206E026812F4803F03D0026842F4807290
:101E30000260E06E18B1026842F4807202602068AD
:101E4000884218BFA8421DD0B04218BFB84219D06E
:101E5000404518BF484515D0504518BF584511D0CA
:101E6000134988421CBF134988420BD0124988424B
:101E70001CBF1249884205D0114988421EBF114932
:101E800088421149016841F00101016004E7000046
:101E9000100002402800024040000240580002406A
:101EA0007000024088000240A0000240B8000240DA
:101EB000100402402804024040040240580402403A
:101EC0007004024088040240A0040240B8040240AA
:101ED000085402581C5402583054025844540258B2
:101EE000585402586C540258805402589454025862
:101EF0000B680022DFF81CC2002B08BF70472DE9D9
:101F0000F84F03254FF0010A0B680AFA02F6334036
:101F100000F0F8804C68012C18BF022C03D0112C63
:101F200018BF122C18D184684FEA4207D1F80C80F0
:101F300005FA07F924EA090408FA07F747EA04044E
:101F4000846044680F7924EA0604C7F3001707FA8F
:101F500002F646EA04044460C6684FEA4204D1F837
:101F6000088005FA04F726EA070608FA04F848EAA2
:101F70000606C6604E68022E18BF122E17D14FEA11
:101F8000D208D1F810E04FEA42764FF00F0B00EB89
:101F90008808D8F820904FEAD6660BFA06FB0EFAAE
:101FA00006F629EA0B0946EA0906C8F8206091F806
:101FB0000480066808F0030826EA070608FA04F415
:101FC00044EA060404604C6814F0805F7DD0524CF3
:101FD000266846F002062660246822F0030606F111
:101FE000B0464FF00F0804F0020400944FEA8274E8
:101FF000D6F808744FEA1474A0F1B04908FA04F84E
:10200000B9F5003927EA080708BF4FF0000848D0A3
:10201000A0F1B048B8F5013808BF4FF0010840D032
:10202000A0F1B048B8F5023808BF4FF0020838D028
:10203000A0F1B048B8F5033808BF4FF0030830D01E
:10204000A0F1B048B8F5043808BF4FF0040828D014
:10205000A0F1B048B8F5053808BF4FF0050820D00A
:10206000A0F1B048B8F5063808BF4FF0060818D000
:10207000A0F1B048B8F5073808BF4FF0070810D0F6
:10208000A0F1B048B8F5083808BF4FF0080808D0EC
:10209000A0F1B048B8F509380CBF4FF009084FF06F
:1020A0000A0808FA04F43C43C6F80844DCF8004087
:1020B0004E6824EA030416F4803F18BF1C43CCF892
:1020C0000040DCF804404E6800E01BE016F4003FDE
:1020D00024EA030418BF1C43CCF804404FF0B0447A
:1020E0004F68266817F4801F26EA030618BF1E43B0
:1020F00026604F68666817F4001F26EA030618BFBB
:102100001E4366600B68521CD3407FF4FDAEBDE8F1
:10211000F88F000080000058F4440258002A08BFDD
:10212000090481617047000001480068000C704795
:102130000010005C01488068704700000C0000241B
:102140000248816802781144816070470C000024C5
:10215000032010B500F0C4F801F088F90F4A1049C7
:1021600013681268C3F3032302F00F02CB5C895C8F
:1021700003F01F0201F01F01D0400A4A20FA01F1CA
:10218000116009490860002000F010F800281CBF09
:10219000012010BD00F052F8002010BD1844025874
:1021A000307B00081C0000241800002410B5102803
:1021B00004468AB02ED2002201461C2000F060F8AE
:1021C0001C2000F04DF8194804601948016841F0DE
:1021D00001010160006809A900F00100089068464B
:1021E00001F08EF80598C0B101F0E4F84000114A02
:1021F000002140F2E733B0FBF2F20F484FF0804C81
:10220000C0F800C0C0E90331521EC0E9012101F04D
:1022100043FD28B10AB0012010BD01F0CBF8E6E77C
:10222000054801F0E5FD0AB010BD000010000024D3
:10223000E844025840420F0030240024074882B08E
:10224000016841F002010160006800220F2100F0E6
:1022500002000090901E02B000F012B8F444025840
:102260000028B8BF7047410900F01F008A00012113
:1022700002F1E02201FA00F0C2F80001704700000C
:10228000164B30B41B68C3F30223C3F1070CBCF137
:10229000040F88BF4FF0040C1C1D072C34BF002313
:1022A000DB1E012404FA0CFC04FA03F5ACF1010472
:1022B0002140A5F1010C99400CEA020211430028CB
:1022C0004FEA0111B8BF00F00F0000F1E020ACBFF1
:1022D00080F8001480F8141D30BC70470CED00E04D
:1022E000074900F007004FF6FF030A681A4042EA68
:1022F000002040F0FD7040F08060086070470000F2
:102300000CED00E014490A6812F0040F07D10968C7
:1023100001F00701814214BF01200020704770B511
:102320000A6822F0070210430860FFF703FF0B4D15
:102330000446286810F4005F0CD100BFFFF7FAFED6
:10234000001BB0F57A7F01D9012070BD286810F418
:10235000005FF3D0002070BD0C48025804480258BA
:1023600010B501F003F805490968054AC1F30211E7
:10237000515C01F01F01C84010BD0000204402580C
:10238000307B000861494DF8044DDFF884C10B1D16
:102390000A6809681C68DCF800C002F00303C1F396
:1023A0000531C4F30012CCF3CC0C00291CFB02F263
:1023B00000EE102AF8EE400A7DD09FED561A564ADC
:1023C000B7EE000ACBB1DFED551A012B01D0022B7D
:1023D0004ED002EE101A1168F8EE422AC1F308013D
:1023E00081EEA22A01EE901AF8EE611A40EE811AEF
:1023F00071EE800A62EE200A4FE0494BD3F800C02C
:102400001CF0200F1ED0DFF81CC11B6801EE901AD3
:10241000C3F3C1011368F8EE612A2CFA01F101EE51
:10242000901AC3F30801F8EE611A81EEA22A01EEB8
:10243000901AF8EE611A40EE811A71EE800A62EE8F
:10244000200A2AE001EE901A1168DFED372AF8EE33
:10245000611AC1F3080182EEA12A01EE901AF8EE8A
:10246000611A40EE811A71EE800A62EE200A14E0D1
:1024700001EE901A1168DFED2D2AF8EE611AC1F312
:10248000080182EEA12A01EE901AF8EE611A40EEE0
:10249000811A71EE800A62EE200A1168C1F34621AA
:1024A00001EE101AB8EE411A31EE001AC0EE811A90
:1024B000BCEEE11A00E022E080ED001A1168C1F3E1
:1024C000064101EE101AB8EE411A31EE001AC0EEC4
:1024D000811ABCEEE11A80ED011A1168C1F30661A0
:1024E00001EE101AB8EE411A31EE000A80EE801AA1
:1024F000BCEEC10A80ED020A5DF8044B7047002172
:102500000160416081605DF8044B704728440258C7
:102510003C44025800000039384402580024744AF0
:10252000004402580090D0030024744C20BCBE4BE1
:1025300061494DF8044DDFF884C10B1D0A68096834
:102540001C68DCF800C002F00303C1F30551C4F3BA
:102550000022CCF3CC0C00291CFB02F200EE102A66
:10256000F8EE400A7DD09FED561A564AB7EE000AA3
:10257000CBB1DFED551A012B01D0022B4ED002EE6C
:10258000101A1168F8EE422AC1F3080181EEA22A5E
:1025900001EE901AF8EE611A40EE811A71EE800A8F
:1025A00062EE200A4FE0494BD3F800C01CF0200F28
:1025B0001ED0DFF81CC11B6801EE901AC3F3C101E5
:1025C0001368F8EE612A2CFA01F101EE901AC3F3B8
:1025D0000801F8EE611A81EEA22A01EE901AF8EED7
:1025E000611A40EE811A71EE800A62EE200A2AE03A
:1025F00001EE901A1168DFED372AF8EE611AC1F387
:10260000080182EEA12A01EE901AF8EE611A40EE5E
:10261000811A71EE800A62EE200A14E001EE901A2F
:102620001168DFED2D2AF8EE611AC1F3080182EE80
:10263000A12A01EE901AF8EE611A40EE811A71EEAD
:10264000800A62EE200A1168C1F3462101EE101AD9
:10265000B8EE411A31EE001AC0EE811ABCEEE11A52
:1026600000E022E080ED001A1168C1F3064101EE9E
:10267000101AB8EE411A31EE001AC0EE811ABCEE03
:10268000E11A80ED011A1168C1F3066101EE101A1A
:10269000B8EE411A31EE000A80EE801ABCEEC10A93
:1026A00080ED020A5DF8044B704700210160416033
:1026B00081605DF8044B7047284402584444025836
:1026C00000000039404402580024744A0044025873
:1026D0000090D0030024744C20BCBE4B2DE9F05F69
:1026E0000025044600682E46FD4FDFF8F88310F001
:1026F000006F1FD0606E58B1B0F5801F0DD0B0F5DF
:10270000001F0FD0B0F5401F18BF01251ED010E0EC
:10271000386840F40030386018E00221201D02F0D3
:1027200085FD04E0022104F1240002F021FE0500F1
:102730000CD02E46208810F4807F24D0606D0528B0
:102740001FD2DFE800F00C11161C1C00606ED8F8D8
:10275000001021F440110843C8F80000EAE7386887
:1027600040F4003038600AE00021201D02F05EFDD8
:1027700004E0002104F1240002F0FAFD05467DB1D9
:1027800000E001252E46208810F4007F2BD0A06D9C
:10279000802820D00DDC90B1402815D0012521E003
:1027A000606DD8F8001021F007010843C8F8000058
:1027B000E9E7C02818BFB0F5807FEFD111E0386895
:1027C00040F4003038600CE004F104004FF00001E8
:1027D00002F02CFD04E0002104F1240002F0C8FD09
:1027E000054695B12E462088DFF8FC9210F4806FE4
:1027F0002FD0D4F8A400B0F5800F22D00EDCA0B109
:10280000B0F5001F16D0012522E0A06DD8F8001009
:1028100021F4E0710843C8F80000E4E7B0F5C00F08
:1028200018BFB0F5000FEED111E0386840F4003069
:1028300038600CE004F104004FF0000102F0F6FCF7
:1028400004E0002104F1240002F092FD054685B168
:102850002E46208810F4006F30D0D4F8A800B0F1D4
:10286000007F23D00FDCA8B1B0F1807F17D0012505
:1028700023E0D4F8A400D9F8001021F46001084343
:10288000C9F80000E5E7B0F1407F18BFB0F1806FF4
:10289000EDD111E0386840F4003038600CE004F10C
:1028A00004004FF0000102F0C1FC04E0002104F13B
:1028B000240002F05DFD05467DB12E46206810F033
:1028C000007F20D0A06CE0B1102810D0202813D0B9
:1028D000302818BF012514D014E0D4F8A800D9F886
:1028E000001021F0E0610843C9F80000E6E738680D
:1028F00040F40030386004E00221201D02F096FC14
:1029000005467DB12E46208810F4805F2DD0E06D05
:10291000B0F5005F21D00DDC98B1B0F5805F15D027
:10292000012521E07148A16C026822F030021143B8
:102930000160E8E7B0F5405F18BFB0F5804FEFD118
:1029400011E0386840F4003038600CE004F1040015
:102950004FF0000102F06AFC04E0002104F12400C1
:1029600002F006FD054695B12E46208810F4005F62
:102970002CD0206EB0F5403F26D011DC20B3B0F54E
:10298000803F14D0B0F5003F18D001251DE0E16D67
:10299000D8F8000020F4E0400843C8F80000E4E75D
:1029A000B0F5802F18BFB0F5A02FEED10CE004F1E8
:1029B00004004FF0010102F039FC04E0012104F1B0
:1029C000240002F0D5FC05469DB12E46208810F467
:1029D000804F2DD0D4F8AC00B0F1405F26D011DC90
:1029E00020B3B0F1805F14D0B0F1005F18D00125A2
:1029F0001DE0206ED8F8001021F4E0210843C8F84B
:102A00000000E3E7B0F1804F18BFB0F1A04FEED166
:102A10000CE004F104004FF0010102F007FC04E0B7
:102A2000012104F1240002F0A3FC05467DB12E46ED
:102A3000208810F4004F20D0E06EE0B1B0F1805F4C
:102A40000FD0B0F1005F18BF01250FD014E0D4F80B
:102A5000AC10D9F8000020F0E0400843C9F80000AD
:102A6000E6E7386840F40030386004E00121201DBA
:102A700002F0DCFB05467DB12E46206810F0807F19
:102A80001FD0606CD8B101280FD0022812D00328C3
:102A900018BF012513D013E0E06ED8F8001021F024
:102AA00040510843C8F80000E7E7386840F40030B8
:102AB000386004E00221201D02F0B8FB054605B392
:102AC0002E46206810F4800F32D0DFF824A0DAF808
:102AD000000040F48070CAF80000FFF72BFB09E00B
:102AE0002C44025850440258584402584C4402584E
:102AF000004802588346DAF8000010F4807F08D0BE
:102B000014E0F748616C026822F00302114301608F
:102B1000D7E7FFF70FFBA0EB0B00642801D90325D3
:102B200005E0DAF8000010F4807FF2D08DB12E4677
:102B30002078DFF8B0A310F0010F71D0A06F182833
:102B40006CD059DCA8B308285BD0102860D00125D0
:102B500065E0E548B4F8B020016802F4407001F483
:102B6000407181420CD0E0480168026821F4407154
:102B700042F480320260026822F480320260016016
:102B8000D4F8B000B0F5807F19D1FFF7D3FA8246B0
:102B9000D548016811F0020F08BF41F2883B0ED101
:102BA000FFF7C8FAA0EB0A00584503D903252E46C3
:102BB000BEE733E0CC48006810F0020FF0D0D4F844
:102BC000B0104FF440708843C8481CBF016821F41E
:102BD0007C5109D00160C448B4F8B0200168C2F348
:102BE0000B0211430160A3E7C14A036802EA111115
:102BF00023F47C521143EDE7202818BF2828A6D1E2
:102C00000CE004F104004FF0010102F00FFB04E0BE
:102C1000012104F1240002F0ABFB054665B12E460C
:102C2000207810F0020F1FD0606F06281AD2DFE85C
:102C300000F0170C11171717A06FDAF8001021F029
:102C400038010843CAF80000EAE70121201D02F01C
:102C5000EDFA04E0012104F1240002F089FB0546AD
:102C60007DB100E001252E46207810F0040F20D021
:102C7000D4F8900006281AD2DFE800F0170C1117DC
:102C80001717606FDAF8001021F007010843CAF83F
:102C90000000E9E70121201D02F0C8FA04E001214B
:102CA00004F1240002F064FB0546ADB100E001250B
:102CB0002E46207810F0200F2ED0D4F88C00B0F1E2
:102CC000405F27D012DC28B3B0F1805F15D0B0F19F
:102CD000005F19D001251EE0D4F89000D9F800104B
:102CE00021F007010843C9F80000E2E7B0F1804F86
:102CF00018BFB0F1A04FEDD10CE004F104004FF08B
:102D0000000102F093FA04E0022104F1240002F031
:102D10002FFB05469DB12E46207810F0400F2ED097
:102D2000D4F89800B0F5406F27D012DC28B3B0F586
:102D3000806F15D0B0F5006F19D001251EE0D4F8D2
:102D40008C00DAF8001021F0E0410843CAF80000D6
:102D5000E2E7B0F5805F18BFB0F5A05FEDD10CE001
:102D600004F104004FF0000102F060FA04E00221D7
:102D700004F1240002F0FCFA05469DB12E462078AD
:102D800010F0800F2ED0D4F89C00B0F5C04F27D0A3
:102D900012DC28B3B0F5005F15D0B0F5804F19D024
:102DA00001251EE0D4F89810D9F8000020F4E05076
:102DB0000843C9F80000E2E7B0F5004F18BFB0F5CE
:102DC000204FEDD10CE004F104004FF0000102F0BF
:102DD0002DFA04E0022104F1240002F0C9FA0546AC
:102DE00055B12E46207810F0080F20D0D4F880007E
:102DF000B0F5805F0AD011E0D4F89C00D9F800103B
:102E000021F460410843C9F80000EBE7022104F116
:102E1000240002F0ADFA002818BF0126D4F8800083
:102E2000DAF8001021F440510843CAF80000207875
:102E300010F0100F15D0D4F89400B0F5807F07D1B2
:102E4000022104F1240002F093FA002818BF0126A1
:102E5000D4F89400D9F8001021F440710843C9F85F
:102E60000000206810F4002F18D0D4F8A00040B162
:102E7000B0F5803F0AD0B0F5003F18BF01250BD058
:102E80000BE00021201D02F0D1F904E0022104F141
:102E9000240002F06DFA054695B12E46206810F424
:102EA000802F2FD0D4F88400B0F5801F12D0B0F559
:102EB000001F1FD0B0F5401F18BF012520D020E013
:102EC000D4F8A000D9F8001021F440310843C9F823
:102ED0000000E3E7386840F40030386010E000009C
:102EE0004C4402585444025870440258104402584A
:102EF000CFFFFF00012104F1240002F039FA05465A
:102F000065B12E46206810F4803F1DD0E06C78B18A
:102F1000B0F5803F18BF01250FD014E0D4F884002D
:102F2000DAF8001021F440110843CAF80000E9E77C
:102F3000386840F40030386004E00221201D02F0BF
:102F400075F90546EDB12E46206810F0005F07D0F8
:102F5000022104F1240002F00BFA002818BF012618
:102F6000206810F4003F1BD0E06FB8B1B0F5807F4F
:102F700010D0B0F5007F1CBFB0F5407F01250DD00B
:102F80000DE03848E16C026822F4803242EA010127
:102F90000160D9E7386840F400303860F5B32E4658
:102FA000206810F4801F08D0206FD8F8001021F09E
:102FB000004141EA0000C8F80000206810F0805F7E
:102FC00008D02948D4F8B410026822F4804242EABA
:102FD00001010160206810F4001F08D0A06ED8F82D
:102FE000001021F0807141EA0000C8F8000020685C
:102FF00010F0804F0AD01C48016821F400410160A4
:103000000168D4F8B82041EA02010160206810F09C
:10301000004F09D01348216D026800E018E022F04B
:10302000405242EA01010160206810F4000F09D00B
:10303000D4F88800DAF8001021F4400141EA0000D9
:10304000CAF80000002E0CBF00200120BDE8F09F50
:10305000E06FDAF8001021F440710843CAF800006C
:103060009EE700004C44025810440258002804BF58
:10307000012070472DE9F05FDFF85C9204468A4634
:10308000D9F8000000F00F0050450DD2D9F800002B
:1030900020F00F0040EA0A00C9F80000D9F800004B
:1030A00000F00F0050457DD120788C4D10F0040FBA
:1030B0000AD02069296801F07001884204D9296882
:1030C00021F07001084328602078854E10F0080F29
:1030D0000AD06069316801F07001884204D9316812
:1030E00021F0700108433060207810F0100F0AD0F2
:1030F000A069316801F4E061884204D9316821F4A3
:10310000E06108433060207810F0200F0BD0754844
:10311000E169026802F07002914204D9026822F06B
:10312000700211430160207810F0020F0AD0E068AD
:10313000296801F00F01884204D9296821F00F01A4
:1031400008432860207810F0010F45D06648A16838
:103150002A6822F47062114329606168022926D02E
:10316000032929D0006801292BD010F0040F56D074
:103170005E4F386820F0070008433860FEF7DAFF3A
:1031800039688046606801F03801B1EBC00F18BFA4
:1031900041F2883B20D000BFFEF7CCFFA0EB080037
:1031A000584500E03BE010D90320BDE8F09F0068DF
:1031B00010F4003FDCD132E0006810F0007FD7D17E
:1031C0002DE010F4807FD3D129E06068396801F0E8
:1031D0003801B1EBC00FDFD1207810F0020F0AD018
:1031E000E068296801F00F01814204D9296821F0C3
:1031F0000F0108432860D9F8000000F00F00504587
:1032000010D9D9F8000020F00F0040EA0A00C9F8F0
:103210000000D9F8000000F00F00504502D0012056
:10322000BDE8F09F207810F0040F0AD020692968CB
:1032300001F07001814204D9296821F0700108432E
:103240002860207810F0080F0AD06069316801F01A
:103250007001814204D9316821F070010843306067
:10326000207810F0100F0AD0A069316801F4E061F5
:10327000814204D9316821F4E0610843306020784C
:1032800010F0200F0BD01748E169026802F07002BD
:103290008A4204D9026822F070021143016000F0F2
:1032A000E5F813492B682A68C3F3032302F00F02E1
:1032B000CB5C895C03F01F0201F01F01D0400D4A76
:1032C00020FA01F111600C4908600C480068BDE863
:1032D000F05FFEF76BBF0000002000521844025858
:1032E0001C4402582044025800440258104402581A
:1032F000307B00081C00002418000024100000246B
:10330000DFF85CC03F2230B40260164ADCF800C02F
:10331000131D0CF0070CC0F804C0DFF84CC01C1DD6
:10332000156805F470658560156805F00F05C560C2
:10333000126802F0700202611A6802F070024261C3
:103340001A6802F4E0628261226802F07002C261CF
:10335000DCF8000000F00F00086030BC704700008F
:1033600010440258184402580020005210B500F0D2
:103370007DF80C4A0C490D4B1468D2F800C0C4F318
:1033800003220CF00F0C8A5C11F80CC002F01F0134
:10339000074A20FA01F10CF01F0021FA00F0186032
:1033A000116010BD18440258307B00081C00002436
:1033B0001800002410B500F059F8104A1049114BBC
:1033C0001468D2F800C0C4F303220CF00F0C8A5C1E
:1033D00011F80CC002F01F02D0400CF01F0220FABE
:1033E00002F21A60084B186008480068C0F3021027
:1033F000085C00F01F0022FA00F010BD18440258CB
:10340000307B00081C000024180000241C440258D3
:1034100010B500F02BF8104A1049114B1468D2F87F
:1034200000C0C4F303220CF00F0C8A5C11F80CC02E
:1034300002F01F02D0400CF01F0220FA02F21A60C4
:10344000084B186008480068C0F30220085C00F0D0
:103450001F0022FA00F010BD18440258307B00080B
:103460001C000024180000241C4402585E4930B49B
:103470005E4809685E4B11F038020CD00111082A31
:1034800006D0102A02BF5B4830BC7047182A0ED005
:1034900030BC08467047196811F0200F04BF30BCDB
:1034A0007047196830BCC1F3C101C8407047524928
:1034B000524C01F1040C0A680968DCF800502468D9
:1034C00002F0030C05F00102C1F30511C4F3CC04B2
:1034D000002914FB02F200EE102AF8EE400A02BFA7
:1034E000002030BC7047BCF1000F9FED451A454AE3
:1034F000B7EE000A1BD0DFED441ABCF1010F02D079
:10350000BCF1020F4AD002EE101A1068F8EE422AFF
:10351000C0F3080081EEA22A01EE900AF8EE611ACB
:1035200040EE811A31EE800A22EE000A4BE0D3F819
:1035300000C01CF0200F1BD01B6801EE901A116810
:10354000C3F3C103F8EE612AD84001EE900AC1F33B
:103550000800F8EE611A81EEA22A01EE900AF8EE58
:10356000611A40EE811A31EE800A22EE000A2AE04A
:1035700001EE901A1068DFED252AF8EE611AC0F30B
:10358000080082EEA12A01EE900AF8EE611A40EEE0
:10359000811A31EE800A22EE000A14E001EE901A40
:1035A0001068DFED1B2AF8EE611AC0F3080082EE06
:1035B000A12A01EE900AF8EE611A40EE811A31EE6E
:1035C000800A22EE000A106830BCC0F34620401C7E
:1035D00000EE900AF8EE600A80EE201ABCEEC10AF6
:1035E00010EE100A70470000104402580090D003FB
:1035F0000044025840787D0128440258344402585F
:1036000000000039304402580024744A0024744CED
:1036100020BCBE4B002804BF012070472DE9F05F9D
:1036200004460078DFF8D883F64F10F0010FF64D0E
:1036300058D0D8F80000396800F03800102819D0A8
:10364000182804BF01F00300022813D06068B0F509
:10365000803F04BF286840F4803014D010B1B0F52A
:10366000A02F1BD0286820F480302860286820F420
:10367000802008E0286810F4003F33D060680028FC
:1036800000F0AB822EE028606068D0B1FEF752FDFA
:103690000646286810F4003F08D023E0286840F46C
:1036A00080202860286840F48030ECE7FEF742FD77
:1036B000801B642800F2E381286810F4003FF5D0F5
:1036C00010E0FEF737FD0646286810F4003F09D0E9
:1036D000FEF730FD801B642800F2D181286810F4C9
:1036E000003FF5D1207841F2030BC84E10F0020FD5
:1036F00067D0D8F8000010F03801386814D01829C5
:1037000008BF10F0030F0FD0E068E8B3296821F07C
:10371000190141EA00002860FEF70CFD8146286887
:1037200010F0040F1CD026E0286810F0040F03D01E
:10373000E068002800F05182FEF7F6FC584508D8F2
:10374000206940281ED0316821F47C3141EA0030E4
:103750001FE0207C316821F0FE4141EA006018E062
:10376000FEF7E8FCA0EB0900022800F28881286837
:1037700010F0040FF4D0FEF7D7FC5845E9D82069C3
:103780004028E0D1306800E005E020F47C3040F4CF
:103790000030306015E0286820F001002860FEF756
:1037A000C9FC8146286810F0040F0AD0FEF7C2FC5D
:1037B000A0EB0900022800F26281286810F0040FD3
:1037C000F4D1207810F0100F69D0D8F80000DFF89D
:1037D00040A2396800F03800082814D0182804BF27
:1037E00001F0030001280ED0E0690028286843D0CA
:1037F00040F080002860FEF79DFC8146286810F4A8
:10380000807F27D030E0286810F4807F1CBFE069FB
:10381000802840F0E281FEF787FC58450FD8206AE7
:10382000202805D1306820F0F84040F0804004E0C6
:10383000316821F0F84141EA806030602FE094F86F
:103840002000DAF8001021F07C5141EA0060CAF84B
:10385000000024E0FEF76EFCA0EB090002287DD8F2
:10386000286810F4807FF5D0FEF75EFC5845E6D856
:10387000206A2028DCD1D5E720F080002860FEF700
:1038800059FC0646286810F4807F08D0FEF752FCE9
:10389000801B022862D8286810F4807FF6D1207837
:1038A00010F0080F2ED05B4E60690028306814D0ED
:1038B00040F001003060FEF73DFC8146306810F0BA
:1038C000020F1FD1FEF736FCA0EB0900022845D8F5
:1038D000306810F0020FF5D014E020F001003060E5
:1038E000FEF728FC8146306810F0020F0AD000BFB6
:1038F000FEF720FCA0EB090002282FD8306810F05A
:10390000020FF5D1207810F0200F2CD0A0690028EC
:10391000286813D040F480502860FEF70BFC064660
:10392000286810F4005F1ED1FEF704FC801B0228FB
:1039300014D8286810F4005FF6D014E020F480500A
:103940002860FEF7F7FB0646286810F4005F0AD0EF
:10395000FEF7F0FB801B022800D800E08FE028680B
:1039600010F4005FF4D1207810F0040F6AD02A4ED2
:10397000306840F480703060FEF7DCFB81463068D0
:1039800010F4807F0AD100BFFEF7D4FBA0EB090042
:10399000642874D8306810F4807FF5D0A0681F4E7A
:1039A000012804BF306840F0010009D008B10528A3
:1039B00013D0306820F001003060306820F004003F
:1039C0003060A06841F2883A50B3FEF7B3FB8146FD
:1039D000306810F0020F08D034E0306840F0040086
:1039E0003060306840F00100EAE7FEF7A3FBA0EB8F
:1039F0000900504543D8306810F0020FF5D021E09F
:103A00001044025828440258004402580444025802
:103A10000C4402587444025800480258704402583A
:103A2000FFE7FEF787FB8146306810F0020F09D0F0
:103A3000FEF780FBA0EB0900504520D8306810F05D
:103A4000020FF5D1606AE8B3DFF89C91D8F8001056
:103A500001F0380118297DD00228286820F08070F4
:103A600028600FD0FEF766FB0446286810F0007F40
:103A700028D000BFFEF75EFB001B02286BD9032095
:103A8000BDE8F09FFEF756FB0646286810F0007F61
:103A900009D000BFFEF74EFB801B0228EFD8286834
:103AA00010F0007FF6D1E06A3A68A16A22F0F302D2
:103AB00022F4407242EA0010084338604FF4FE00DE
:103AC000010200E08CE094F8342094F83C30278E1A
:103AD0005602B4F838C05A1E7F1EA6F50076ACF127
:103AE000010C06F47E46C7F30803334300EA0C409A
:103AF00001EA026143EA00023C4811433C4AC9F82A
:103B00000010016821F0010101601168A36C6FF3DE
:103B1000CF0141EAC30111600268216C22F00C025E
:103B2000114301600168626C21F0020111430160E0
:103B3000016841F480310160016841F400310160A5
:103B4000016841F480210160016841F001010160D8
:103B5000286801E01AE013E040F080702860FEF76A
:103B6000E9FA0446286810F0007F39D1FEF7E2FA3E
:103B7000001B022883D8286810F0007FF6D02FE0C1
:103B8000286810F0007F7FF475AF29E039680128BC
:103B9000D9F8000021D0A26A01F0030393421CD19E
:103BA000E26AC1F305118A4217D1226BC0F3080102
:103BB000521E914211D1616BC0F34622491E9142BF
:103BC0000BD1A16BC0F30642491E914205D1E16BB6
:103BD000C0F30660491E814202D00120BDE8F09F7B
:103BE0000020BDE8F09F0000304402582C440258E9
:103BF00034440258704770477047000090F83C20EA
:103C0000012A04BF02207047F0B4214D4FF0010C8F
:103C100080F83CC0022280F83D2002681D4C5368A9
:103C2000AA42966818BFA24204D14F6823F47003D9
:103C300047EA03030F6823F0700347EA0303536066
:103C40000268AA4218BFB2F1804F14D0A2F180439B
:103C5000B3F580631CBFA2F18043B3F500630AD0C3
:103C6000A2F18043B3F540631EBFA242A2F180439C
:103C7000B3F5C05304D18B6826F0800119439160DD
:103C8000002180F83DC080F83C100846F0BC704729
:103C90000000014000040140002804BF01207047DB
:103CA00010B5044690F83D0028B9002084F83C0087
:103CB000204600F023F8022084F83D002068211DF2
:103CC00001F036FD012084F8480084F83E0084F8B5
:103CD0003F0084F8400084F8410084F8420084F8F2
:103CE000430084F8440084F8450084F8460084F8D2
:103CF000470084F83D00002010BD000030B587B0BB
:103D000000210091019102910391049100683349CF
:103D1000A0F18042B2F5806218D0A0F18042B2F5E5
:103D200040621CBF07B030BD086840F00800086062
:103D300008680022032100F0080005903220FEF7F9
:103D40009FFA3220FEF78CFA07B030BD086840F0C9
:103D500002000860086800F0020005902048016831
:103D600041F001010160016801F001010591016864
:103D700041F002010160016801F002010591016852
:103D800041F004010160006802240325694600F047
:103D900004000590C0200494CDE900041148CDE949
:103DA0000245FEF7A5F801206946CDE900040E485A
:103DB000CDE902450494FEF79BF820026946CDE95F
:103DC00000040A48CDE902450494FEF791F8002268
:103DD00001211D20FEF754FA1D20B3E7E8440258E4
:103DE000E04402580000025800040258000802583B
:103DF00090F83D1001291CBF01207047022180F876
:103E00003D100168CB6843F00103CB600068A0F16E
:103E10008042B2F5803218BFB0F1804F1DD0A0F1C2
:103E20008041B1F580611CBFA0F18041B1F5006116
:103E300013D0A0F18041B1F540611FBFA0F18041D6
:103E4000B1F58231A0F18041B1F5C05105D00168D2
:103E500041F001010160002070478168034A114070
:103E6000062918BFB1F5803FF5D0F0E70700010043
:103E700090F83C20012A0DBF0220012380F83C303D
:103E8000704770B4022280F83D20D0F800C0DCF802
:103E9000082022F0770222F4441222F47F42CCF868
:103EA00008200A68702A24D00DDC12F00F0F46D1CA
:103EB0004FEA221CBCF1070F41D2DFE80CF09F9FB4
:103EC0009F9F80416000B2F1101F77D009DCB2F5EE
:103ED000805F34D0B2F5005F1ED0B2F5801F6DD088
:103EE00098E0A2F5801120391CBF1029202926D185
:103EF00084E00268D1E9014CC968956844EA01216F
:103F000041EA0C0C25F47F414CEA01019160016803
:103F10008A6842F0770211E00268D1E9014CC96871
:103F2000956844EA012141EA0C0C25F47F414CEAF2
:103F30000101916001688A6842F480428A6069E008
:103F40000268D1F804C0C968146A156A25F0010630
:103F5000166224F00A05946945EA0C0C24F0F0047A
:103F600044EA01119161C2F820C001688A6822F018
:103F7000700222F4401242F057028A604AE002685E
:103F8000D1F804C0C968146A24F010041462956959
:103F9000146A25F4704524F0A00445EA01319161CA
:103FA00044EA0C1CC2F820C001688A6822F0700242
:103FB00022F4401242F067028A602BE01EE00268A1
:103FC000D1F804C0C968146A156A25F001061662A2
:103FD00024F00A05946945EA0C0C24F0F00444EA44
:103FE00001119161C2F820C001688A6822F0700254
:103FF00022F4401242F047028A600BE00168D1F8D7
:1040000008C02CF0700C2CF4401C4CEA020242F068
:1040100007028A604FF0000180F83D3080F83C10C4
:10402000084670BC7047000010B5007F012818BF1B
:1040300010BD002001F03EFA16490A221648A1F8E8
:10404000D62291F8D522B2B1002281F8D52201689A
:104050000A6A22F00A020A620068016A41F002015B
:1040600001620D48002100F033F9BDE810400A4814
:10407000002100F02DB9012281F8D52201680A6AD9
:1040800022F00A020A620068016A41F0020101623C
:10409000EBE700009C000024101E00242DE9F00135
:1040A00090F83C30012B02BF0220BDE8F0017047C0
:1040B00001234FF0F00C002A80F83C3036D0042A5F
:1040C0004FF470437ED0CD68082A02687BD0D1E9D6
:1040D000004C166A4FF4204726F48058C2F820801E
:1040E00003EA0536D569136A07EA043725F44074F4
:1040F00023F4204544EA0C2323F470433343D36173
:1041000047EA050CC2F820C00268D36923F4406373
:10411000D36102688968D36943EA0121D161002132
:1041200080F83C10BDE8F001084670470268D1E90C
:104130000057CC68136AA2F18046B6F5803623F0AA
:10414000010313629369166A18BFB2F1804F1FD042
:10415000A2F18048B8F580681CBFA2F18048B8F58C
:10416000006815D0A2F18048B8F540681CBFA2F1E4
:104170008048B8F582380BD0A2F18048B8F5C05815
:104180001EBFA2F18048B8F5A03843F0010302D168
:1041900023F003033B430CEA041423F0F0031C4315
:1041A000946126F00A0C05F00A0545EA0C03136237
:1041B0000268936923F00C0393610268896893692C
:1041C000194329E000E029E00268D1E9004CCD68FC
:1041D000166AA02726F01008C2F8208003EA0536E8
:1041E0009369156A07EA041723F4407444EA0C2C17
:1041F00025F0A0032CF4704C3B4346EA0C0CC2F8AB
:1042000018C013620268936923F4406393610268E3
:104210008968936943EA0121916180E7D1E900430C
:10422000166A4FF4206726F48078C2F820800CEAE2
:104230000516D2F81CC0156A07EA04272CF0030CF7
:104240004CEA030325F4206423F0F0033343D361E5
:1042500047EA040CC2F820C00268D36923F00C03BB
:10426000D36102688968D369194357E7002804BFFE
:104270000120704710B5044690F83D0028B9002091
:1042800084F83C00204600F022F8022084F83D002B
:104290002068211D01F04CFA012084F8480084F8C0
:1042A0003E0084F83F0084F8400084F8410084F820
:1042B000420084F8430084F8440084F8450084F800
:1042C000460084F8470084F83D00002010BD704788
:1042D000002904BF90F83E2090F844301AD00429F9
:1042E00004BF90F83F2090F8453013D0082904BF50
:1042F00090F8402090F846300CD00C2908BF90F878
:10430000412005D010290CBF90F8422090F843209E
:1043100090F84730012A0EBF012B012070474FF063
:104320000202B1B104291DD0082924D00C2908BFEC
:1043300080F8412008D0102906BF80F8422080F87C
:10434000472080F8432024D00C2980F8472020D132
:104350001AE080F83E2080F844200268D36843F0D9
:10436000020315E080F83F2080F845200268D368FA
:1043700043F004030CE080F8402080F846200268F7
:10438000D36843F0080303E00268D36843F01003E6
:10439000D3600268012301F01F0103FA01F1136ADF
:1043A0008B431362136A194311620068A0F18041C4
:1043B000B1F5803118BFB0F1804F1DD0A0F1804120
:1043C000B1F580611CBFA0F18041B1F5006113D04F
:1043D000A0F18041B1F540611FBFA0F18041B1F56E
:1043E0008231A0F18041B1F5C05105D0016841F0A2
:1043F00001010160002070478168044A11400629CC
:1044000018BFB1F5803FF5D0F0E7000007000100CC
:1044100070B5044600680025016911F0020F1CBF49
:10442000C16811F0020F13D001216FF00202026186
:1044300021772068806910F0030F204602D0FFF733
:10444000F3FD04E000F0A8F8204600F0A6F8257778
:104450002068016911F0040F1CBFC16811F0040F3E
:1044600013D002216FF00402026121772068806975
:1044700010F4407F204602D0FFF7D6FD04E000F0A4
:104480008BF8204600F089F825772068016911F043
:10449000080F1CBFC16811F0080F13D004216FF082
:1044A0000802026121772068C06910F0030F2046DE
:1044B00002D0FFF7B9FD04E000F06EF8204600F0EE
:1044C0006CF825772068016911F0100F1CBFC168D6
:1044D00011F0100F13D008216FF010020261217744
:1044E0002068C06910F4407F204602D0FFF79CFD91
:1044F00004E000F051F8204600F04FF825772068DE
:10450000016911F0010F1CBFC16811F0010F05D046
:104510006FF001010161204600F040F82068016958
:1045200011F0800F1CBFC16811F0800F05D06FF033
:10453000800101612046FFF75EFB2068016911F4EC
:10454000807F1CBFC16811F0800F05D06FF48071AF
:1045500001612046FFF74EFB2068016911F0400F12
:104560001CBFC16811F0400F05D06FF04001016120
:10457000204600F062F82068016911F0200F1ABF90
:10458000C16811F0200F70BD6FF02001016120465D
:10459000BDE87040FFF730BB704770470168B1F16C
:1045A000804F2ED01848A1F18042B2F5806222D00F
:1045B000A1F18042B2F5406218BF7047B0F8D61240
:1045C000002908BF7047491E0904090CA0F8D6123B
:1045D00018BF7047012190F8D432002203EBC303C7
:1045E00000EBC303597090F8D412491C80F8D41220
:1045F00080F8D822704790F8D812491C80F8D81259
:104600007047FDF79DBD00009C0000240029024674
:104610004FF0000002BF1068406B7047042902BFD2
:104620001068806B7047082902BF1068C06B704724
:104630000C2904BF1068006C7047704790F8801018
:10464000012904BF022070474DF8044D012280F873
:10465000802024214FF0200C0022C0F88410016833
:104660000B680C6823F0005324F001040C604266D0
:1046700001680B60C0F884C080F8802010465DF8A7
:10468000044B70477047704790F88020012A04BFA0
:104690000220704730B4012280F880202423C0F823
:1046A00084300368D3F800C01C6824F001041C6047
:1046B00003689C6824F0606421439960416E00297E
:1046C00008BFA0F86A2014D00168114B03F1080458
:1046D0008A688968C2F34262490F5D5C615C2D01A2
:1046E000B5FBF1F5A0F86A50995CA25C0901B1FB39
:1046F000F2F2A0F86820202203680021C3F800C06D
:10470000C0F8842080F88010084630BC7047000054
:10471000207B000890F88020012A04BF0220704707
:1047200030B4012280F880202423C0F8843003684C
:10473000D3F800C01C6824F001041C6003689C6866
:1047400024F0604421439960416E002908BFA0F81D
:104750006A2014D00168114B03F108048A68896843
:10476000C2F34262490F5D5C615C2D01B5FBF1F55E
:10477000A0F86A50995CA25C0901B1FBF2F2A0F8C2
:104780006820202203680021C3F800C0C0F88420FC
:1047900080F88010084630BC70470000207B00087D
:1047A000704770472DE9F041044600681026202725
:1047B000D4F88410D4F88850826812F0800F1BD08F
:1047C000212919D1816821F080018160A06F38B161
:1047D000FCF71CF920B1A06FFCF7FAFB202830D0C1
:1047E0002068016821F0C00101602068816821F41F
:1047F00000018160C4F884702068816811F0400F66
:104800002ED0222D2CD1816821F040018160E06FF3
:1048100038B1FCF7FBF820B1E06FFCF7D9FB20289A
:104820000FD02068016821F49071016020688168D0
:1048300021F0010121F080518160E06E01280AD150
:1048400004E0C4F88C600320BDE8F08120680168B2
:1048500021F0100101600020C4F88870E066206734
:104860000020BDE8F08170472DE9F0410268002585
:10487000044640F60F0C2026D0691168936810EAB0
:104880000C0F10D110F0200F7ED001F0200C03F09F
:1048900080575CEA070C77D0216F002908BFBDE87C
:1048A000F08100F06DB9DFF834C3CD4F03EA0C0C92
:1048B0000F405CEA070767D010F0010F18BF11F432
:1048C000807F07D001271762D4F88C2042F00102C4
:1048D000C4F88C2010F0020F18BF13F0010F08D09D
:1048E000276802223A62D4F88C2042F00402C4F80D
:1048F0008C2010F0040F18BF13F0010F08D02768A8
:1049000004223A62D4F88C2042F00202C4F88C20CF
:1049100010F0080F1CBF01F0200252EA0C020AD06E
:10492000D4F800C00822CCF82020D4F88C2042F023
:104930000802C4F88C2010F4006F18BF11F0806FCB
:104940000BD0D4F800C04FF40062CCF82020D4F88B
:104950008C2042F02002C4F88C20D4F88C20002A4D
:1049600008BFBDE8F08110F0200F09D001F0200051
:1049700003F0805108431FBF216F0029204688475C
:10498000D4F88C10206800E042E0826812F0400FFA
:1049900008BF11F0280F34D0016821F49071016034
:1049A0002068816821F0010121F080518160E06E72
:1049B000012804D12068016821F010010160C4F8C9
:1049C0008860E56625672068816811F0400F13D084
:1049D000816821F040018160E06F68B18149016523
:1049E000E06FFCF7BFF9002808BFBDE8F081E06F79
:1049F000016DBDE8F04108472046FFF734FFBDE8F0
:104A0000F0812046FFF72FFFC4F88C50BDE8F081FD
:104A1000D4F86CC0BCF1010F7ED110F0100F18BF9C
:104A200011F0100F78D04FF01000106222689068DB
:104A300010F0400F5FD0E16F6B4B086898421CBFCD
:104A40006A4B984223D06A4B98421CBF694B9842EC
:104A50001DD0694B98421CBF684B984217D0684BD9
:104A600098421CBF674B984211D0674B98421CBFBD
:104A7000664B98420BD0664B98421CBF654B9842E0
:104A800005D0654B98421EBF644B9842644B40680A
:104A90000004000C1CBFB4F85C30834298BFBDE832
:104AA000F081A4F85E00C869B0F5807F18D0106866
:104AB00020F4807010602068816821F0010181601D
:104AC0002068816821F040018160C4F88860E56653
:104AD0002068016821F010010160E06FFBF796FF8C
:104AE000B4F85C00B4F85E10401A81B22046FFF7BB
:104AF000C9FDBDE8F081B4F85C00B4F85E10B4F80C
:104B00005E30401A81B2002B14BF0029BDE8F0814D
:104B1000106820F4907000E015E010602068826852
:104B200022F0010222F080528260C4F88860E566BB
:104B300025672068026822F0100202602046FFF715
:104B4000A1FDBDE8F08110F4801F18BF13F4800FA1
:104B500007D04FF4801010622046BDE8F041FFF707
:104B600020BE10F0800F0FD001F0800C03F4000382
:104B70005CEA030308D0616F002908BFBDE8F0813B
:104B80002046BDE8F041084710F0400F18BF11F073
:104B9000400F0BD01168204621F040011160C4F88D
:104BA0008460656700F0BEF9BDE8F08110F4000F85
:104BB00018BF11F0804F04D02046BDE8F041FFF748
:104BC000EFBD10F0807F14BF11F0004FBDE8F08101
:104BD0002046BDE8F041FFF756BD0000010000107F
:104BE0002001000433590008100002402800024050
:104BF000400002405800024070000240880002401D
:104C0000A0000240B8000240100402402804024004
:104C100040040240580402407004024088040240EC
:104C2000A0040240002804BF0120704710B50446CC
:104C3000D0F8840028B9002084F88000204600F0D5
:104C400029F82420C4F884002068016821F00101BB
:104C50000160204600F01CFF012808BF10BDA06ABB
:104C600000281CBF204600F0C5FD2068416821F4E3
:104C7000904141602068816821F02A0181602068AC
:104C8000016841F0010101602046BDE8104000F0DC
:104C90001EBE00002DE9F043B5B007460026684669
:104CA000BC212F963096319632963396FBF780FCD6
:104CB0003868A0F18041B1F588311CBF35B0BDE83E
:104CC000F08301201E9600906846FDF707FD00283E
:104CD00018BFFBF798FE2E48016841F010010160F3
:104CE000006800F0100034902A48016841F0020189
:104CF0000160006802210423319600F00200349024
:104D00004FF44040CDE92F0103222348CDE932235F
:104D10002FA9FDF7EDF8214C4FF480682048292198
:104D20004FF4403920602046C4E90116C4E9036805
:104D30006661A661C4E907696662FCF7F1FC0028B8
:104D400018BFFBF760FE174D4022FC672A21A763BE
:104D50001548C5E90226C5E90486AE61C5E90769BB
:104D60006E62C5E900012846FCF7DAFC002818BF8E
:104D7000FBF749FEBD6700220E21AF632520FDF73A
:104D80007FFA2520FDF76CFA35B0BDE8F08300000E
:104D9000F0440258E0440258000402584023002422
:104DA00010000240B82300242800024070B5D0F85B
:104DB0008830202B59D1002912BF002A012070BD54
:104DC00090F88030012B50D003680025012480F832
:104DD0008040C566A3F1B04CBCF5406C1CBFD3F855
:104DE00004C01CF4000F05D0D3F800C04CF0806C58
:104DF000C3F800C081650446A0F85C204FF0220C87
:104E0000C16F1346C0F88C50C0F888C0D1B11848A3
:104E1000C863E16F17480864E16F1748C864E06F22
:104E200005652168A26DE06F2431FCF715FF48B1DC
:104E30001020C4F88C00202184F880500120C4F890
:104E4000841070BD84F88050002021680A6842F404
:104E500080720A6021688A6842F001028A602168D3
:104E60008A6842F040028A6070BD022070BD000076
:104E7000E15900083D5A000847590008704770473B
:104E800070B50446D0F88400202842D1002912BF12
:104E9000002A012070BD94F88000012839D0A4F8C0
:104EA0005420A4F856200025A06F0123216521215C
:104EB00084F88030C4F88C50C4F88410E8B11649E6
:104EC000C163A16F15480864A16F1548C864A06F3D
:104ED00005652368216D03F1280CA06F1346624617
:104EE000FCF7BAFE48B11021C4F88C10202084F8D9
:104EF0008050C4F88400012070BD21684020086201
:104F000084F880502068816841F080018160002031
:104F100070BD022070BD0000595A0008875A000871
:104F20004759000870477047FEE70000074C084DDE
:104F30002846217881F0010222700221FDF7EEF867
:104F40004FF4FA7001F0A0F8F2E70000000000242E
:104F5000000402580D4808B5016841F001010160E4
:104F600000680022052100F0010000900B20FDF7F1
:104F700087F90B20FDF774F9002205210C20FDF7BD
:104F80007FF9BDE808400C20FDF76AB9D844025803
:104F900070B50D4C8EB094E86F108DE86F10002145
:104FA000684601F07EF8094D1C340DF11C0E686056
:104FB00094E85F108EE85F10002107A801F071F8F7
:104FC000A8600EB070BD0000C87A00080000002480
:104FD00030B587B01C4800240094019402940394D7
:104FE0000494016841F080010160016801F08001D2
:104FF0000591016841F001010160016801F00101C2
:105000000591016841F002010160016801F00201AF
:105010000591016841F004010160006801220B4D17
:10502000022100F0040005902846FDF777F80121E1
:1050300003220220CDE90001CDE90242694628465B
:10504000FCF756FF07B030BDE04402580004025898
:1050500010B58CB0344800244FF6FF721723DFF8E8
:10506000C4C00594802104940694079408940A947B
:1050700009940094019402940394C0E902420461EB
:105080008161C0E900C3FEF707FE002818BFFBF7E7
:10509000BAFC4FF480500490234804A9FEF7E8FEC0
:1050A000002818BFFBF7AFFC1F48FFF7DFF8002808
:1050B00018BFFBF7A8FC202008901B4808A90A94F9
:1050C000FEF79CFD002818BFFBF79DFC01206946F8
:1050D000002202940394CDE900401348FEF7DEFF5E
:1050E000002818BFFBF78FFC04220F486946FEF723
:1050F000D5FF002818BFFBF786FC08220A4869463E
:10510000FEF7CCFF002818BFFBF77DFC0C220648F9
:105110006946FEF7C3FF002818BFFBF774FC0CB00C
:1051200010BD000000040040101E002410B588B01F
:1051300019480024194AEF23DFF858C00094802151
:10514000019402940394049405940694C0E90242E5
:1051500004618161C0E900C3FEF79EFD002818BF0D
:10516000FBF751FC4FF4805000900B486946FEF766
:105170007FFE002818BFFBF746FC049404A90648EC
:105180000694FEF73BFD002818BFFBF73CFC08B077
:1051900010BD0000000C00405C1E0024A086010031
:1051A00010B51E4C00201E4B0C214FF4E132236041
:1051B000C4E90120E060C4E90401A061E06120626B
:1051C0006062A0622046FFF72DFD002818BFFBF7A4
:1051D0001AFC00211148FFF79DFA002818BFFBF7C1
:1051E00012FC00210D48FFF74FFA002818BFFBF70B
:1051F0000AFC0A48FFF722FA002818BFFBF703FC55
:105200002068016841F01001016006494FF4806296
:10521000BDE8104001F58060FFF7C8BDB022002452
:1052200000100140B01E0024FEE7FEE72DE9F04724
:10523000DFF82C918846044603200027D9F8001097
:10524000884304BF0120BDE8F087464E306820F057
:1052500080603060FCF76EFF0546306810F0006F2C
:1052600009D000BFFCF766FF401B02286DD83068EC
:1052700010F0006FF6D12068D9F8001021F47C31CD
:1052800041EA0030C9F800004FF4FE010A0294F828
:1052900008C0A588B4F80C9094F810A06D1E4FEAD1
:1052A0004C2C314BACF5007C3048A9F101090CF4D1
:1052B0007E4CAAF1010AC5F3080501EA09414CEA4E
:1052C000050C02EA0A624CEA010111431960026806
:1052D000616922F0C002114301600168A26921F0F6
:1052E00020010A430260191D026822F010020260C8
:1052F0000A68E3696FF3CF0242EAC3020A600168F9
:10530000B8F1000F41F01001016014D00168B8F14C
:10531000010F0CBF41F4801141F4001101603068AD
:1053200040F080603060FCF705FF0446306810F004
:10533000006F05D010E0016841F400210160EEE744
:10534000FCF7F8FE001B022802D90320BDE8F08715
:10535000306810F0006FF3D03846BDE8F0870000E9
:105360002844025800440258384402582C44025839
:105370002DE9F047DFF82C918846044603200027EA
:10538000D9F80010884304BF0120BDE8F087464EDD
:10539000306820F080503060FCF7CCFE0546306865
:1053A00010F0005F09D000BFFCF7C4FE401B0228CC
:1053B0006DD8306810F0005FF6D12088D9F8001061
:1053C00021F07C7141EA0050C9F800004FF4FE0161
:1053D0000A0294F808C0A588B4F80C9094F810A0BC
:1053E0006D1E4FEA4C2C314BACF5007C3048A9F1D6
:1053F00001090CF47E4CAAF1010AC5F3080501EA83
:1054000009414CEA050C02EA0A624CEA0101114327
:1054100019600268616922F4406211430160016809
:10542000A26921F400710A430260191D026822F486
:10543000807202600A68E3696FF3CF0242EAC30236
:105440000A600168B8F1000F41F48071016014D066
:105450000168B8F1010F0CBF41F4000141F0807107
:105460000160306840F080503060FCF763FE044615
:10547000306810F0005F05D010E0016841F4800151
:105480000160EEE7FCF756FE001B022802D903205C
:10549000BDE8F087306810F0005FF3D03846BDE813
:1054A000F087000028440258004402584044025843
:1054B0002C440258B723184910B510FB03F0174AC3
:1054C00001EB800494F8D402A2FB0021C9084942F0
:1054D00001EB810100EB410084F8D40200EBC00035
:1054E00004EBC0004178002918BF10BD817801F09D
:1054F0001F0181700A480021FFF788F894F8D41240
:1055000001EBC10104EBC1018A78531C8B7001EBE4
:105510004202908010BD00009C000024CDCCCCCC79
:10552000101E0024502010B580F31188BFF34F8F58
:10553000BFF36F8F02F050F818B104494FF080505C
:105540000860002080F3118810BD000004ED00E029
:1055500030B59DB04C216846FBF72AF8002414941E
:105560001594022016941794189419941A941B9465
:10557000FCF7C8FE20482149026842F4404202601C
:1055800002680A6842F001020A60096801F001013C
:105590001391016811F4005FFBD0012303930220F3
:1055A00000904025049504210B91CDE909043C228B
:1055B0000E90CDE90C200C230F90CDE910346846F5
:1055C0001294FEF727F808B172B6FEE70822169487
:1055D0000321D301CDE917253F20CDE91953CDE9AA
:1055E000140104211B9514A8FDF740FD002804BFF9
:1055F0001DB030BD72B6FEE7184802582C040058A2
:10560000334870B4334A016841F470010160106896
:1056100000F00F00072805D2106820F00F0040F0BE
:10562000070010602C4900202C4B0C68DFF8B0C03C
:1056300044F001040C6018600B6803EA0C030B6073
:10564000136803F00F03072B05D9136823F00F032A
:1056500043F007031360DFF890C0224A234B0CF19C
:105660000406341DCCF80000214DDFF888C03060FE
:105670002E1D2060341D2B60231DC6F800C003F1D1
:10568000040C22600CF10404251D18602B1DCCF8BD
:10569000002020602A6018600A68174BDFF85CC0A1
:1056A00022F480220A601860DCF800006FF30F001B
:1056B000B0F1005F03D212490120C1F8080143F2A2
:1056C000D2001049104B4A0308601A6070BC704742
:1056D00088ED00E0002000520044025810440258B7
:1056E0007FEDF6EA8002010118440258000202022E
:1056F000284402580000FF01604402580010005C7A
:10570000008000510040005208ED00E00148FEF723
:105710007FBE0000302400240148FEF779BE00005F
:10572000101E00240148FEF773BE00005C1E00241A
:105730002DE9F003274B284C284D98420268284E4B
:10574000DFF8A0C018BFB0F1804F07D0A04218BF4B
:10575000A84203D0B04218BF604504D14F6822F080
:10576000700247EA0202204FDFF880809842DFF89B
:10577000809018BFB0F1804F0CD0A04218BFA84253
:1057800008D0B04218BF604504D0B8421CBF4045A5
:10579000484504D1CC6822F4407244EA02024C69C4
:1057A00022F08002984242EA040202608A68C262E1
:1057B0000A68826218BF604504D0B8421CBF4045E9
:1057C000484501D1096901634FF001014161BDE81C
:1057D000F003704700000140000400400008004052
:1057E000000C004000040140004001400044014022
:1057F0000048014090F8281011F0010F06D0016810
:10580000C26A4B6823F400331A434A6090F82810A8
:1058100011F0020F06D00168026B4B6823F480334D
:105820001A434A6090F8281011F0040F06D001685E
:10583000426B4B6823F480231A434A6090F8281087
:1058400011F0080F06D00168826B4B6823F4004307
:105850001A434A6090F8281011F0100F06D0016822
:10586000C26B8B6823F480531A438A6090F8281027
:1058700011F0200F06D00168026C8B6823F40053EE
:105880001A438A6090F8281011F0400F11D0016877
:10589000426C4B6823F480131A434A60416CB1F5A3
:1058A000801F06D10168826C4B6823F4C0031A4341
:1058B0004A6090F8281011F0800F08BF7047016807
:1058C000C06C4A6822F40022104348607047F8B563
:1058D00000250446C0F88C50FCF72CFC07462068D5
:1058E0006FF07E46006810F0080F08D000223B469B
:1058F0004FF400112046009600F0ACFA68B9206819
:10590000006810F0040F0AD000223B464FF48001DB
:105910002046009600F09EFA08B10320F8BD202032
:10592000C4F88400C4F88800E566002084F880503C
:10593000F8BD10B5806B0021A0F85E10A0F85610DD
:10594000FEF791FF10BD10B5806B20230021046885
:10595000D0F88420D0F888C0A46814F0800F0FD04D
:10596000212A0DD1A0F856100268146824F0C00452
:1059700014600268946824F400049460C0F88430D1
:105980000268946814F0400F21D0BCF1220F1ED1A0
:10599000A0F85E10D2F800C02CF4907CC2F800C0D1
:1059A0000268D2F808C02CF0010C2CF0805CC2F820
:1059B00008C0C26E012A06D10268D2F800C02CF0DD
:1059C000100CC2F800C0C0F88830C1660167D0F87A
:1059D0008C1041F01001C0F88C10FEF744FF10BD90
:1059E00010B5C169806BB1F5807F1CD00021A0F893
:1059F0005E10202201680B6823F480730B6001683D
:105A00008B6823F001038B6001688B6823F04003EF
:105A10008B60C0F88820C16E012904D101680A6832
:105A200022F010020A60C16E012902D0FFF726FAA7
:105A300010BDB0F85C10FEF725FE10BD10B5806BF0
:105A4000C16E012902D0FFF71AFA10BDB0F85C1040
:105A50004908FEF717FE10BD10B5C169806BB1F59E
:105A6000807F0DD00021A0F8561001688A6822F0CE
:105A700080028A600068016841F04001016010BD49
:105A8000FFF750FA10BD10B5806BFFF74CFA10BD50
:105A90002DE9F041D0F808C00446C66986B0006818
:105AA000D4E90451E44AE54B4CEA050C07680025AB
:105AB00031433A404CEA0101114301602068E1683A
:105AC000426822F44052114341602268A1699A421F
:105AD0001CBF206A01439668D94826F4306626F038
